{
  "_format": "hh-sol-artifact-1",
  "contractName": "NotMafia",
  "sourceName": "contracts/NotMafia.sol",
  "abi": [
    {
      "inputs": [],
      "stateMutability": "nonpayable",
      "type": "constructor"
    },
    {
      "inputs": [],
      "name": "AlreadyMintedMaxInPhase",
      "type": "error"
    },
    {
      "inputs": [],
      "name": "AmountNotAvailable",
      "type": "error"
    },
    {
      "inputs": [],
      "name": "ApprovalCallerNotOwnerNorApproved",
      "type": "error"
    },
    {
      "inputs": [],
      "name": "ApprovalQueryForNonexistentToken",
      "type": "error"
    },
    {
      "inputs": [],
      "name": "ApproveToCaller",
      "type": "error"
    },
    {
      "inputs": [],
      "name": "BalanceQueryForZeroAddress",
      "type": "error"
    },
    {
      "inputs": [],
      "name": "MintERC2309QuantityExceedsLimit",
      "type": "error"
    },
    {
      "inputs": [],
      "name": "MintToZeroAddress",
      "type": "error"
    },
    {
      "inputs": [],
      "name": "MintZeroQuantity",
      "type": "error"
    },
    {
      "inputs": [],
      "name": "NotWhiteListed",
      "type": "error"
    },
    {
      "inputs": [],
      "name": "OnlyUserMint",
      "type": "error"
    },
    {
      "inputs": [],
      "name": "OwnerQueryForNonexistentToken",
      "type": "error"
    },
    {
      "inputs": [],
      "name": "OwnershipNotInitializedForExtraData",
      "type": "error"
    },
    {
      "inputs": [],
      "name": "TransferCallerNotOwnerNorApproved",
      "type": "error"
    },
    {
      "inputs": [],
      "name": "TransferFromIncorrectOwner",
      "type": "error"
    },
    {
      "inputs": [],
      "name": "TransferToNonERC721ReceiverImplementer",
      "type": "error"
    },
    {
      "inputs": [],
      "name": "TransferToZeroAddress",
      "type": "error"
    },
    {
      "inputs": [],
      "name": "URIQueryForNonexistentToken",
      "type": "error"
    },
    {
      "inputs": [],
      "name": "ValueNotEqualToPrice",
      "type": "error"
    },
    {
      "inputs": [],
      "name": "WouldExceedMaxPerWallet",
      "type": "error"
    },
    {
      "inputs": [],
      "name": "WrongMintFunction",
      "type": "error"
    },
    {
      "anonymous": false,
      "inputs": [
        {
          "indexed": true,
          "internalType": "address",
          "name": "owner",
          "type": "address"
        },
        {
          "indexed": true,
          "internalType": "address",
          "name": "approved",
          "type": "address"
        },
        {
          "indexed": true,
          "internalType": "uint256",
          "name": "tokenId",
          "type": "uint256"
        }
      ],
      "name": "Approval",
      "type": "event"
    },
    {
      "anonymous": false,
      "inputs": [
        {
          "indexed": true,
          "internalType": "address",
          "name": "owner",
          "type": "address"
        },
        {
          "indexed": true,
          "internalType": "address",
          "name": "operator",
          "type": "address"
        },
        {
          "indexed": false,
          "internalType": "bool",
          "name": "approved",
          "type": "bool"
        }
      ],
      "name": "ApprovalForAll",
      "type": "event"
    },
    {
      "anonymous": false,
      "inputs": [
        {
          "indexed": false,
          "internalType": "uint256",
          "name": "newStatus",
          "type": "uint256"
        }
      ],
      "name": "ChangedStatus",
      "type": "event"
    },
    {
      "anonymous": false,
      "inputs": [
        {
          "indexed": true,
          "internalType": "uint256",
          "name": "fromTokenId",
          "type": "uint256"
        },
        {
          "indexed": false,
          "internalType": "uint256",
          "name": "toTokenId",
          "type": "uint256"
        },
        {
          "indexed": true,
          "internalType": "address",
          "name": "from",
          "type": "address"
        },
        {
          "indexed": true,
          "internalType": "address",
          "name": "to",
          "type": "address"
        }
      ],
      "name": "ConsecutiveTransfer",
      "type": "event"
    },
    {
      "anonymous": false,
      "inputs": [
        {
          "indexed": true,
          "internalType": "address",
          "name": "previousOwner",
          "type": "address"
        },
        {
          "indexed": true,
          "internalType": "address",
          "name": "newOwner",
          "type": "address"
        }
      ],
      "name": "OwnershipTransferred",
      "type": "event"
    },
    {
      "anonymous": false,
      "inputs": [
        {
          "indexed": true,
          "internalType": "address",
          "name": "from",
          "type": "address"
        },
        {
          "indexed": true,
          "internalType": "address",
          "name": "to",
          "type": "address"
        },
        {
          "indexed": true,
          "internalType": "uint256",
          "name": "tokenId",
          "type": "uint256"
        }
      ],
      "name": "Transfer",
      "type": "event"
    },
    {
      "inputs": [
        {
          "internalType": "address",
          "name": "to",
          "type": "address"
        },
        {
          "internalType": "uint256",
          "name": "tokenId",
          "type": "uint256"
        }
      ],
      "name": "approve",
      "outputs": [],
      "stateMutability": "nonpayable",
      "type": "function"
    },
    {
      "inputs": [
        {
          "internalType": "address",
          "name": "owner",
          "type": "address"
        }
      ],
      "name": "balanceOf",
      "outputs": [
        {
          "internalType": "uint256",
          "name": "",
          "type": "uint256"
        }
      ],
      "stateMutability": "view",
      "type": "function"
    },
    {
      "inputs": [],
      "name": "baseURI",
      "outputs": [
        {
          "internalType": "string",
          "name": "",
          "type": "string"
        }
      ],
      "stateMutability": "view",
      "type": "function"
    },
    {
      "inputs": [
        {
          "internalType": "uint256",
          "name": "tokenId",
          "type": "uint256"
        }
      ],
      "name": "getApproved",
      "outputs": [
        {
          "internalType": "address",
          "name": "",
          "type": "address"
        }
      ],
      "stateMutability": "view",
      "type": "function"
    },
    {
      "inputs": [],
      "name": "getCurrentTokenId",
      "outputs": [
        {
          "internalType": "uint256",
          "name": "",
          "type": "uint256"
        }
      ],
      "stateMutability": "view",
      "type": "function"
    },
    {
      "inputs": [
        {
          "internalType": "address",
          "name": "__address",
          "type": "address"
        }
      ],
      "name": "getHasMintedFree",
      "outputs": [
        {
          "internalType": "bool",
          "name": "",
          "type": "bool"
        }
      ],
      "stateMutability": "view",
      "type": "function"
    },
    {
      "inputs": [
        {
          "internalType": "address",
          "name": "__address",
          "type": "address"
        }
      ],
      "name": "getHasMintedSale",
      "outputs": [
        {
          "internalType": "uint256",
          "name": "",
          "type": "uint256"
        }
      ],
      "stateMutability": "view",
      "type": "function"
    },
    {
      "inputs": [
        {
          "internalType": "address",
          "name": "__address",
          "type": "address"
        }
      ],
      "name": "getHasMintedWhiteList",
      "outputs": [
        {
          "internalType": "bool",
          "name": "",
          "type": "bool"
        }
      ],
      "stateMutability": "view",
      "type": "function"
    },
    {
      "inputs": [
        {
          "internalType": "address",
          "name": "owner",
          "type": "address"
        },
        {
          "internalType": "address",
          "name": "operator",
          "type": "address"
        }
      ],
      "name": "isApprovedForAll",
      "outputs": [
        {
          "internalType": "bool",
          "name": "",
          "type": "bool"
        }
      ],
      "stateMutability": "view",
      "type": "function"
    },
    {
      "inputs": [],
      "name": "name",
      "outputs": [
        {
          "internalType": "string",
          "name": "",
          "type": "string"
        }
      ],
      "stateMutability": "view",
      "type": "function"
    },
    {
      "inputs": [],
      "name": "owner",
      "outputs": [
        {
          "internalType": "address",
          "name": "",
          "type": "address"
        }
      ],
      "stateMutability": "view",
      "type": "function"
    },
    {
      "inputs": [
        {
          "internalType": "uint256",
          "name": "__amount",
          "type": "uint256"
        }
      ],
      "name": "ownerMint",
      "outputs": [],
      "stateMutability": "nonpayable",
      "type": "function"
    },
    {
      "inputs": [
        {
          "internalType": "uint256",
          "name": "tokenId",
          "type": "uint256"
        }
      ],
      "name": "ownerOf",
      "outputs": [
        {
          "internalType": "address",
          "name": "",
          "type": "address"
        }
      ],
      "stateMutability": "view",
      "type": "function"
    },
    {
      "inputs": [],
      "name": "preRevealURI",
      "outputs": [
        {
          "internalType": "string",
          "name": "",
          "type": "string"
        }
      ],
      "stateMutability": "view",
      "type": "function"
    },
    {
      "inputs": [],
      "name": "price",
      "outputs": [
        {
          "internalType": "uint256",
          "name": "",
          "type": "uint256"
        }
      ],
      "stateMutability": "view",
      "type": "function"
    },
    {
      "inputs": [
        {
          "internalType": "uint256",
          "name": "__amount",
          "type": "uint256"
        }
      ],
      "name": "publicMint",
      "outputs": [],
      "stateMutability": "payable",
      "type": "function"
    },
    {
      "inputs": [],
      "name": "renounceOwnership",
      "outputs": [],
      "stateMutability": "nonpayable",
      "type": "function"
    },
    {
      "inputs": [],
      "name": "revealed",
      "outputs": [
        {
          "internalType": "bool",
          "name": "",
          "type": "bool"
        }
      ],
      "stateMutability": "view",
      "type": "function"
    },
    {
      "inputs": [
        {
          "internalType": "address",
          "name": "from",
          "type": "address"
        },
        {
          "internalType": "address",
          "name": "to",
          "type": "address"
        },
        {
          "internalType": "uint256",
          "name": "tokenId",
          "type": "uint256"
        }
      ],
      "name": "safeTransferFrom",
      "outputs": [],
      "stateMutability": "nonpayable",
      "type": "function"
    },
    {
      "inputs": [
        {
          "internalType": "address",
          "name": "from",
          "type": "address"
        },
        {
          "internalType": "address",
          "name": "to",
          "type": "address"
        },
        {
          "internalType": "uint256",
          "name": "tokenId",
          "type": "uint256"
        },
        {
          "internalType": "bytes",
          "name": "_data",
          "type": "bytes"
        }
      ],
      "name": "safeTransferFrom",
      "outputs": [],
      "stateMutability": "nonpayable",
      "type": "function"
    },
    {
      "inputs": [
        {
          "internalType": "address",
          "name": "operator",
          "type": "address"
        },
        {
          "internalType": "bool",
          "name": "approved",
          "type": "bool"
        }
      ],
      "name": "setApprovalForAll",
      "outputs": [],
      "stateMutability": "nonpayable",
      "type": "function"
    },
    {
      "inputs": [
        {
          "internalType": "string",
          "name": "__newURI",
          "type": "string"
        }
      ],
      "name": "setBaseURI",
      "outputs": [],
      "stateMutability": "nonpayable",
      "type": "function"
    },
    {
      "inputs": [
        {
          "internalType": "string",
          "name": "__newURI",
          "type": "string"
        }
      ],
      "name": "setPreRevealURI",
      "outputs": [],
      "stateMutability": "nonpayable",
      "type": "function"
    },
    {
      "inputs": [
        {
          "internalType": "uint256",
          "name": "__price",
          "type": "uint256"
        }
      ],
      "name": "setPrice",
      "outputs": [],
      "stateMutability": "nonpayable",
      "type": "function"
    },
    {
      "inputs": [
        {
          "internalType": "bool",
          "name": "__revealed",
          "type": "bool"
        }
      ],
      "name": "setRevealed",
      "outputs": [],
      "stateMutability": "nonpayable",
      "type": "function"
    },
    {
      "inputs": [
        {
          "internalType": "uint256",
          "name": "__status",
          "type": "uint256"
        }
      ],
      "name": "setStatus",
      "outputs": [],
      "stateMutability": "nonpayable",
      "type": "function"
    },
    {
      "inputs": [
        {
          "internalType": "uint256",
          "name": "__newTotalSupply",
          "type": "uint256"
        }
      ],
      "name": "setTotalSupply",
      "outputs": [],
      "stateMutability": "nonpayable",
      "type": "function"
    },
    {
      "inputs": [
        {
          "internalType": "bytes32",
          "name": "__root",
          "type": "bytes32"
        }
      ],
      "name": "setWhiteListRoot",
      "outputs": [],
      "stateMutability": "nonpayable",
      "type": "function"
    },
    {
      "inputs": [],
      "name": "status",
      "outputs": [
        {
          "internalType": "enum NotMafia.Status",
          "name": "",
          "type": "uint8"
        }
      ],
      "stateMutability": "view",
      "type": "function"
    },
    {
      "inputs": [
        {
          "internalType": "bytes4",
          "name": "interfaceId",
          "type": "bytes4"
        }
      ],
      "name": "supportsInterface",
      "outputs": [
        {
          "internalType": "bool",
          "name": "",
          "type": "bool"
        }
      ],
      "stateMutability": "view",
      "type": "function"
    },
    {
      "inputs": [],
      "name": "symbol",
      "outputs": [
        {
          "internalType": "string",
          "name": "",
          "type": "string"
        }
      ],
      "stateMutability": "view",
      "type": "function"
    },
    {
      "inputs": [
        {
          "internalType": "uint256",
          "name": "__tokenId",
          "type": "uint256"
        }
      ],
      "name": "tokenURI",
      "outputs": [
        {
          "internalType": "string",
          "name": "",
          "type": "string"
        }
      ],
      "stateMutability": "view",
      "type": "function"
    },
    {
      "inputs": [],
      "name": "totalSupply",
      "outputs": [
        {
          "internalType": "uint256",
          "name": "",
          "type": "uint256"
        }
      ],
      "stateMutability": "view",
      "type": "function"
    },
    {
      "inputs": [
        {
          "internalType": "address",
          "name": "from",
          "type": "address"
        },
        {
          "internalType": "address",
          "name": "to",
          "type": "address"
        },
        {
          "internalType": "uint256",
          "name": "tokenId",
          "type": "uint256"
        }
      ],
      "name": "transferFrom",
      "outputs": [],
      "stateMutability": "nonpayable",
      "type": "function"
    },
    {
      "inputs": [
        {
          "internalType": "address",
          "name": "newOwner",
          "type": "address"
        }
      ],
      "name": "transferOwnership",
      "outputs": [],
      "stateMutability": "nonpayable",
      "type": "function"
    },
    {
      "inputs": [
        {
          "internalType": "bytes32[]",
          "name": "__proof",
          "type": "bytes32[]"
        }
      ],
      "name": "whiteListMint",
      "outputs": [],
      "stateMutability": "nonpayable",
      "type": "function"
    },
    {
      "inputs": [],
      "name": "whiteListRoot",
      "outputs": [
        {
          "internalType": "bytes32",
          "name": "",
          "type": "bytes32"
        }
      ],
      "stateMutability": "view",
      "type": "function"
    },
    {
      "inputs": [],
      "name": "withdraw",
      "outputs": [],
      "stateMutability": "nonpayable",
      "type": "function"
    }
  ],
  "bytecode": "0x608060405261115c6011553480156200001757600080fd5b506040518060400160405280600981526020017f4e6f74204d6166696100000000000000000000000000000000000000000000008152506040518060400160405280600481526020017f4e544d460000000000000000000000000000000000000000000000000000000081525081600290805190602001906200009c92919062000232565b508060039080519060200190620000b592919062000232565b50620000c66200015b60201b60201c565b6000819055505050620000ee620000e26200016460201b60201c565b6200016c60201b60201c565b60016009819055506000600a60006101000a81548160ff021916908360028111156200011f576200011e620002e2565b5b0217905550661edf824b192000600b8190555060016010819055506000600c60006101000a81548160ff02191690831515021790555062000376565b60006001905090565b600033905090565b6000600860009054906101000a900473ffffffffffffffffffffffffffffffffffffffff16905081600860006101000a81548173ffffffffffffffffffffffffffffffffffffffff021916908373ffffffffffffffffffffffffffffffffffffffff1602179055508173ffffffffffffffffffffffffffffffffffffffff168173ffffffffffffffffffffffffffffffffffffffff167f8be0079c531659141344cd1fd0a4f28419497f9722a3daafe3b4186f6b6457e060405160405180910390a35050565b828054620002409062000340565b90600052602060002090601f016020900481019282620002645760008555620002b0565b82601f106200027f57805160ff1916838001178555620002b0565b82800160010185558215620002b0579182015b82811115620002af57825182559160200191906001019062000292565b5b509050620002bf9190620002c3565b5090565b5b80821115620002de576000816000905550600101620002c4565b5090565b7f4e487b7100000000000000000000000000000000000000000000000000000000600052602160045260246000fd5b7f4e487b7100000000000000000000000000000000000000000000000000000000600052602260045260246000fd5b600060028204905060018216806200035957607f821691505b6020821081141562000370576200036f62000311565b5b50919050565b6138c280620003866000396000f3fe6080604052600436106102255760003560e01c806369ba1a7511610123578063a035b1fe116100ab578063e985e9c51161006f578063e985e9c5146107e4578063f19e75d414610821578063f2fde38b1461084a578063f524d6cd14610873578063f7ea7a3d146108b057610225565b8063a035b1fe14610701578063a22cb4651461072c578063b88d4fde14610755578063c87b56dd1461077e578063e0a80853146107bb57610225565b806379b6ed36116100f257806379b6ed361461062e5780638da5cb5b1461065957806391b7f5ed1461068457806395d89b41146106ad57806397254e55146106d857610225565b806369ba1a75146105865780636c0360eb146105af57806370a08231146105da578063715018a61461061757610225565b8063374bc20b116101b15780635183022711610175578063518302271461049f57806355f804b3146104ca57806356189236146104f35780636352211e1461051e57806365f4fd121461055b57610225565b8063374bc20b146103bc5780633ccfd60b146103f957806342842e0e1461041057806345149bb3146104395780634d7216901461046257610225565b806318160ddd116101f857806318160ddd146102f8578063200d2ed21461032357806323b872dd1461034e5780632a85db55146103775780632db11544146103a057610225565b806301ffc9a71461022a57806306fdde0314610267578063081812fc14610292578063095ea7b3146102cf575b600080fd5b34801561023657600080fd5b50610251600480360381019061024c9190612b8a565b6108d9565b60405161025e9190612bd2565b60405180910390f35b34801561027357600080fd5b5061027c61096b565b6040516102899190612c86565b60405180910390f35b34801561029e57600080fd5b506102b960048036038101906102b49190612cde565b6109fd565b6040516102c69190612d4c565b60405180910390f35b3480156102db57600080fd5b506102f660048036038101906102f19190612d93565b610a7c565b005b34801561030457600080fd5b5061030d610bc0565b60405161031a9190612de2565b60405180910390f35b34801561032f57600080fd5b50610338610bd7565b6040516103459190612e74565b60405180910390f35b34801561035a57600080fd5b5061037560048036038101906103709190612e8f565b610bea565b005b34801561038357600080fd5b5061039e60048036038101906103999190613017565b610f0f565b005b6103ba60048036038101906103b59190612cde565b610f31565b005b3480156103c857600080fd5b506103e360048036038101906103de9190613060565b61107e565b6040516103f09190612bd2565b60405180910390f35b34801561040557600080fd5b5061040e6110d4565b005b34801561041c57600080fd5b5061043760048036038101906104329190612e8f565b61117b565b005b34801561044557600080fd5b50610460600480360381019061045b91906130c3565b61119b565b005b34801561046e57600080fd5b5061048960048036038101906104849190613060565b6111ad565b6040516104969190612de2565b60405180910390f35b3480156104ab57600080fd5b506104b46111f6565b6040516104c19190612bd2565b60405180910390f35b3480156104d657600080fd5b506104f160048036038101906104ec9190613017565b611209565b005b3480156104ff57600080fd5b5061050861122b565b6040516105159190612de2565b60405180910390f35b34801561052a57600080fd5b5061054560048036038101906105409190612cde565b611235565b6040516105529190612d4c565b60405180910390f35b34801561056757600080fd5b50610570611247565b60405161057d91906130ff565b60405180910390f35b34801561059257600080fd5b506105ad60048036038101906105a89190612cde565b61124d565b005b3480156105bb57600080fd5b506105c46112cb565b6040516105d19190612c86565b60405180910390f35b3480156105e657600080fd5b5061060160048036038101906105fc9190613060565b611359565b60405161060e9190612de2565b60405180910390f35b34801561062357600080fd5b5061062c611412565b005b34801561063a57600080fd5b50610643611426565b6040516106509190612c86565b60405180910390f35b34801561066557600080fd5b5061066e6114b4565b60405161067b9190612d4c565b60405180910390f35b34801561069057600080fd5b506106ab60048036038101906106a69190612cde565b6114de565b005b3480156106b957600080fd5b506106c26114f0565b6040516106cf9190612c86565b60405180910390f35b3480156106e457600080fd5b506106ff60048036038101906106fa919061317a565b611582565b005b34801561070d57600080fd5b50610716611827565b6040516107239190612de2565b60405180910390f35b34801561073857600080fd5b50610753600480360381019061074e91906131f3565b61182d565b005b34801561076157600080fd5b5061077c600480360381019061077791906132d4565b6119a5565b005b34801561078a57600080fd5b506107a560048036038101906107a09190612cde565b611a18565b6040516107b29190612c86565b60405180910390f35b3480156107c757600080fd5b506107e260048036038101906107dd9190613357565b611be1565b005b3480156107f057600080fd5b5061080b60048036038101906108069190613384565b611c06565b6040516108189190612bd2565b60405180910390f35b34801561082d57600080fd5b5061084860048036038101906108439190612cde565b611c9a565b005b34801561085657600080fd5b50610871600480360381019061086c9190613060565b611d5e565b005b34801561087f57600080fd5b5061089a60048036038101906108959190613060565b611de2565b6040516108a79190612bd2565b60405180910390f35b3480156108bc57600080fd5b506108d760048036038101906108d29190612cde565b611e38565b005b60006301ffc9a760e01b827bffffffffffffffffffffffffffffffffffffffffffffffffffffffff1916148061093457506380ac58cd60e01b827bffffffffffffffffffffffffffffffffffffffffffffffffffffffff1916145b806109645750635b5e139f60e01b827bffffffffffffffffffffffffffffffffffffffffffffffffffffffff1916145b9050919050565b60606002805461097a906133f3565b80601f01602080910402602001604051908101604052809291908181526020018280546109a6906133f3565b80156109f35780601f106109c8576101008083540402835291602001916109f3565b820191906000526020600020905b8154815290600101906020018083116109d657829003601f168201915b5050505050905090565b6000610a0882611e4a565b610a3e576040517fcf4700e400000000000000000000000000000000000000000000000000000000815260040160405180910390fd5b6006600083815260200190815260200160002060000160009054906101000a900473ffffffffffffffffffffffffffffffffffffffff169050919050565b6000610a8782611235565b90508073ffffffffffffffffffffffffffffffffffffffff16610aa8611ea9565b73ffffffffffffffffffffffffffffffffffffffff1614610b0b57610ad481610acf611ea9565b611c06565b610b0a576040517fcfb3b94200000000000000000000000000000000000000000000000000000000815260040160405180910390fd5b5b826006600084815260200190815260200160002060000160006101000a81548173ffffffffffffffffffffffffffffffffffffffff021916908373ffffffffffffffffffffffffffffffffffffffff160217905550818373ffffffffffffffffffffffffffffffffffffffff168273ffffffffffffffffffffffffffffffffffffffff167f8c5be1e5ebec7d5bd14f71427d1e84f3dd0314c0f7b2291e5b200ac8c7c3b92560405160405180910390a4505050565b6000610bca611eb1565b6001546000540303905090565b600a60009054906101000a900460ff1681565b6000610bf582611eba565b90508373ffffffffffffffffffffffffffffffffffffffff168173ffffffffffffffffffffffffffffffffffffffff1614610c5c576040517fa114810000000000000000000000000000000000000000000000000000000000815260040160405180910390fd5b600080610c6884611f88565b91509150610c7e8187610c79611ea9565b611faf565b610cca57610c9386610c8e611ea9565b611c06565b610cc9576040517f59c896be00000000000000000000000000000000000000000000000000000000815260040160405180910390fd5b5b600073ffffffffffffffffffffffffffffffffffffffff168573ffffffffffffffffffffffffffffffffffffffff161415610d31576040517fea553b3400000000000000000000000000000000000000000000000000000000815260040160405180910390fd5b610d3e8686866001611ff3565b8015610d4957600082555b600560008773ffffffffffffffffffffffffffffffffffffffff1673ffffffffffffffffffffffffffffffffffffffff168152602001908152602001600020600081546001900391905081905550600560008673ffffffffffffffffffffffffffffffffffffffff1673ffffffffffffffffffffffffffffffffffffffff1681526020019081526020016000206000815460010191905081905550610e1785610df3888887611ff9565b7c020000000000000000000000000000000000000000000000000000000017612021565b600460008681526020019081526020016000208190555060007c020000000000000000000000000000000000000000000000000000000084161415610e9f576000600185019050600060046000838152602001908152602001600020541415610e9d576000548114610e9c578360046000838152602001908152602001600020819055505b5b505b838573ffffffffffffffffffffffffffffffffffffffff168773ffffffffffffffffffffffffffffffffffffffff167fddf252ad1be2c89b69c2b068fc378daa952ba7f163c4a11628f55a4df523b3ef60405160405180910390a4610f07868686600161204c565b505050505050565b610f17612052565b80600d9080519060200190610f2d929190612a7b565b5050565b60026009541415610f77576040517f08c379a0000000000000000000000000000000000000000000000000000000008152600401610f6e90613471565b60405180910390fd5b60026009819055503373ffffffffffffffffffffffffffffffffffffffff163273ffffffffffffffffffffffffffffffffffffffff1614610fe4576040517f2e75101900000000000000000000000000000000000000000000000000000000815260040160405180910390fd5b600280811115610ff757610ff6612dfd565b5b600a60009054906101000a900460ff16600281111561101957611018612dfd565b5b14611050576040517f012cd2e700000000000000000000000000000000000000000000000000000000815260040160405180910390fd5b6108ae601054111561106a57611065816120d0565b611073565b6110726122ac565b5b600160098190555050565b6000601360008373ffffffffffffffffffffffffffffffffffffffff1673ffffffffffffffffffffffffffffffffffffffff16815260200190815260200160002060009054906101000a900460ff169050919050565b6002600954141561111a576040517f08c379a000000000000000000000000000000000000000000000000000000000815260040161111190613471565b60405180910390fd5b600260098190555061112a612052565b3373ffffffffffffffffffffffffffffffffffffffff166108fc479081150290604051600060405180830381858888f19350505050158015611170573d6000803e3d6000fd5b506001600981905550565b611196838383604051806020016040528060008152506119a5565b505050565b6111a3612052565b80600f8190555050565b6000601460008373ffffffffffffffffffffffffffffffffffffffff1673ffffffffffffffffffffffffffffffffffffffff168152602001908152602001600020549050919050565b600c60009054906101000a900460ff1681565b611211612052565b80600e9080519060200190611227929190612a7b565b5050565b6000601054905090565b600061124082611eba565b9050919050565b600f5481565b611255612052565b80600281111561126857611267612dfd565b5b600a60006101000a81548160ff0219169083600281111561128c5761128b612dfd565b5b02179055507f3665a8b73cada881fbf8d8433b7d9e7d21c1e53eecf7bb51fb15262d98ee0afb816040516112c09190612de2565b60405180910390a150565b600e80546112d8906133f3565b80601f0160208091040260200160405190810160405280929190818152602001828054611304906133f3565b80156113515780601f1061132657610100808354040283529160200191611351565b820191906000526020600020905b81548152906001019060200180831161133457829003601f168201915b505050505081565b60008073ffffffffffffffffffffffffffffffffffffffff168273ffffffffffffffffffffffffffffffffffffffff1614156113c1576040517f8f4eb60400000000000000000000000000000000000000000000000000000000815260040160405180910390fd5b67ffffffffffffffff600560008473ffffffffffffffffffffffffffffffffffffffff1673ffffffffffffffffffffffffffffffffffffffff16815260200190815260200160002054169050919050565b61141a612052565b6114246000612436565b565b600d8054611433906133f3565b80601f016020809104026020016040519081016040528092919081815260200182805461145f906133f3565b80156114ac5780601f10611481576101008083540402835291602001916114ac565b820191906000526020600020905b81548152906001019060200180831161148f57829003601f168201915b505050505081565b6000600860009054906101000a900473ffffffffffffffffffffffffffffffffffffffff16905090565b6114e6612052565b80600b8190555050565b6060600380546114ff906133f3565b80601f016020809104026020016040519081016040528092919081815260200182805461152b906133f3565b80156115785780601f1061154d57610100808354040283529160200191611578565b820191906000526020600020905b81548152906001019060200180831161155b57829003601f168201915b5050505050905090565b600260095414156115c8576040517f08c379a00000000000000000000000000000000000000000000000000000000081526004016115bf90613471565b60405180910390fd5b60026009819055503373ffffffffffffffffffffffffffffffffffffffff163273ffffffffffffffffffffffffffffffffffffffff1614611635576040517f2e75101900000000000000000000000000000000000000000000000000000000815260040160405180910390fd5b6001600281111561164957611648612dfd565b5b600a60009054906101000a900460ff16600281111561166b5761166a612dfd565b5b146116a2576040517f012cd2e700000000000000000000000000000000000000000000000000000000815260040160405180910390fd5b6106a460105411156116e0576040517f47747fa900000000000000000000000000000000000000000000000000000000815260040160405180910390fd5b6116ed8282600f546124fc565b611723576040517f6a9a57a500000000000000000000000000000000000000000000000000000000815260040160405180910390fd5b601260003373ffffffffffffffffffffffffffffffffffffffff1673ffffffffffffffffffffffffffffffffffffffff16815260200190815260200160002060009054906101000a900460ff16156117a7576040517f6f5aa9e400000000000000000000000000000000000000000000000000000000815260040160405180910390fd5b60016010600082825401925050819055506001601260003373ffffffffffffffffffffffffffffffffffffffff1673ffffffffffffffffffffffffffffffffffffffff16815260200190815260200160002060006101000a81548160ff02191690831515021790555061181b336001612579565b60016009819055505050565b600b5481565b611835611ea9565b73ffffffffffffffffffffffffffffffffffffffff168273ffffffffffffffffffffffffffffffffffffffff16141561189a576040517fb06307db00000000000000000000000000000000000000000000000000000000815260040160405180910390fd5b80600760006118a7611ea9565b73ffffffffffffffffffffffffffffffffffffffff1673ffffffffffffffffffffffffffffffffffffffff16815260200190815260200160002060008473ffffffffffffffffffffffffffffffffffffffff1673ffffffffffffffffffffffffffffffffffffffff16815260200190815260200160002060006101000a81548160ff0219169083151502179055508173ffffffffffffffffffffffffffffffffffffffff16611954611ea9565b73ffffffffffffffffffffffffffffffffffffffff167f17307eab39ab6107e8899845ad3d59bd9653f200f220920489ca2b5937696c31836040516119999190612bd2565b60405180910390a35050565b6119b0848484610bea565b60008373ffffffffffffffffffffffffffffffffffffffff163b14611a12576119db84848484612597565b611a11576040517fd1a57ed600000000000000000000000000000000000000000000000000000000815260040160405180910390fd5b5b50505050565b6060611a2382611e4a565b611a59576040517fa14c4b5000000000000000000000000000000000000000000000000000000000815260040160405180910390fd5b600c60009054906101000a900460ff16611aff57600d8054611a7a906133f3565b80601f0160208091040260200160405190810160405280929190818152602001828054611aa6906133f3565b8015611af35780601f10611ac857610100808354040283529160200191611af3565b820191906000526020600020905b815481529060010190602001808311611ad657829003601f168201915b50505050509050611bdc565b6000600e8054611b0e906133f3565b80601f0160208091040260200160405190810160405280929190818152602001828054611b3a906133f3565b8015611b875780601f10611b5c57610100808354040283529160200191611b87565b820191906000526020600020905b815481529060010190602001808311611b6a57829003601f168201915b50505050509050600081511415611bad5760405180602001604052806000815250611bd8565b80611bb7846126f7565b604051602001611bc89291906134cd565b6040516020818303038152906040525b9150505b919050565b611be9612052565b80600c60006101000a81548160ff02191690831515021790555050565b6000600760008473ffffffffffffffffffffffffffffffffffffffff1673ffffffffffffffffffffffffffffffffffffffff16815260200190815260200160002060008373ffffffffffffffffffffffffffffffffffffffff1673ffffffffffffffffffffffffffffffffffffffff16815260200190815260200160002060009054906101000a900460ff16905092915050565b60026009541415611ce0576040517f08c379a0000000000000000000000000000000000000000000000000000000008152600401611cd790613471565b60405180910390fd5b6002600981905550611cf0612052565b60115481601054611d019190613520565b1115611d39576040517f47747fa900000000000000000000000000000000000000000000000000000000815260040160405180910390fd5b80601060008282540192505081905550611d533382612579565b600160098190555050565b611d66612052565b600073ffffffffffffffffffffffffffffffffffffffff168173ffffffffffffffffffffffffffffffffffffffff161415611dd6576040517f08c379a0000000000000000000000000000000000000000000000000000000008152600401611dcd906135e8565b60405180910390fd5b611ddf81612436565b50565b6000601260008373ffffffffffffffffffffffffffffffffffffffff1673ffffffffffffffffffffffffffffffffffffffff16815260200190815260200160002060009054906101000a900460ff169050919050565b611e40612052565b8060118190555050565b600081611e55611eb1565b11158015611e64575060005482105b8015611ea2575060007c0100000000000000000000000000000000000000000000000000000000600460008581526020019081526020016000205416145b9050919050565b600033905090565b60006001905090565b60008082905080611ec9611eb1565b11611f5157600054811015611f505760006004600083815260200190815260200160002054905060007c010000000000000000000000000000000000000000000000000000000082161415611f4e575b6000811415611f44576004600083600190039350838152602001908152602001600020549050611f19565b8092505050611f83565b505b5b6040517fdf2d9b4200000000000000000000000000000000000000000000000000000000815260040160405180910390fd5b919050565b60008060006006600085815260200190815260200160002090508092508254915050915091565b600073ffffffffffffffffffffffffffffffffffffffff8316925073ffffffffffffffffffffffffffffffffffffffff821691508382148383141790509392505050565b50505050565b60008060e883901c905060e8612010868684612751565b62ffffff16901b9150509392505050565b600073ffffffffffffffffffffffffffffffffffffffff83169250814260a01b178317905092915050565b50505050565b61205a61275a565b73ffffffffffffffffffffffffffffffffffffffff166120786114b4565b73ffffffffffffffffffffffffffffffffffffffff16146120ce576040517f08c379a00000000000000000000000000000000000000000000000000000000081526004016120c590613654565b60405180910390fd5b565b60026009541415612116576040517f08c379a000000000000000000000000000000000000000000000000000000000815260040161210d90613471565b60405180910390fd5b6002600981905550600b548161212c9190613674565b3414612164576040517fc534702400000000000000000000000000000000000000000000000000000000815260040160405180910390fd5b6000601460003373ffffffffffffffffffffffffffffffffffffffff1673ffffffffffffffffffffffffffffffffffffffff168152602001908152602001600020549050600582826121b69190613520565b11156121ee576040517f06f5d75400000000000000000000000000000000000000000000000000000000815260040160405180910390fd5b601154826010546121ff9190613520565b1115612237576040517f47747fa900000000000000000000000000000000000000000000000000000000815260040160405180910390fd5b8160106000828254019250508190555081816122539190613520565b601460003373ffffffffffffffffffffffffffffffffffffffff1673ffffffffffffffffffffffffffffffffffffffff168152602001908152602001600020819055506122a03383612579565b50600160098190555050565b600260095414156122f2576040517f08c379a00000000000000000000000000000000000000000000000000000000081526004016122e990613471565b60405180910390fd5b600260098190555060003414612334576040517fc534702400000000000000000000000000000000000000000000000000000000815260040160405180910390fd5b601360003373ffffffffffffffffffffffffffffffffffffffff1673ffffffffffffffffffffffffffffffffffffffff16815260200190815260200160002060009054906101000a900460ff16156123b8576040517f6f5aa9e400000000000000000000000000000000000000000000000000000000815260040160405180910390fd5b60016010600082825401925050819055506001601360003373ffffffffffffffffffffffffffffffffffffffff1673ffffffffffffffffffffffffffffffffffffffff16815260200190815260200160002060006101000a81548160ff02191690831515021790555061242c336001612579565b6001600981905550565b6000600860009054906101000a900473ffffffffffffffffffffffffffffffffffffffff16905081600860006101000a81548173ffffffffffffffffffffffffffffffffffffffff021916908373ffffffffffffffffffffffffffffffffffffffff1602179055508173ffffffffffffffffffffffffffffffffffffffff168173ffffffffffffffffffffffffffffffffffffffff167f8be0079c531659141344cd1fd0a4f28419497f9722a3daafe3b4186f6b6457e060405160405180910390a35050565b6000612570848480806020026020016040519081016040528093929190818152602001838360200280828437600081840152601f19601f8201169050808301925050505050505083336040516020016125559190613716565b60405160208183030381529060405280519060200120612762565b90509392505050565b612593828260405180602001604052806000815250612779565b5050565b60008373ffffffffffffffffffffffffffffffffffffffff1663150b7a026125bd611ea9565b8786866040518563ffffffff1660e01b81526004016125df9493929190613786565b602060405180830381600087803b1580156125f957600080fd5b505af192505050801561262a57506040513d601f19601f8201168201806040525081019061262791906137e7565b60015b6126a4573d806000811461265a576040519150601f19603f3d011682016040523d82523d6000602084013e61265f565b606091505b5060008151141561269c576040517fd1a57ed600000000000000000000000000000000000000000000000000000000815260040160405180910390fd5b805181602001fd5b63150b7a0260e01b7bffffffffffffffffffffffffffffffffffffffffffffffffffffffff1916817bffffffffffffffffffffffffffffffffffffffffffffffffffffffff191614915050949350505050565b60606080604051019050806040528082600183039250600a81066030018353600a810490505b801561273d57600183039250600a81066030018353600a8104905061271d565b508181036020830392508083525050919050565b60009392505050565b600033905090565b60008261276f8584612816565b1490509392505050565b612783838361286c565b60008373ffffffffffffffffffffffffffffffffffffffff163b1461281157600080549050600083820390505b6127c36000868380600101945086612597565b6127f9576040517fd1a57ed600000000000000000000000000000000000000000000000000000000815260040160405180910390fd5b8181106127b057816000541461280e57600080fd5b50505b505050565b60008082905060005b84518110156128615761284c8286838151811061283f5761283e613814565b5b6020026020010151612a29565b9150808061285990613843565b91505061281f565b508091505092915050565b60008054905060008214156128ad576040517fb562e8dd00000000000000000000000000000000000000000000000000000000815260040160405180910390fd5b6128ba6000848385611ff3565b600160406001901b178202600560008573ffffffffffffffffffffffffffffffffffffffff1673ffffffffffffffffffffffffffffffffffffffff16815260200190815260200160002060008282540192505081905550612931836129226000866000611ff9565b61292b85612a54565b17612021565b6004600083815260200190815260200160002081905550600080838301905073ffffffffffffffffffffffffffffffffffffffff85169150828260007fddf252ad1be2c89b69c2b068fc378daa952ba7f163c4a11628f55a4df523b3ef600080a4600183015b8181146129d257808360007fddf252ad1be2c89b69c2b068fc378daa952ba7f163c4a11628f55a4df523b3ef600080a4600181019050612997565b506000821415612a0e576040517f2e07630000000000000000000000000000000000000000000000000000000000815260040160405180910390fd5b806000819055505050612a24600084838561204c565b505050565b6000818310612a4157612a3c8284612a64565b612a4c565b612a4b8383612a64565b5b905092915050565b60006001821460e11b9050919050565b600082600052816020526040600020905092915050565b828054612a87906133f3565b90600052602060002090601f016020900481019282612aa95760008555612af0565b82601f10612ac257805160ff1916838001178555612af0565b82800160010185558215612af0579182015b82811115612aef578251825591602001919060010190612ad4565b5b509050612afd9190612b01565b5090565b5b80821115612b1a576000816000905550600101612b02565b5090565b6000604051905090565b600080fd5b600080fd5b60007fffffffff0000000000000000000000000000000000000000000000000000000082169050919050565b612b6781612b32565b8114612b7257600080fd5b50565b600081359050612b8481612b5e565b92915050565b600060208284031215612ba057612b9f612b28565b5b6000612bae84828501612b75565b91505092915050565b60008115159050919050565b612bcc81612bb7565b82525050565b6000602082019050612be76000830184612bc3565b92915050565b600081519050919050565b600082825260208201905092915050565b60005b83811015612c27578082015181840152602081019050612c0c565b83811115612c36576000848401525b50505050565b6000601f19601f8301169050919050565b6000612c5882612bed565b612c628185612bf8565b9350612c72818560208601612c09565b612c7b81612c3c565b840191505092915050565b60006020820190508181036000830152612ca08184612c4d565b905092915050565b6000819050919050565b612cbb81612ca8565b8114612cc657600080fd5b50565b600081359050612cd881612cb2565b92915050565b600060208284031215612cf457612cf3612b28565b5b6000612d0284828501612cc9565b91505092915050565b600073ffffffffffffffffffffffffffffffffffffffff82169050919050565b6000612d3682612d0b565b9050919050565b612d4681612d2b565b82525050565b6000602082019050612d616000830184612d3d565b92915050565b612d7081612d2b565b8114612d7b57600080fd5b50565b600081359050612d8d81612d67565b92915050565b60008060408385031215612daa57612da9612b28565b5b6000612db885828601612d7e565b9250506020612dc985828601612cc9565b9150509250929050565b612ddc81612ca8565b82525050565b6000602082019050612df76000830184612dd3565b92915050565b7f4e487b7100000000000000000000000000000000000000000000000000000000600052602160045260246000fd5b60038110612e3d57612e3c612dfd565b5b50565b6000819050612e4e82612e2c565b919050565b6000612e5e82612e40565b9050919050565b612e6e81612e53565b82525050565b6000602082019050612e896000830184612e65565b92915050565b600080600060608486031215612ea857612ea7612b28565b5b6000612eb686828701612d7e565b9350506020612ec786828701612d7e565b9250506040612ed886828701612cc9565b9150509250925092565b600080fd5b600080fd5b7f4e487b7100000000000000000000000000000000000000000000000000000000600052604160045260246000fd5b612f2482612c3c565b810181811067ffffffffffffffff82111715612f4357612f42612eec565b5b80604052505050565b6000612f56612b1e565b9050612f628282612f1b565b919050565b600067ffffffffffffffff821115612f8257612f81612eec565b5b612f8b82612c3c565b9050602081019050919050565b82818337600083830152505050565b6000612fba612fb584612f67565b612f4c565b905082815260208101848484011115612fd657612fd5612ee7565b5b612fe1848285612f98565b509392505050565b600082601f830112612ffe57612ffd612ee2565b5b813561300e848260208601612fa7565b91505092915050565b60006020828403121561302d5761302c612b28565b5b600082013567ffffffffffffffff81111561304b5761304a612b2d565b5b61305784828501612fe9565b91505092915050565b60006020828403121561307657613075612b28565b5b600061308484828501612d7e565b91505092915050565b6000819050919050565b6130a08161308d565b81146130ab57600080fd5b50565b6000813590506130bd81613097565b92915050565b6000602082840312156130d9576130d8612b28565b5b60006130e7848285016130ae565b91505092915050565b6130f98161308d565b82525050565b600060208201905061311460008301846130f0565b92915050565b600080fd5b600080fd5b60008083601f84011261313a57613139612ee2565b5b8235905067ffffffffffffffff8111156131575761315661311a565b5b6020830191508360208202830111156131735761317261311f565b5b9250929050565b6000806020838503121561319157613190612b28565b5b600083013567ffffffffffffffff8111156131af576131ae612b2d565b5b6131bb85828601613124565b92509250509250929050565b6131d081612bb7565b81146131db57600080fd5b50565b6000813590506131ed816131c7565b92915050565b6000806040838503121561320a57613209612b28565b5b600061321885828601612d7e565b9250506020613229858286016131de565b9150509250929050565b600067ffffffffffffffff82111561324e5761324d612eec565b5b61325782612c3c565b9050602081019050919050565b600061327761327284613233565b612f4c565b90508281526020810184848401111561329357613292612ee7565b5b61329e848285612f98565b509392505050565b600082601f8301126132bb576132ba612ee2565b5b81356132cb848260208601613264565b91505092915050565b600080600080608085870312156132ee576132ed612b28565b5b60006132fc87828801612d7e565b945050602061330d87828801612d7e565b935050604061331e87828801612cc9565b925050606085013567ffffffffffffffff81111561333f5761333e612b2d565b5b61334b878288016132a6565b91505092959194509250565b60006020828403121561336d5761336c612b28565b5b600061337b848285016131de565b91505092915050565b6000806040838503121561339b5761339a612b28565b5b60006133a985828601612d7e565b92505060206133ba85828601612d7e565b9150509250929050565b7f4e487b7100000000000000000000000000000000000000000000000000000000600052602260045260246000fd5b6000600282049050600182168061340b57607f821691505b6020821081141561341f5761341e6133c4565b5b50919050565b7f5265656e7472616e637947756172643a207265656e7472616e742063616c6c00600082015250565b600061345b601f83612bf8565b915061346682613425565b602082019050919050565b6000602082019050818103600083015261348a8161344e565b9050919050565b600081905092915050565b60006134a782612bed565b6134b18185613491565b93506134c1818560208601612c09565b80840191505092915050565b60006134d9828561349c565b91506134e5828461349c565b91508190509392505050565b7f4e487b7100000000000000000000000000000000000000000000000000000000600052601160045260246000fd5b600061352b82612ca8565b915061353683612ca8565b9250827fffffffffffffffffffffffffffffffffffffffffffffffffffffffffffffffff0382111561356b5761356a6134f1565b5b828201905092915050565b7f4f776e61626c653a206e6577206f776e657220697320746865207a65726f206160008201527f6464726573730000000000000000000000000000000000000000000000000000602082015250565b60006135d2602683612bf8565b91506135dd82613576565b604082019050919050565b60006020820190508181036000830152613601816135c5565b9050919050565b7f4f776e61626c653a2063616c6c6572206973206e6f7420746865206f776e6572600082015250565b600061363e602083612bf8565b915061364982613608565b602082019050919050565b6000602082019050818103600083015261366d81613631565b9050919050565b600061367f82612ca8565b915061368a83612ca8565b9250817fffffffffffffffffffffffffffffffffffffffffffffffffffffffffffffffff04831182151516156136c3576136c26134f1565b5b828202905092915050565b60008160601b9050919050565b60006136e6826136ce565b9050919050565b60006136f8826136db565b9050919050565b61371061370b82612d2b565b6136ed565b82525050565b600061372282846136ff565b60148201915081905092915050565b600081519050919050565b600082825260208201905092915050565b600061375882613731565b613762818561373c565b9350613772818560208601612c09565b61377b81612c3c565b840191505092915050565b600060808201905061379b6000830187612d3d565b6137a86020830186612d3d565b6137b56040830185612dd3565b81810360608301526137c7818461374d565b905095945050505050565b6000815190506137e181612b5e565b92915050565b6000602082840312156137fd576137fc612b28565b5b600061380b848285016137d2565b91505092915050565b7f4e487b7100000000000000000000000000000000000000000000000000000000600052603260045260246000fd5b600061384e82612ca8565b91507fffffffffffffffffffffffffffffffffffffffffffffffffffffffffffffffff821415613881576138806134f1565b5b60018201905091905056fea2646970667358221220a677a2c89c56a2942cbe6391e2ff71b01ae8af1511796c6448ba58426c3280fb64736f6c63430008090033",
  "linkReferences": {},
  "deployedLinkReferences": {}
}