{
  "_format": "hh-sol-artifact-1",
  "contractName": "NotMafia",
  "sourceName": "contracts/NotMafia.sol",
  "abi": [
    {
      "inputs": [],
      "stateMutability": "nonpayable",
      "type": "constructor"
    },
    {
      "inputs": [],
      "name": "AlreadyMintedMaxInPhase",
      "type": "error"
    },
    {
      "inputs": [],
      "name": "AmountNotAvailable",
      "type": "error"
    },
    {
      "inputs": [],
      "name": "ApprovalCallerNotOwnerNorApproved",
      "type": "error"
    },
    {
      "inputs": [],
      "name": "ApprovalQueryForNonexistentToken",
      "type": "error"
    },
    {
      "inputs": [],
      "name": "ApproveToCaller",
      "type": "error"
    },
    {
      "inputs": [],
      "name": "BalanceQueryForZeroAddress",
      "type": "error"
    },
    {
      "inputs": [],
      "name": "MintERC2309QuantityExceedsLimit",
      "type": "error"
    },
    {
      "inputs": [],
      "name": "MintToZeroAddress",
      "type": "error"
    },
    {
      "inputs": [],
      "name": "MintZeroQuantity",
      "type": "error"
    },
    {
      "inputs": [],
      "name": "NotWhiteListed",
      "type": "error"
    },
    {
      "inputs": [],
      "name": "OnlyUserMint",
      "type": "error"
    },
    {
      "inputs": [],
      "name": "OwnerQueryForNonexistentToken",
      "type": "error"
    },
    {
      "inputs": [],
      "name": "OwnershipNotInitializedForExtraData",
      "type": "error"
    },
    {
      "inputs": [],
      "name": "TransferCallerNotOwnerNorApproved",
      "type": "error"
    },
    {
      "inputs": [],
      "name": "TransferFromIncorrectOwner",
      "type": "error"
    },
    {
      "inputs": [],
      "name": "TransferToNonERC721ReceiverImplementer",
      "type": "error"
    },
    {
      "inputs": [],
      "name": "TransferToZeroAddress",
      "type": "error"
    },
    {
      "inputs": [],
      "name": "URIQueryForNonexistentToken",
      "type": "error"
    },
    {
      "inputs": [],
      "name": "ValueNotEqualToPrice",
      "type": "error"
    },
    {
      "inputs": [],
      "name": "WouldExceedMaxPerWallet",
      "type": "error"
    },
    {
      "inputs": [],
      "name": "WrongMintFunction",
      "type": "error"
    },
    {
      "anonymous": false,
      "inputs": [
        {
          "indexed": true,
          "internalType": "address",
          "name": "owner",
          "type": "address"
        },
        {
          "indexed": true,
          "internalType": "address",
          "name": "approved",
          "type": "address"
        },
        {
          "indexed": true,
          "internalType": "uint256",
          "name": "tokenId",
          "type": "uint256"
        }
      ],
      "name": "Approval",
      "type": "event"
    },
    {
      "anonymous": false,
      "inputs": [
        {
          "indexed": true,
          "internalType": "address",
          "name": "owner",
          "type": "address"
        },
        {
          "indexed": true,
          "internalType": "address",
          "name": "operator",
          "type": "address"
        },
        {
          "indexed": false,
          "internalType": "bool",
          "name": "approved",
          "type": "bool"
        }
      ],
      "name": "ApprovalForAll",
      "type": "event"
    },
    {
      "anonymous": false,
      "inputs": [
        {
          "indexed": false,
          "internalType": "uint256",
          "name": "newStatus",
          "type": "uint256"
        }
      ],
      "name": "ChangedStatus",
      "type": "event"
    },
    {
      "anonymous": false,
      "inputs": [
        {
          "indexed": true,
          "internalType": "uint256",
          "name": "fromTokenId",
          "type": "uint256"
        },
        {
          "indexed": false,
          "internalType": "uint256",
          "name": "toTokenId",
          "type": "uint256"
        },
        {
          "indexed": true,
          "internalType": "address",
          "name": "from",
          "type": "address"
        },
        {
          "indexed": true,
          "internalType": "address",
          "name": "to",
          "type": "address"
        }
      ],
      "name": "ConsecutiveTransfer",
      "type": "event"
    },
    {
      "anonymous": false,
      "inputs": [
        {
          "indexed": true,
          "internalType": "address",
          "name": "previousOwner",
          "type": "address"
        },
        {
          "indexed": true,
          "internalType": "address",
          "name": "newOwner",
          "type": "address"
        }
      ],
      "name": "OwnershipTransferred",
      "type": "event"
    },
    {
      "anonymous": false,
      "inputs": [
        {
          "indexed": true,
          "internalType": "address",
          "name": "from",
          "type": "address"
        },
        {
          "indexed": true,
          "internalType": "address",
          "name": "to",
          "type": "address"
        },
        {
          "indexed": true,
          "internalType": "uint256",
          "name": "tokenId",
          "type": "uint256"
        }
      ],
      "name": "Transfer",
      "type": "event"
    },
    {
      "inputs": [
        {
          "internalType": "address",
          "name": "to",
          "type": "address"
        },
        {
          "internalType": "uint256",
          "name": "tokenId",
          "type": "uint256"
        }
      ],
      "name": "approve",
      "outputs": [],
      "stateMutability": "nonpayable",
      "type": "function"
    },
    {
      "inputs": [
        {
          "internalType": "address",
          "name": "owner",
          "type": "address"
        }
      ],
      "name": "balanceOf",
      "outputs": [
        {
          "internalType": "uint256",
          "name": "",
          "type": "uint256"
        }
      ],
      "stateMutability": "view",
      "type": "function"
    },
    {
      "inputs": [],
      "name": "baseURI",
      "outputs": [
        {
          "internalType": "string",
          "name": "",
          "type": "string"
        }
      ],
      "stateMutability": "view",
      "type": "function"
    },
    {
      "inputs": [],
      "name": "freeMint",
      "outputs": [],
      "stateMutability": "nonpayable",
      "type": "function"
    },
    {
      "inputs": [
        {
          "internalType": "uint256",
          "name": "tokenId",
          "type": "uint256"
        }
      ],
      "name": "getApproved",
      "outputs": [
        {
          "internalType": "address",
          "name": "",
          "type": "address"
        }
      ],
      "stateMutability": "view",
      "type": "function"
    },
    {
      "inputs": [],
      "name": "getCurrentTokenId",
      "outputs": [
        {
          "internalType": "uint256",
          "name": "",
          "type": "uint256"
        }
      ],
      "stateMutability": "view",
      "type": "function"
    },
    {
      "inputs": [
        {
          "internalType": "address",
          "name": "__address",
          "type": "address"
        }
      ],
      "name": "getHasMintedFree",
      "outputs": [
        {
          "internalType": "bool",
          "name": "",
          "type": "bool"
        }
      ],
      "stateMutability": "view",
      "type": "function"
    },
    {
      "inputs": [
        {
          "internalType": "address",
          "name": "__address",
          "type": "address"
        }
      ],
      "name": "getHasMintedSale",
      "outputs": [
        {
          "internalType": "uint256",
          "name": "",
          "type": "uint256"
        }
      ],
      "stateMutability": "view",
      "type": "function"
    },
    {
      "inputs": [
        {
          "internalType": "address",
          "name": "__address",
          "type": "address"
        }
      ],
      "name": "getHasMintedWhiteList",
      "outputs": [
        {
          "internalType": "bool",
          "name": "",
          "type": "bool"
        }
      ],
      "stateMutability": "view",
      "type": "function"
    },
    {
      "inputs": [
        {
          "internalType": "address",
          "name": "owner",
          "type": "address"
        },
        {
          "internalType": "address",
          "name": "operator",
          "type": "address"
        }
      ],
      "name": "isApprovedForAll",
      "outputs": [
        {
          "internalType": "bool",
          "name": "",
          "type": "bool"
        }
      ],
      "stateMutability": "view",
      "type": "function"
    },
    {
      "inputs": [],
      "name": "name",
      "outputs": [
        {
          "internalType": "string",
          "name": "",
          "type": "string"
        }
      ],
      "stateMutability": "view",
      "type": "function"
    },
    {
      "inputs": [],
      "name": "owner",
      "outputs": [
        {
          "internalType": "address",
          "name": "",
          "type": "address"
        }
      ],
      "stateMutability": "view",
      "type": "function"
    },
    {
      "inputs": [
        {
          "internalType": "uint256",
          "name": "__amount",
          "type": "uint256"
        }
      ],
      "name": "ownerMint",
      "outputs": [],
      "stateMutability": "nonpayable",
      "type": "function"
    },
    {
      "inputs": [
        {
          "internalType": "uint256",
          "name": "tokenId",
          "type": "uint256"
        }
      ],
      "name": "ownerOf",
      "outputs": [
        {
          "internalType": "address",
          "name": "",
          "type": "address"
        }
      ],
      "stateMutability": "view",
      "type": "function"
    },
    {
      "inputs": [
        {
          "internalType": "uint256",
          "name": "__amount",
          "type": "uint256"
        }
      ],
      "name": "paidMint",
      "outputs": [],
      "stateMutability": "payable",
      "type": "function"
    },
    {
      "inputs": [],
      "name": "preRevealURI",
      "outputs": [
        {
          "internalType": "string",
          "name": "",
          "type": "string"
        }
      ],
      "stateMutability": "view",
      "type": "function"
    },
    {
      "inputs": [],
      "name": "price",
      "outputs": [
        {
          "internalType": "uint256",
          "name": "",
          "type": "uint256"
        }
      ],
      "stateMutability": "view",
      "type": "function"
    },
    {
      "inputs": [],
      "name": "provenance",
      "outputs": [
        {
          "internalType": "string",
          "name": "",
          "type": "string"
        }
      ],
      "stateMutability": "view",
      "type": "function"
    },
    {
      "inputs": [],
      "name": "renounceOwnership",
      "outputs": [],
      "stateMutability": "nonpayable",
      "type": "function"
    },
    {
      "inputs": [],
      "name": "revealed",
      "outputs": [
        {
          "internalType": "bool",
          "name": "",
          "type": "bool"
        }
      ],
      "stateMutability": "view",
      "type": "function"
    },
    {
      "inputs": [
        {
          "internalType": "address",
          "name": "from",
          "type": "address"
        },
        {
          "internalType": "address",
          "name": "to",
          "type": "address"
        },
        {
          "internalType": "uint256",
          "name": "tokenId",
          "type": "uint256"
        }
      ],
      "name": "safeTransferFrom",
      "outputs": [],
      "stateMutability": "nonpayable",
      "type": "function"
    },
    {
      "inputs": [
        {
          "internalType": "address",
          "name": "from",
          "type": "address"
        },
        {
          "internalType": "address",
          "name": "to",
          "type": "address"
        },
        {
          "internalType": "uint256",
          "name": "tokenId",
          "type": "uint256"
        },
        {
          "internalType": "bytes",
          "name": "_data",
          "type": "bytes"
        }
      ],
      "name": "safeTransferFrom",
      "outputs": [],
      "stateMutability": "nonpayable",
      "type": "function"
    },
    {
      "inputs": [
        {
          "internalType": "address",
          "name": "operator",
          "type": "address"
        },
        {
          "internalType": "bool",
          "name": "approved",
          "type": "bool"
        }
      ],
      "name": "setApprovalForAll",
      "outputs": [],
      "stateMutability": "nonpayable",
      "type": "function"
    },
    {
      "inputs": [
        {
          "internalType": "string",
          "name": "__newURI",
          "type": "string"
        }
      ],
      "name": "setBaseURI",
      "outputs": [],
      "stateMutability": "nonpayable",
      "type": "function"
    },
    {
      "inputs": [
        {
          "internalType": "string",
          "name": "__newURI",
          "type": "string"
        }
      ],
      "name": "setPreRevealURI",
      "outputs": [],
      "stateMutability": "nonpayable",
      "type": "function"
    },
    {
      "inputs": [
        {
          "internalType": "uint256",
          "name": "__price",
          "type": "uint256"
        }
      ],
      "name": "setPrice",
      "outputs": [],
      "stateMutability": "nonpayable",
      "type": "function"
    },
    {
      "inputs": [
        {
          "internalType": "string",
          "name": "__hash",
          "type": "string"
        }
      ],
      "name": "setProvenanceHash",
      "outputs": [],
      "stateMutability": "nonpayable",
      "type": "function"
    },
    {
      "inputs": [
        {
          "internalType": "bool",
          "name": "__revealed",
          "type": "bool"
        }
      ],
      "name": "setRevealed",
      "outputs": [],
      "stateMutability": "nonpayable",
      "type": "function"
    },
    {
      "inputs": [
        {
          "internalType": "uint256",
          "name": "__status",
          "type": "uint256"
        }
      ],
      "name": "setStatus",
      "outputs": [],
      "stateMutability": "nonpayable",
      "type": "function"
    },
    {
      "inputs": [
        {
          "internalType": "bytes32",
          "name": "__root",
          "type": "bytes32"
        }
      ],
      "name": "setWhiteListRoot",
      "outputs": [],
      "stateMutability": "nonpayable",
      "type": "function"
    },
    {
      "inputs": [],
      "name": "status",
      "outputs": [
        {
          "internalType": "enum NotMafia.Status",
          "name": "",
          "type": "uint8"
        }
      ],
      "stateMutability": "view",
      "type": "function"
    },
    {
      "inputs": [
        {
          "internalType": "bytes4",
          "name": "interfaceId",
          "type": "bytes4"
        }
      ],
      "name": "supportsInterface",
      "outputs": [
        {
          "internalType": "bool",
          "name": "",
          "type": "bool"
        }
      ],
      "stateMutability": "view",
      "type": "function"
    },
    {
      "inputs": [],
      "name": "symbol",
      "outputs": [
        {
          "internalType": "string",
          "name": "",
          "type": "string"
        }
      ],
      "stateMutability": "view",
      "type": "function"
    },
    {
      "inputs": [
        {
          "internalType": "uint256",
          "name": "tokenId",
          "type": "uint256"
        }
      ],
      "name": "tokenURI",
      "outputs": [
        {
          "internalType": "string",
          "name": "",
          "type": "string"
        }
      ],
      "stateMutability": "view",
      "type": "function"
    },
    {
      "inputs": [],
      "name": "totalSupply",
      "outputs": [
        {
          "internalType": "uint256",
          "name": "",
          "type": "uint256"
        }
      ],
      "stateMutability": "view",
      "type": "function"
    },
    {
      "inputs": [
        {
          "internalType": "address",
          "name": "from",
          "type": "address"
        },
        {
          "internalType": "address",
          "name": "to",
          "type": "address"
        },
        {
          "internalType": "uint256",
          "name": "tokenId",
          "type": "uint256"
        }
      ],
      "name": "transferFrom",
      "outputs": [],
      "stateMutability": "nonpayable",
      "type": "function"
    },
    {
      "inputs": [
        {
          "internalType": "address",
          "name": "newOwner",
          "type": "address"
        }
      ],
      "name": "transferOwnership",
      "outputs": [],
      "stateMutability": "nonpayable",
      "type": "function"
    },
    {
      "inputs": [
        {
          "internalType": "bytes32[]",
          "name": "__proof",
          "type": "bytes32[]"
        }
      ],
      "name": "whiteListMint",
      "outputs": [],
      "stateMutability": "nonpayable",
      "type": "function"
    },
    {
      "inputs": [],
      "name": "whiteListRoot",
      "outputs": [
        {
          "internalType": "bytes32",
          "name": "",
          "type": "bytes32"
        }
      ],
      "stateMutability": "view",
      "type": "function"
    },
    {
      "inputs": [],
      "name": "withdraw",
      "outputs": [],
      "stateMutability": "nonpayable",
      "type": "function"
    }
  ],
  "bytecode": "0x60806040523480156200001157600080fd5b506040518060400160405280600981526020017f4e6f74204d6166696100000000000000000000000000000000000000000000008152506040518060400160405280600281526020017f4e4d00000000000000000000000000000000000000000000000000000000000081525081600290805190602001906200009692919062000255565b508060039080519060200190620000af92919062000255565b50620000c06200018260201b60201c565b6000819055505050620000e8620000dc6200018760201b60201c565b6200018f60201b60201c565b60016009819055506000600a60006101000a81548160ff0219169083600381111562000119576200011862000305565b5b0217905550662e9c920b740000600b8190555060405180602001604052806000815250600f90805190602001906200015392919062000255565b5060405180602001604052806000815250600c90805190602001906200017b92919062000255565b5062000399565b600090565b600033905090565b6000600860009054906101000a900473ffffffffffffffffffffffffffffffffffffffff16905081600860006101000a81548173ffffffffffffffffffffffffffffffffffffffff021916908373ffffffffffffffffffffffffffffffffffffffff1602179055508173ffffffffffffffffffffffffffffffffffffffff168173ffffffffffffffffffffffffffffffffffffffff167f8be0079c531659141344cd1fd0a4f28419497f9722a3daafe3b4186f6b6457e060405160405180910390a35050565b828054620002639062000363565b90600052602060002090601f016020900481019282620002875760008555620002d3565b82601f10620002a257805160ff1916838001178555620002d3565b82800160010185558215620002d3579182015b82811115620002d2578251825591602001919060010190620002b5565b5b509050620002e29190620002e6565b5090565b5b8082111562000301576000816000905550600101620002e7565b5090565b7f4e487b7100000000000000000000000000000000000000000000000000000000600052602160045260246000fd5b7f4e487b7100000000000000000000000000000000000000000000000000000000600052602260045260246000fd5b600060028204905060018216806200037c57607f821691505b6020821081141562000393576200039262000334565b5b50919050565b61392f80620003a96000396000f3fe60806040526004361061023b5760003560e01c806365cde7331161012e57806397254e55116100ab578063e0a808531161006f578063e0a808531461083c578063e985e9c514610865578063f19e75d4146108a2578063f2fde38b146108cb578063f524d6cd146108f45761023b565b806397254e5514610759578063a035b1fe14610782578063a22cb465146107ad578063b88d4fde146107d6578063c87b56dd146107ff5761023b565b8063715018a6116100f2578063715018a61461069857806379b6ed36146106af5780638da5cb5b146106da57806391b7f5ed1461070557806395d89b411461072e5761023b565b806365cde733146105c057806365f4fd12146105dc57806369ba1a75146106075780636c0360eb1461063057806370a082311461065b5761023b565b8063374bc20b116101bc578063518302271161018057806351830227146104ed57806355f804b31461051857806356189236146105415780635b70ea9f1461056c5780636352211e146105835761023b565b8063374bc20b1461040a5780633ccfd60b1461044757806342842e0e1461045e57806345149bb3146104875780634d721690146104b05761023b565b80631096952311610203578063109695231461033957806318160ddd14610362578063200d2ed21461038d57806323b872dd146103b85780632a85db55146103e15761023b565b806301ffc9a71461024057806306fdde031461027d578063081812fc146102a8578063095ea7b3146102e55780630f7309e81461030e575b600080fd5b34801561024c57600080fd5b5061026760048036038101906102629190612bf7565b610931565b6040516102749190612c3f565b60405180910390f35b34801561028957600080fd5b506102926109c3565b60405161029f9190612cf3565b60405180910390f35b3480156102b457600080fd5b506102cf60048036038101906102ca9190612d4b565b610a55565b6040516102dc9190612db9565b60405180910390f35b3480156102f157600080fd5b5061030c60048036038101906103079190612e00565b610ad4565b005b34801561031a57600080fd5b50610323610c18565b6040516103309190612cf3565b60405180910390f35b34801561034557600080fd5b50610360600480360381019061035b9190612f75565b610ca6565b005b34801561036e57600080fd5b50610377610cc8565b6040516103849190612fcd565b60405180910390f35b34801561039957600080fd5b506103a2610cdf565b6040516103af919061305f565b60405180910390f35b3480156103c457600080fd5b506103df60048036038101906103da919061307a565b610cf2565b005b3480156103ed57600080fd5b5061040860048036038101906104039190612f75565b611017565b005b34801561041657600080fd5b50610431600480360381019061042c91906130cd565b611039565b60405161043e9190612c3f565b60405180910390f35b34801561045357600080fd5b5061045c61108f565b005b34801561046a57600080fd5b506104856004803603810190610480919061307a565b611136565b005b34801561049357600080fd5b506104ae60048036038101906104a99190613130565b611156565b005b3480156104bc57600080fd5b506104d760048036038101906104d291906130cd565b611168565b6040516104e49190612fcd565b60405180910390f35b3480156104f957600080fd5b506105026111b1565b60405161050f9190612c3f565b60405180910390f35b34801561052457600080fd5b5061053f600480360381019061053a9190612f75565b6111c4565b005b34801561054d57600080fd5b506105566111e6565b6040516105639190612fcd565b60405180910390f35b34801561057857600080fd5b506105816111f0565b005b34801561058f57600080fd5b506105aa60048036038101906105a59190612d4b565b61144f565b6040516105b79190612db9565b60405180910390f35b6105da60048036038101906105d59190612d4b565b611461565b005b3480156105e857600080fd5b506105f1611705565b6040516105fe919061316c565b60405180910390f35b34801561061357600080fd5b5061062e60048036038101906106299190612d4b565b61170b565b005b34801561063c57600080fd5b50610645611789565b6040516106529190612cf3565b60405180910390f35b34801561066757600080fd5b50610682600480360381019061067d91906130cd565b611817565b60405161068f9190612fcd565b60405180910390f35b3480156106a457600080fd5b506106ad6118d0565b005b3480156106bb57600080fd5b506106c46118e4565b6040516106d19190612cf3565b60405180910390f35b3480156106e657600080fd5b506106ef611972565b6040516106fc9190612db9565b60405180910390f35b34801561071157600080fd5b5061072c60048036038101906107279190612d4b565b61199c565b005b34801561073a57600080fd5b506107436119ae565b6040516107509190612cf3565b60405180910390f35b34801561076557600080fd5b50610780600480360381019061077b91906131e7565b611a40565b005b34801561078e57600080fd5b50610797611ca8565b6040516107a49190612fcd565b60405180910390f35b3480156107b957600080fd5b506107d460048036038101906107cf9190613260565b611cae565b005b3480156107e257600080fd5b506107fd60048036038101906107f89190613341565b611e26565b005b34801561080b57600080fd5b5061082660048036038101906108219190612d4b565b611e99565b6040516108339190612cf3565b60405180910390f35b34801561084857600080fd5b50610863600480360381019061085e91906133c4565b611f38565b005b34801561087157600080fd5b5061088c600480360381019061088791906133f1565b611f5d565b6040516108999190612c3f565b60405180910390f35b3480156108ae57600080fd5b506108c960048036038101906108c49190612d4b565b611ff1565b005b3480156108d757600080fd5b506108f260048036038101906108ed91906130cd565b6120b5565b005b34801561090057600080fd5b5061091b600480360381019061091691906130cd565b612139565b6040516109289190612c3f565b60405180910390f35b60006301ffc9a760e01b827bffffffffffffffffffffffffffffffffffffffffffffffffffffffff1916148061098c57506380ac58cd60e01b827bffffffffffffffffffffffffffffffffffffffffffffffffffffffff1916145b806109bc5750635b5e139f60e01b827bffffffffffffffffffffffffffffffffffffffffffffffffffffffff1916145b9050919050565b6060600280546109d290613460565b80601f01602080910402602001604051908101604052809291908181526020018280546109fe90613460565b8015610a4b5780601f10610a2057610100808354040283529160200191610a4b565b820191906000526020600020905b815481529060010190602001808311610a2e57829003601f168201915b5050505050905090565b6000610a608261218f565b610a96576040517fcf4700e400000000000000000000000000000000000000000000000000000000815260040160405180910390fd5b6006600083815260200190815260200160002060000160009054906101000a900473ffffffffffffffffffffffffffffffffffffffff169050919050565b6000610adf8261144f565b90508073ffffffffffffffffffffffffffffffffffffffff16610b006121ee565b73ffffffffffffffffffffffffffffffffffffffff1614610b6357610b2c81610b276121ee565b611f5d565b610b62576040517fcfb3b94200000000000000000000000000000000000000000000000000000000815260040160405180910390fd5b5b826006600084815260200190815260200160002060000160006101000a81548173ffffffffffffffffffffffffffffffffffffffff021916908373ffffffffffffffffffffffffffffffffffffffff160217905550818373ffffffffffffffffffffffffffffffffffffffff168273ffffffffffffffffffffffffffffffffffffffff167f8c5be1e5ebec7d5bd14f71427d1e84f3dd0314c0f7b2291e5b200ac8c7c3b92560405160405180910390a4505050565b600c8054610c2590613460565b80601f0160208091040260200160405190810160405280929190818152602001828054610c5190613460565b8015610c9e5780601f10610c7357610100808354040283529160200191610c9e565b820191906000526020600020905b815481529060010190602001808311610c8157829003601f168201915b505050505081565b610cae6121f6565b80600c9080519060200190610cc4929190612ae8565b5050565b6000610cd2612274565b6001546000540303905090565b600a60009054906101000a900460ff1681565b6000610cfd82612279565b90508373ffffffffffffffffffffffffffffffffffffffff168173ffffffffffffffffffffffffffffffffffffffff1614610d64576040517fa114810000000000000000000000000000000000000000000000000000000000815260040160405180910390fd5b600080610d7084612347565b91509150610d868187610d816121ee565b61236e565b610dd257610d9b86610d966121ee565b611f5d565b610dd1576040517f59c896be00000000000000000000000000000000000000000000000000000000815260040160405180910390fd5b5b600073ffffffffffffffffffffffffffffffffffffffff168573ffffffffffffffffffffffffffffffffffffffff161415610e39576040517fea553b3400000000000000000000000000000000000000000000000000000000815260040160405180910390fd5b610e4686868660016123b2565b8015610e5157600082555b600560008773ffffffffffffffffffffffffffffffffffffffff1673ffffffffffffffffffffffffffffffffffffffff168152602001908152602001600020600081546001900391905081905550600560008673ffffffffffffffffffffffffffffffffffffffff1673ffffffffffffffffffffffffffffffffffffffff1681526020019081526020016000206000815460010191905081905550610f1f85610efb8888876123b8565b7c0200000000000000000000000000000000000000000000000000000000176123e0565b600460008681526020019081526020016000208190555060007c020000000000000000000000000000000000000000000000000000000084161415610fa7576000600185019050600060046000838152602001908152602001600020541415610fa5576000548114610fa4578360046000838152602001908152602001600020819055505b5b505b838573ffffffffffffffffffffffffffffffffffffffff168773ffffffffffffffffffffffffffffffffffffffff167fddf252ad1be2c89b69c2b068fc378daa952ba7f163c4a11628f55a4df523b3ef60405160405180910390a461100f868686600161240b565b505050505050565b61101f6121f6565b80600e9080519060200190611035929190612ae8565b5050565b6000601360008373ffffffffffffffffffffffffffffffffffffffff1673ffffffffffffffffffffffffffffffffffffffff16815260200190815260200160002060009054906101000a900460ff169050919050565b600260095414156110d5576040517f08c379a00000000000000000000000000000000000000000000000000000000081526004016110cc906134de565b60405180910390fd5b60026009819055506110e56121f6565b3373ffffffffffffffffffffffffffffffffffffffff166108fc479081150290604051600060405180830381858888f1935050505015801561112b573d6000803e3d6000fd5b506001600981905550565b61115183838360405180602001604052806000815250611e26565b505050565b61115e6121f6565b8060108190555050565b6000601460008373ffffffffffffffffffffffffffffffffffffffff1673ffffffffffffffffffffffffffffffffffffffff168152602001908152602001600020549050919050565b600d60009054906101000a900460ff1681565b6111cc6121f6565b80600f90805190602001906111e2929190612ae8565b5050565b6000601154905090565b60026009541415611236576040517f08c379a000000000000000000000000000000000000000000000000000000000815260040161122d906134de565b60405180910390fd5b60026009819055503373ffffffffffffffffffffffffffffffffffffffff163273ffffffffffffffffffffffffffffffffffffffff16146112a3576040517f2e75101900000000000000000000000000000000000000000000000000000000815260040160405180910390fd5b600260038111156112b7576112b6612fe8565b5b600a60009054906101000a900460ff1660038111156112d9576112d8612fe8565b5b14611310576040517f012cd2e700000000000000000000000000000000000000000000000000000000815260040160405180910390fd5b601360003373ffffffffffffffffffffffffffffffffffffffff1673ffffffffffffffffffffffffffffffffffffffff16815260200190815260200160002060009054906101000a900460ff1615611394576040517f6f5aa9e400000000000000000000000000000000000000000000000000000000815260040160405180910390fd5b600060115490506108ae8111156113d7576040517f47747fa900000000000000000000000000000000000000000000000000000000815260040160405180910390fd5b600181016011819055506001601360003373ffffffffffffffffffffffffffffffffffffffff1673ffffffffffffffffffffffffffffffffffffffff16815260200190815260200160002060006101000a81548160ff021916908315150217905550611444336001612411565b506001600981905550565b600061145a82612279565b9050919050565b600260095414156114a7576040517f08c379a000000000000000000000000000000000000000000000000000000000815260040161149e906134de565b60405180910390fd5b60026009819055503373ffffffffffffffffffffffffffffffffffffffff163273ffffffffffffffffffffffffffffffffffffffff1614611514576040517f2e75101900000000000000000000000000000000000000000000000000000000815260040160405180910390fd5b60038081111561152757611526612fe8565b5b600a60009054906101000a900460ff16600381111561154957611548612fe8565b5b14611580576040517f012cd2e700000000000000000000000000000000000000000000000000000000815260040160405180910390fd5b600b548161158e919061352d565b3410156115c7576040517fc534702400000000000000000000000000000000000000000000000000000000815260040160405180910390fd5b6000601460003373ffffffffffffffffffffffffffffffffffffffff1673ffffffffffffffffffffffffffffffffffffffff168152602001908152602001600020549050600382826116199190613587565b1115611651576040517f06f5d75400000000000000000000000000000000000000000000000000000000815260040160405180910390fd5b6000601154905061115c83826116679190613587565b111561169f576040517f47747fa900000000000000000000000000000000000000000000000000000000815260040160405180910390fd5b828101601181905550828201601460003373ffffffffffffffffffffffffffffffffffffffff1673ffffffffffffffffffffffffffffffffffffffff168152602001908152602001600020819055506116f83384612411565b5050600160098190555050565b60105481565b6117136121f6565b80600381111561172657611725612fe8565b5b600a60006101000a81548160ff0219169083600381111561174a57611749612fe8565b5b02179055507f3665a8b73cada881fbf8d8433b7d9e7d21c1e53eecf7bb51fb15262d98ee0afb8160405161177e9190612fcd565b60405180910390a150565b600f805461179690613460565b80601f01602080910402602001604051908101604052809291908181526020018280546117c290613460565b801561180f5780601f106117e45761010080835404028352916020019161180f565b820191906000526020600020905b8154815290600101906020018083116117f257829003601f168201915b505050505081565b60008073ffffffffffffffffffffffffffffffffffffffff168273ffffffffffffffffffffffffffffffffffffffff16141561187f576040517f8f4eb60400000000000000000000000000000000000000000000000000000000815260040160405180910390fd5b67ffffffffffffffff600560008473ffffffffffffffffffffffffffffffffffffffff1673ffffffffffffffffffffffffffffffffffffffff16815260200190815260200160002054169050919050565b6118d86121f6565b6118e2600061242f565b565b600e80546118f190613460565b80601f016020809104026020016040519081016040528092919081815260200182805461191d90613460565b801561196a5780601f1061193f5761010080835404028352916020019161196a565b820191906000526020600020905b81548152906001019060200180831161194d57829003601f168201915b505050505081565b6000600860009054906101000a900473ffffffffffffffffffffffffffffffffffffffff16905090565b6119a46121f6565b80600b8190555050565b6060600380546119bd90613460565b80601f01602080910402602001604051908101604052809291908181526020018280546119e990613460565b8015611a365780601f10611a0b57610100808354040283529160200191611a36565b820191906000526020600020905b815481529060010190602001808311611a1957829003601f168201915b5050505050905090565b60026009541415611a86576040517f08c379a0000000000000000000000000000000000000000000000000000000008152600401611a7d906134de565b60405180910390fd5b60026009819055503373ffffffffffffffffffffffffffffffffffffffff163273ffffffffffffffffffffffffffffffffffffffff1614611af3576040517f2e75101900000000000000000000000000000000000000000000000000000000815260040160405180910390fd5b60016003811115611b0757611b06612fe8565b5b600a60009054906101000a900460ff166003811115611b2957611b28612fe8565b5b14611b60576040517f012cd2e700000000000000000000000000000000000000000000000000000000815260040160405180910390fd5b611b6d82826010546124f5565b611ba3576040517f6a9a57a500000000000000000000000000000000000000000000000000000000815260040160405180910390fd5b601260003373ffffffffffffffffffffffffffffffffffffffff1673ffffffffffffffffffffffffffffffffffffffff16815260200190815260200160002060009054906101000a900460ff1615611c27576040517f6f5aa9e400000000000000000000000000000000000000000000000000000000815260040160405180910390fd5b6011600081548092919060010191905055506001601260003373ffffffffffffffffffffffffffffffffffffffff1673ffffffffffffffffffffffffffffffffffffffff16815260200190815260200160002060006101000a81548160ff021916908315150217905550611c9c336001612411565b60016009819055505050565b600b5481565b611cb66121ee565b73ffffffffffffffffffffffffffffffffffffffff168273ffffffffffffffffffffffffffffffffffffffff161415611d1b576040517fb06307db00000000000000000000000000000000000000000000000000000000815260040160405180910390fd5b8060076000611d286121ee565b73ffffffffffffffffffffffffffffffffffffffff1673ffffffffffffffffffffffffffffffffffffffff16815260200190815260200160002060008473ffffffffffffffffffffffffffffffffffffffff1673ffffffffffffffffffffffffffffffffffffffff16815260200190815260200160002060006101000a81548160ff0219169083151502179055508173ffffffffffffffffffffffffffffffffffffffff16611dd56121ee565b73ffffffffffffffffffffffffffffffffffffffff167f17307eab39ab6107e8899845ad3d59bd9653f200f220920489ca2b5937696c3183604051611e1a9190612c3f565b60405180910390a35050565b611e31848484610cf2565b60008373ffffffffffffffffffffffffffffffffffffffff163b14611e9357611e5c84848484612572565b611e92576040517fd1a57ed600000000000000000000000000000000000000000000000000000000815260040160405180910390fd5b5b50505050565b6060611ea48261218f565b611eda576040517fa14c4b5000000000000000000000000000000000000000000000000000000000815260040160405180910390fd5b6000611ee46126d2565b9050600081511415611f055760405180602001604052806000815250611f30565b80611f0f84612764565b604051602001611f20929190613619565b6040516020818303038152906040525b915050919050565b611f406121f6565b80600d60006101000a81548160ff02191690831515021790555050565b6000600760008473ffffffffffffffffffffffffffffffffffffffff1673ffffffffffffffffffffffffffffffffffffffff16815260200190815260200160002060008373ffffffffffffffffffffffffffffffffffffffff1673ffffffffffffffffffffffffffffffffffffffff16815260200190815260200160002060009054906101000a900460ff16905092915050565b60026009541415612037576040517f08c379a000000000000000000000000000000000000000000000000000000000815260040161202e906134de565b60405180910390fd5b60026009819055506120476121f6565b61115c816011546120589190613587565b1115612090576040517f47747fa900000000000000000000000000000000000000000000000000000000815260040160405180910390fd5b806011600082825401925050819055506120aa3382612411565b600160098190555050565b6120bd6121f6565b600073ffffffffffffffffffffffffffffffffffffffff168173ffffffffffffffffffffffffffffffffffffffff16141561212d576040517f08c379a0000000000000000000000000000000000000000000000000000000008152600401612124906136af565b60405180910390fd5b6121368161242f565b50565b6000601260008373ffffffffffffffffffffffffffffffffffffffff1673ffffffffffffffffffffffffffffffffffffffff16815260200190815260200160002060009054906101000a900460ff169050919050565b60008161219a612274565b111580156121a9575060005482105b80156121e7575060007c0100000000000000000000000000000000000000000000000000000000600460008581526020019081526020016000205416145b9050919050565b600033905090565b6121fe6127be565b73ffffffffffffffffffffffffffffffffffffffff1661221c611972565b73ffffffffffffffffffffffffffffffffffffffff1614612272576040517f08c379a00000000000000000000000000000000000000000000000000000000081526004016122699061371b565b60405180910390fd5b565b600090565b60008082905080612288612274565b116123105760005481101561230f5760006004600083815260200190815260200160002054905060007c01000000000000000000000000000000000000000000000000000000008216141561230d575b60008114156123035760046000836001900393508381526020019081526020016000205490506122d8565b8092505050612342565b505b5b6040517fdf2d9b4200000000000000000000000000000000000000000000000000000000815260040160405180910390fd5b919050565b60008060006006600085815260200190815260200160002090508092508254915050915091565b600073ffffffffffffffffffffffffffffffffffffffff8316925073ffffffffffffffffffffffffffffffffffffffff821691508382148383141790509392505050565b50505050565b60008060e883901c905060e86123cf8686846127c6565b62ffffff16901b9150509392505050565b600073ffffffffffffffffffffffffffffffffffffffff83169250814260a01b178317905092915050565b50505050565b61242b8282604051806020016040528060008152506127cf565b5050565b6000600860009054906101000a900473ffffffffffffffffffffffffffffffffffffffff16905081600860006101000a81548173ffffffffffffffffffffffffffffffffffffffff021916908373ffffffffffffffffffffffffffffffffffffffff1602179055508173ffffffffffffffffffffffffffffffffffffffff168173ffffffffffffffffffffffffffffffffffffffff167f8be0079c531659141344cd1fd0a4f28419497f9722a3daafe3b4186f6b6457e060405160405180910390a35050565b6000612569848480806020026020016040519081016040528093929190818152602001838360200280828437600081840152601f19601f82011690508083019250505050505050833360405160200161254e9190613783565b6040516020818303038152906040528051906020012061286c565b90509392505050565b60008373ffffffffffffffffffffffffffffffffffffffff1663150b7a026125986121ee565b8786866040518563ffffffff1660e01b81526004016125ba94939291906137f3565b602060405180830381600087803b1580156125d457600080fd5b505af192505050801561260557506040513d601f19601f820116820180604052508101906126029190613854565b60015b61267f573d8060008114612635576040519150601f19603f3d011682016040523d82523d6000602084013e61263a565b606091505b50600081511415612677576040517fd1a57ed600000000000000000000000000000000000000000000000000000000815260040160405180910390fd5b805181602001fd5b63150b7a0260e01b7bffffffffffffffffffffffffffffffffffffffffffffffffffffffff1916817bffffffffffffffffffffffffffffffffffffffffffffffffffffffff191614915050949350505050565b6060600f80546126e190613460565b80601f016020809104026020016040519081016040528092919081815260200182805461270d90613460565b801561275a5780601f1061272f5761010080835404028352916020019161275a565b820191906000526020600020905b81548152906001019060200180831161273d57829003601f168201915b5050505050905090565b60606080604051019050806040528082600183039250600a81066030018353600a810490505b80156127aa57600183039250600a81066030018353600a8104905061278a565b508181036020830392508083525050919050565b600033905090565b60009392505050565b6127d98383612883565b60008373ffffffffffffffffffffffffffffffffffffffff163b1461286757600080549050600083820390505b6128196000868380600101945086612572565b61284f576040517fd1a57ed600000000000000000000000000000000000000000000000000000000815260040160405180910390fd5b81811061280657816000541461286457600080fd5b50505b505050565b6000826128798584612a40565b1490509392505050565b60008054905060008214156128c4576040517fb562e8dd00000000000000000000000000000000000000000000000000000000815260040160405180910390fd5b6128d160008483856123b2565b600160406001901b178202600560008573ffffffffffffffffffffffffffffffffffffffff1673ffffffffffffffffffffffffffffffffffffffff168152602001908152602001600020600082825401925050819055506129488361293960008660006123b8565b61294285612a96565b176123e0565b6004600083815260200190815260200160002081905550600080838301905073ffffffffffffffffffffffffffffffffffffffff85169150828260007fddf252ad1be2c89b69c2b068fc378daa952ba7f163c4a11628f55a4df523b3ef600080a4600183015b8181146129e957808360007fddf252ad1be2c89b69c2b068fc378daa952ba7f163c4a11628f55a4df523b3ef600080a46001810190506129ae565b506000821415612a25576040517f2e07630000000000000000000000000000000000000000000000000000000000815260040160405180910390fd5b806000819055505050612a3b600084838561240b565b505050565b60008082905060005b8451811015612a8b57612a7682868381518110612a6957612a68613881565b5b6020026020010151612aa6565b91508080612a83906138b0565b915050612a49565b508091505092915050565b60006001821460e11b9050919050565b6000818310612abe57612ab98284612ad1565b612ac9565b612ac88383612ad1565b5b905092915050565b600082600052816020526040600020905092915050565b828054612af490613460565b90600052602060002090601f016020900481019282612b165760008555612b5d565b82601f10612b2f57805160ff1916838001178555612b5d565b82800160010185558215612b5d579182015b82811115612b5c578251825591602001919060010190612b41565b5b509050612b6a9190612b6e565b5090565b5b80821115612b87576000816000905550600101612b6f565b5090565b6000604051905090565b600080fd5b600080fd5b60007fffffffff0000000000000000000000000000000000000000000000000000000082169050919050565b612bd481612b9f565b8114612bdf57600080fd5b50565b600081359050612bf181612bcb565b92915050565b600060208284031215612c0d57612c0c612b95565b5b6000612c1b84828501612be2565b91505092915050565b60008115159050919050565b612c3981612c24565b82525050565b6000602082019050612c546000830184612c30565b92915050565b600081519050919050565b600082825260208201905092915050565b60005b83811015612c94578082015181840152602081019050612c79565b83811115612ca3576000848401525b50505050565b6000601f19601f8301169050919050565b6000612cc582612c5a565b612ccf8185612c65565b9350612cdf818560208601612c76565b612ce881612ca9565b840191505092915050565b60006020820190508181036000830152612d0d8184612cba565b905092915050565b6000819050919050565b612d2881612d15565b8114612d3357600080fd5b50565b600081359050612d4581612d1f565b92915050565b600060208284031215612d6157612d60612b95565b5b6000612d6f84828501612d36565b91505092915050565b600073ffffffffffffffffffffffffffffffffffffffff82169050919050565b6000612da382612d78565b9050919050565b612db381612d98565b82525050565b6000602082019050612dce6000830184612daa565b92915050565b612ddd81612d98565b8114612de857600080fd5b50565b600081359050612dfa81612dd4565b92915050565b60008060408385031215612e1757612e16612b95565b5b6000612e2585828601612deb565b9250506020612e3685828601612d36565b9150509250929050565b600080fd5b600080fd5b7f4e487b7100000000000000000000000000000000000000000000000000000000600052604160045260246000fd5b612e8282612ca9565b810181811067ffffffffffffffff82111715612ea157612ea0612e4a565b5b80604052505050565b6000612eb4612b8b565b9050612ec08282612e79565b919050565b600067ffffffffffffffff821115612ee057612edf612e4a565b5b612ee982612ca9565b9050602081019050919050565b82818337600083830152505050565b6000612f18612f1384612ec5565b612eaa565b905082815260208101848484011115612f3457612f33612e45565b5b612f3f848285612ef6565b509392505050565b600082601f830112612f5c57612f5b612e40565b5b8135612f6c848260208601612f05565b91505092915050565b600060208284031215612f8b57612f8a612b95565b5b600082013567ffffffffffffffff811115612fa957612fa8612b9a565b5b612fb584828501612f47565b91505092915050565b612fc781612d15565b82525050565b6000602082019050612fe26000830184612fbe565b92915050565b7f4e487b7100000000000000000000000000000000000000000000000000000000600052602160045260246000fd5b6004811061302857613027612fe8565b5b50565b600081905061303982613017565b919050565b60006130498261302b565b9050919050565b6130598161303e565b82525050565b60006020820190506130746000830184613050565b92915050565b60008060006060848603121561309357613092612b95565b5b60006130a186828701612deb565b93505060206130b286828701612deb565b92505060406130c386828701612d36565b9150509250925092565b6000602082840312156130e3576130e2612b95565b5b60006130f184828501612deb565b91505092915050565b6000819050919050565b61310d816130fa565b811461311857600080fd5b50565b60008135905061312a81613104565b92915050565b60006020828403121561314657613145612b95565b5b60006131548482850161311b565b91505092915050565b613166816130fa565b82525050565b6000602082019050613181600083018461315d565b92915050565b600080fd5b600080fd5b60008083601f8401126131a7576131a6612e40565b5b8235905067ffffffffffffffff8111156131c4576131c3613187565b5b6020830191508360208202830111156131e0576131df61318c565b5b9250929050565b600080602083850312156131fe576131fd612b95565b5b600083013567ffffffffffffffff81111561321c5761321b612b9a565b5b61322885828601613191565b92509250509250929050565b61323d81612c24565b811461324857600080fd5b50565b60008135905061325a81613234565b92915050565b6000806040838503121561327757613276612b95565b5b600061328585828601612deb565b92505060206132968582860161324b565b9150509250929050565b600067ffffffffffffffff8211156132bb576132ba612e4a565b5b6132c482612ca9565b9050602081019050919050565b60006132e46132df846132a0565b612eaa565b905082815260208101848484011115613300576132ff612e45565b5b61330b848285612ef6565b509392505050565b600082601f83011261332857613327612e40565b5b81356133388482602086016132d1565b91505092915050565b6000806000806080858703121561335b5761335a612b95565b5b600061336987828801612deb565b945050602061337a87828801612deb565b935050604061338b87828801612d36565b925050606085013567ffffffffffffffff8111156133ac576133ab612b9a565b5b6133b887828801613313565b91505092959194509250565b6000602082840312156133da576133d9612b95565b5b60006133e88482850161324b565b91505092915050565b6000806040838503121561340857613407612b95565b5b600061341685828601612deb565b925050602061342785828601612deb565b9150509250929050565b7f4e487b7100000000000000000000000000000000000000000000000000000000600052602260045260246000fd5b6000600282049050600182168061347857607f821691505b6020821081141561348c5761348b613431565b5b50919050565b7f5265656e7472616e637947756172643a207265656e7472616e742063616c6c00600082015250565b60006134c8601f83612c65565b91506134d382613492565b602082019050919050565b600060208201905081810360008301526134f7816134bb565b9050919050565b7f4e487b7100000000000000000000000000000000000000000000000000000000600052601160045260246000fd5b600061353882612d15565b915061354383612d15565b9250817fffffffffffffffffffffffffffffffffffffffffffffffffffffffffffffffff048311821515161561357c5761357b6134fe565b5b828202905092915050565b600061359282612d15565b915061359d83612d15565b9250827fffffffffffffffffffffffffffffffffffffffffffffffffffffffffffffffff038211156135d2576135d16134fe565b5b828201905092915050565b600081905092915050565b60006135f382612c5a565b6135fd81856135dd565b935061360d818560208601612c76565b80840191505092915050565b600061362582856135e8565b915061363182846135e8565b91508190509392505050565b7f4f776e61626c653a206e6577206f776e657220697320746865207a65726f206160008201527f6464726573730000000000000000000000000000000000000000000000000000602082015250565b6000613699602683612c65565b91506136a48261363d565b604082019050919050565b600060208201905081810360008301526136c88161368c565b9050919050565b7f4f776e61626c653a2063616c6c6572206973206e6f7420746865206f776e6572600082015250565b6000613705602083612c65565b9150613710826136cf565b602082019050919050565b60006020820190508181036000830152613734816136f8565b9050919050565b60008160601b9050919050565b60006137538261373b565b9050919050565b600061376582613748565b9050919050565b61377d61377882612d98565b61375a565b82525050565b600061378f828461376c565b60148201915081905092915050565b600081519050919050565b600082825260208201905092915050565b60006137c58261379e565b6137cf81856137a9565b93506137df818560208601612c76565b6137e881612ca9565b840191505092915050565b60006080820190506138086000830187612daa565b6138156020830186612daa565b6138226040830185612fbe565b818103606083015261383481846137ba565b905095945050505050565b60008151905061384e81612bcb565b92915050565b60006020828403121561386a57613869612b95565b5b60006138788482850161383f565b91505092915050565b7f4e487b7100000000000000000000000000000000000000000000000000000000600052603260045260246000fd5b60006138bb82612d15565b91507fffffffffffffffffffffffffffffffffffffffffffffffffffffffffffffffff8214156138ee576138ed6134fe565b5b60018201905091905056fea264697066735822122061972ae1e0532a0b7bcc49675b7367d694085874273b12430a59407e3f07024164736f6c63430008090033",
  "linkReferences": {},
  "deployedLinkReferences": {}
}