{
  "contracts/NotMafia.sol": {
    "NotMafia": {
      "abi": [
        {
          "inputs": [],
          "stateMutability": "nonpayable",
          "type": "constructor"
        },
        {
          "inputs": [],
          "name": "AlreadyMintedMaxInPhase",
          "type": "error"
        },
        {
          "inputs": [],
          "name": "AmountNotAvailable",
          "type": "error"
        },
        {
          "inputs": [],
          "name": "ApprovalCallerNotOwnerNorApproved",
          "type": "error"
        },
        {
          "inputs": [],
          "name": "ApprovalQueryForNonexistentToken",
          "type": "error"
        },
        {
          "inputs": [],
          "name": "ApproveToCaller",
          "type": "error"
        },
        {
          "inputs": [],
          "name": "BalanceQueryForZeroAddress",
          "type": "error"
        },
        {
          "inputs": [],
          "name": "MintERC2309QuantityExceedsLimit",
          "type": "error"
        },
        {
          "inputs": [],
          "name": "MintToZeroAddress",
          "type": "error"
        },
        {
          "inputs": [],
          "name": "MintZeroQuantity",
          "type": "error"
        },
        {
          "inputs": [],
          "name": "NotWhiteListed",
          "type": "error"
        },
        {
          "inputs": [],
          "name": "OnlyUserMint",
          "type": "error"
        },
        {
          "inputs": [],
          "name": "OwnerQueryForNonexistentToken",
          "type": "error"
        },
        {
          "inputs": [],
          "name": "OwnershipNotInitializedForExtraData",
          "type": "error"
        },
        {
          "inputs": [],
          "name": "TransferCallerNotOwnerNorApproved",
          "type": "error"
        },
        {
          "inputs": [],
          "name": "TransferFromIncorrectOwner",
          "type": "error"
        },
        {
          "inputs": [],
          "name": "TransferToNonERC721ReceiverImplementer",
          "type": "error"
        },
        {
          "inputs": [],
          "name": "TransferToZeroAddress",
          "type": "error"
        },
        {
          "inputs": [],
          "name": "URIQueryForNonexistentToken",
          "type": "error"
        },
        {
          "inputs": [],
          "name": "ValueNotEqualToPrice",
          "type": "error"
        },
        {
          "inputs": [],
          "name": "WouldExceedMaxPerWallet",
          "type": "error"
        },
        {
          "inputs": [],
          "name": "WrongMintFunction",
          "type": "error"
        },
        {
          "anonymous": false,
          "inputs": [
            {
              "indexed": true,
              "internalType": "address",
              "name": "owner",
              "type": "address"
            },
            {
              "indexed": true,
              "internalType": "address",
              "name": "approved",
              "type": "address"
            },
            {
              "indexed": true,
              "internalType": "uint256",
              "name": "tokenId",
              "type": "uint256"
            }
          ],
          "name": "Approval",
          "type": "event"
        },
        {
          "anonymous": false,
          "inputs": [
            {
              "indexed": true,
              "internalType": "address",
              "name": "owner",
              "type": "address"
            },
            {
              "indexed": true,
              "internalType": "address",
              "name": "operator",
              "type": "address"
            },
            {
              "indexed": false,
              "internalType": "bool",
              "name": "approved",
              "type": "bool"
            }
          ],
          "name": "ApprovalForAll",
          "type": "event"
        },
        {
          "anonymous": false,
          "inputs": [
            {
              "indexed": false,
              "internalType": "uint256",
              "name": "newStatus",
              "type": "uint256"
            }
          ],
          "name": "ChangedStatus",
          "type": "event"
        },
        {
          "anonymous": false,
          "inputs": [
            {
              "indexed": true,
              "internalType": "uint256",
              "name": "fromTokenId",
              "type": "uint256"
            },
            {
              "indexed": false,
              "internalType": "uint256",
              "name": "toTokenId",
              "type": "uint256"
            },
            {
              "indexed": true,
              "internalType": "address",
              "name": "from",
              "type": "address"
            },
            {
              "indexed": true,
              "internalType": "address",
              "name": "to",
              "type": "address"
            }
          ],
          "name": "ConsecutiveTransfer",
          "type": "event"
        },
        {
          "anonymous": false,
          "inputs": [
            {
              "indexed": true,
              "internalType": "address",
              "name": "previousOwner",
              "type": "address"
            },
            {
              "indexed": true,
              "internalType": "address",
              "name": "newOwner",
              "type": "address"
            }
          ],
          "name": "OwnershipTransferred",
          "type": "event"
        },
        {
          "anonymous": false,
          "inputs": [
            {
              "indexed": true,
              "internalType": "address",
              "name": "from",
              "type": "address"
            },
            {
              "indexed": true,
              "internalType": "address",
              "name": "to",
              "type": "address"
            },
            {
              "indexed": true,
              "internalType": "uint256",
              "name": "tokenId",
              "type": "uint256"
            }
          ],
          "name": "Transfer",
          "type": "event"
        },
        {
          "inputs": [
            {
              "internalType": "address",
              "name": "to",
              "type": "address"
            },
            {
              "internalType": "uint256",
              "name": "tokenId",
              "type": "uint256"
            }
          ],
          "name": "approve",
          "outputs": [],
          "stateMutability": "nonpayable",
          "type": "function"
        },
        {
          "inputs": [
            {
              "internalType": "address",
              "name": "owner",
              "type": "address"
            }
          ],
          "name": "balanceOf",
          "outputs": [
            {
              "internalType": "uint256",
              "name": "",
              "type": "uint256"
            }
          ],
          "stateMutability": "view",
          "type": "function"
        },
        {
          "inputs": [],
          "name": "baseURI",
          "outputs": [
            {
              "internalType": "string",
              "name": "",
              "type": "string"
            }
          ],
          "stateMutability": "view",
          "type": "function"
        },
        {
          "inputs": [
            {
              "internalType": "uint256",
              "name": "tokenId",
              "type": "uint256"
            }
          ],
          "name": "getApproved",
          "outputs": [
            {
              "internalType": "address",
              "name": "",
              "type": "address"
            }
          ],
          "stateMutability": "view",
          "type": "function"
        },
        {
          "inputs": [],
          "name": "getCurrentTokenId",
          "outputs": [
            {
              "internalType": "uint256",
              "name": "",
              "type": "uint256"
            }
          ],
          "stateMutability": "view",
          "type": "function"
        },
        {
          "inputs": [
            {
              "internalType": "address",
              "name": "__address",
              "type": "address"
            }
          ],
          "name": "getHasMintedFree",
          "outputs": [
            {
              "internalType": "bool",
              "name": "",
              "type": "bool"
            }
          ],
          "stateMutability": "view",
          "type": "function"
        },
        {
          "inputs": [
            {
              "internalType": "address",
              "name": "__address",
              "type": "address"
            }
          ],
          "name": "getHasMintedSale",
          "outputs": [
            {
              "internalType": "uint256",
              "name": "",
              "type": "uint256"
            }
          ],
          "stateMutability": "view",
          "type": "function"
        },
        {
          "inputs": [
            {
              "internalType": "address",
              "name": "__address",
              "type": "address"
            }
          ],
          "name": "getHasMintedWhiteList",
          "outputs": [
            {
              "internalType": "bool",
              "name": "",
              "type": "bool"
            }
          ],
          "stateMutability": "view",
          "type": "function"
        },
        {
          "inputs": [
            {
              "internalType": "address",
              "name": "owner",
              "type": "address"
            },
            {
              "internalType": "address",
              "name": "operator",
              "type": "address"
            }
          ],
          "name": "isApprovedForAll",
          "outputs": [
            {
              "internalType": "bool",
              "name": "",
              "type": "bool"
            }
          ],
          "stateMutability": "view",
          "type": "function"
        },
        {
          "inputs": [],
          "name": "name",
          "outputs": [
            {
              "internalType": "string",
              "name": "",
              "type": "string"
            }
          ],
          "stateMutability": "view",
          "type": "function"
        },
        {
          "inputs": [],
          "name": "owner",
          "outputs": [
            {
              "internalType": "address",
              "name": "",
              "type": "address"
            }
          ],
          "stateMutability": "view",
          "type": "function"
        },
        {
          "inputs": [
            {
              "internalType": "uint256",
              "name": "__amount",
              "type": "uint256"
            }
          ],
          "name": "ownerMint",
          "outputs": [],
          "stateMutability": "nonpayable",
          "type": "function"
        },
        {
          "inputs": [
            {
              "internalType": "uint256",
              "name": "tokenId",
              "type": "uint256"
            }
          ],
          "name": "ownerOf",
          "outputs": [
            {
              "internalType": "address",
              "name": "",
              "type": "address"
            }
          ],
          "stateMutability": "view",
          "type": "function"
        },
        {
          "inputs": [],
          "name": "price",
          "outputs": [
            {
              "internalType": "uint256",
              "name": "",
              "type": "uint256"
            }
          ],
          "stateMutability": "view",
          "type": "function"
        },
        {
          "inputs": [
            {
              "internalType": "uint256",
              "name": "__amount",
              "type": "uint256"
            }
          ],
          "name": "publicMint",
          "outputs": [],
          "stateMutability": "payable",
          "type": "function"
        },
        {
          "inputs": [],
          "name": "renounceOwnership",
          "outputs": [],
          "stateMutability": "nonpayable",
          "type": "function"
        },
        {
          "inputs": [
            {
              "internalType": "address",
              "name": "from",
              "type": "address"
            },
            {
              "internalType": "address",
              "name": "to",
              "type": "address"
            },
            {
              "internalType": "uint256",
              "name": "tokenId",
              "type": "uint256"
            }
          ],
          "name": "safeTransferFrom",
          "outputs": [],
          "stateMutability": "nonpayable",
          "type": "function"
        },
        {
          "inputs": [
            {
              "internalType": "address",
              "name": "from",
              "type": "address"
            },
            {
              "internalType": "address",
              "name": "to",
              "type": "address"
            },
            {
              "internalType": "uint256",
              "name": "tokenId",
              "type": "uint256"
            },
            {
              "internalType": "bytes",
              "name": "_data",
              "type": "bytes"
            }
          ],
          "name": "safeTransferFrom",
          "outputs": [],
          "stateMutability": "nonpayable",
          "type": "function"
        },
        {
          "inputs": [
            {
              "internalType": "address",
              "name": "operator",
              "type": "address"
            },
            {
              "internalType": "bool",
              "name": "approved",
              "type": "bool"
            }
          ],
          "name": "setApprovalForAll",
          "outputs": [],
          "stateMutability": "nonpayable",
          "type": "function"
        },
        {
          "inputs": [
            {
              "internalType": "string",
              "name": "__newURI",
              "type": "string"
            }
          ],
          "name": "setBaseURI",
          "outputs": [],
          "stateMutability": "nonpayable",
          "type": "function"
        },
        {
          "inputs": [
            {
              "internalType": "uint256",
              "name": "__price",
              "type": "uint256"
            }
          ],
          "name": "setPrice",
          "outputs": [],
          "stateMutability": "nonpayable",
          "type": "function"
        },
        {
          "inputs": [
            {
              "internalType": "uint256",
              "name": "__status",
              "type": "uint256"
            }
          ],
          "name": "setStatus",
          "outputs": [],
          "stateMutability": "nonpayable",
          "type": "function"
        },
        {
          "inputs": [
            {
              "internalType": "uint256",
              "name": "__newTotalSupply",
              "type": "uint256"
            }
          ],
          "name": "setTotalSupply",
          "outputs": [],
          "stateMutability": "nonpayable",
          "type": "function"
        },
        {
          "inputs": [
            {
              "internalType": "bytes32",
              "name": "__root",
              "type": "bytes32"
            }
          ],
          "name": "setWhiteListRoot",
          "outputs": [],
          "stateMutability": "nonpayable",
          "type": "function"
        },
        {
          "inputs": [],
          "name": "status",
          "outputs": [
            {
              "internalType": "enum NotMafia.Status",
              "name": "",
              "type": "uint8"
            }
          ],
          "stateMutability": "view",
          "type": "function"
        },
        {
          "inputs": [
            {
              "internalType": "bytes4",
              "name": "interfaceId",
              "type": "bytes4"
            }
          ],
          "name": "supportsInterface",
          "outputs": [
            {
              "internalType": "bool",
              "name": "",
              "type": "bool"
            }
          ],
          "stateMutability": "view",
          "type": "function"
        },
        {
          "inputs": [],
          "name": "symbol",
          "outputs": [
            {
              "internalType": "string",
              "name": "",
              "type": "string"
            }
          ],
          "stateMutability": "view",
          "type": "function"
        },
        {
          "inputs": [
            {
              "internalType": "uint256",
              "name": "__tokenId",
              "type": "uint256"
            }
          ],
          "name": "tokenURI",
          "outputs": [
            {
              "internalType": "string",
              "name": "",
              "type": "string"
            }
          ],
          "stateMutability": "view",
          "type": "function"
        },
        {
          "inputs": [],
          "name": "totalSupply",
          "outputs": [
            {
              "internalType": "uint256",
              "name": "",
              "type": "uint256"
            }
          ],
          "stateMutability": "view",
          "type": "function"
        },
        {
          "inputs": [
            {
              "internalType": "address",
              "name": "from",
              "type": "address"
            },
            {
              "internalType": "address",
              "name": "to",
              "type": "address"
            },
            {
              "internalType": "uint256",
              "name": "tokenId",
              "type": "uint256"
            }
          ],
          "name": "transferFrom",
          "outputs": [],
          "stateMutability": "nonpayable",
          "type": "function"
        },
        {
          "inputs": [
            {
              "internalType": "address",
              "name": "newOwner",
              "type": "address"
            }
          ],
          "name": "transferOwnership",
          "outputs": [],
          "stateMutability": "nonpayable",
          "type": "function"
        },
        {
          "inputs": [
            {
              "internalType": "bytes32[]",
              "name": "__proof",
              "type": "bytes32[]"
            }
          ],
          "name": "whiteListMint",
          "outputs": [],
          "stateMutability": "nonpayable",
          "type": "function"
        },
        {
          "inputs": [],
          "name": "whiteListRoot",
          "outputs": [
            {
              "internalType": "bytes32",
              "name": "",
              "type": "bytes32"
            }
          ],
          "stateMutability": "view",
          "type": "function"
        },
        {
          "inputs": [],
          "name": "withdraw",
          "outputs": [],
          "stateMutability": "nonpayable",
          "type": "function"
        }
      ],
      "evm": {
        "bytecode": {
          "linkReferences": {},
          "object": "608060405261115c600f553480156200001757600080fd5b506040518060400160405280600981526020017f4e6f74204d6166696100000000000000000000000000000000000000000000008152506040518060400160405280600481526020017f4e544d460000000000000000000000000000000000000000000000000000000081525081600290805190602001906200009c92919062000217565b508060039080519060200190620000b592919062000217565b50620000c66200014060201b60201c565b6000819055505050620000ee620000e26200014960201b60201c565b6200015160201b60201c565b60016009819055506000600a60006101000a81548160ff021916908360028111156200011f576200011e620002c7565b5b0217905550661edf824b192000600b819055506001600e819055506200035b565b60006001905090565b600033905090565b6000600860009054906101000a900473ffffffffffffffffffffffffffffffffffffffff16905081600860006101000a81548173ffffffffffffffffffffffffffffffffffffffff021916908373ffffffffffffffffffffffffffffffffffffffff1602179055508173ffffffffffffffffffffffffffffffffffffffff168173ffffffffffffffffffffffffffffffffffffffff167f8be0079c531659141344cd1fd0a4f28419497f9722a3daafe3b4186f6b6457e060405160405180910390a35050565b828054620002259062000325565b90600052602060002090601f01602090048101928262000249576000855562000295565b82601f106200026457805160ff191683800117855562000295565b8280016001018555821562000295579182015b828111156200029457825182559160200191906001019062000277565b5b509050620002a49190620002a8565b5090565b5b80821115620002c3576000816000905550600101620002a9565b5090565b7f4e487b7100000000000000000000000000000000000000000000000000000000600052602160045260246000fd5b7f4e487b7100000000000000000000000000000000000000000000000000000000600052602260045260246000fd5b600060028204905060018216806200033e57607f821691505b60208210811415620003555762000354620002f6565b5b50919050565b613689806200036b6000396000f3fe6080604052600436106101f95760003560e01c806369ba1a751161010d578063a035b1fe116100a0578063e985e9c51161006f578063e985e9c514610710578063f19e75d41461074d578063f2fde38b14610776578063f524d6cd1461079f578063f7ea7a3d146107dc576101f9565b8063a035b1fe14610656578063a22cb46514610681578063b88d4fde146106aa578063c87b56dd146106d3576101f9565b80638da5cb5b116100dc5780638da5cb5b146105ae57806391b7f5ed146105d957806395d89b411461060257806397254e551461062d576101f9565b806369ba1a75146105065780636c0360eb1461052f57806370a082311461055a578063715018a614610597576101f9565b8063374bc20b116101905780634d7216901161015f5780634d7216901461040d57806355f804b31461044a57806356189236146104735780636352211e1461049e57806365f4fd12146104db576101f9565b8063374bc20b146103675780633ccfd60b146103a457806342842e0e146103bb57806345149bb3146103e4576101f9565b806318160ddd116101cc57806318160ddd146102cc578063200d2ed2146102f757806323b872dd146103225780632db115441461034b576101f9565b806301ffc9a7146101fe57806306fdde031461023b578063081812fc14610266578063095ea7b3146102a3575b600080fd5b34801561020a57600080fd5b5061022560048036038101906102209190612927565b610805565b604051610232919061296f565b60405180910390f35b34801561024757600080fd5b50610250610897565b60405161025d9190612a23565b60405180910390f35b34801561027257600080fd5b5061028d60048036038101906102889190612a7b565b610929565b60405161029a9190612ae9565b60405180910390f35b3480156102af57600080fd5b506102ca60048036038101906102c59190612b30565b6109a8565b005b3480156102d857600080fd5b506102e1610aec565b6040516102ee9190612b7f565b60405180910390f35b34801561030357600080fd5b5061030c610b03565b6040516103199190612c11565b60405180910390f35b34801561032e57600080fd5b5061034960048036038101906103449190612c2c565b610b16565b005b61036560048036038101906103609190612a7b565b610e3b565b005b34801561037357600080fd5b5061038e60048036038101906103899190612c7f565b610f88565b60405161039b919061296f565b60405180910390f35b3480156103b057600080fd5b506103b9610fde565b005b3480156103c757600080fd5b506103e260048036038101906103dd9190612c2c565b611085565b005b3480156103f057600080fd5b5061040b60048036038101906104069190612ce2565b6110a5565b005b34801561041957600080fd5b50610434600480360381019061042f9190612c7f565b6110b7565b6040516104419190612b7f565b60405180910390f35b34801561045657600080fd5b50610471600480360381019061046c9190612e44565b611100565b005b34801561047f57600080fd5b50610488611122565b6040516104959190612b7f565b60405180910390f35b3480156104aa57600080fd5b506104c560048036038101906104c09190612a7b565b61112c565b6040516104d29190612ae9565b60405180910390f35b3480156104e757600080fd5b506104f061113e565b6040516104fd9190612e9c565b60405180910390f35b34801561051257600080fd5b5061052d60048036038101906105289190612a7b565b611144565b005b34801561053b57600080fd5b506105446111c2565b6040516105519190612a23565b60405180910390f35b34801561056657600080fd5b50610581600480360381019061057c9190612c7f565b611250565b60405161058e9190612b7f565b60405180910390f35b3480156105a357600080fd5b506105ac611309565b005b3480156105ba57600080fd5b506105c361131d565b6040516105d09190612ae9565b60405180910390f35b3480156105e557600080fd5b5061060060048036038101906105fb9190612a7b565b611347565b005b34801561060e57600080fd5b50610617611359565b6040516106249190612a23565b60405180910390f35b34801561063957600080fd5b50610654600480360381019061064f9190612f17565b6113eb565b005b34801561066257600080fd5b5061066b611690565b6040516106789190612b7f565b60405180910390f35b34801561068d57600080fd5b506106a860048036038101906106a39190612f90565b611696565b005b3480156106b657600080fd5b506106d160048036038101906106cc9190613071565b61180e565b005b3480156106df57600080fd5b506106fa60048036038101906106f59190612a7b565b611881565b6040516107079190612a23565b60405180910390f35b34801561071c57600080fd5b50610737600480360381019061073291906130f4565b6119a3565b604051610744919061296f565b60405180910390f35b34801561075957600080fd5b50610774600480360381019061076f9190612a7b565b611a37565b005b34801561078257600080fd5b5061079d60048036038101906107989190612c7f565b611afb565b005b3480156107ab57600080fd5b506107c660048036038101906107c19190612c7f565b611b7f565b6040516107d3919061296f565b60405180910390f35b3480156107e857600080fd5b5061080360048036038101906107fe9190612a7b565b611bd5565b005b60006301ffc9a760e01b827bffffffffffffffffffffffffffffffffffffffffffffffffffffffff1916148061086057506380ac58cd60e01b827bffffffffffffffffffffffffffffffffffffffffffffffffffffffff1916145b806108905750635b5e139f60e01b827bffffffffffffffffffffffffffffffffffffffffffffffffffffffff1916145b9050919050565b6060600280546108a690613163565b80601f01602080910402602001604051908101604052809291908181526020018280546108d290613163565b801561091f5780601f106108f45761010080835404028352916020019161091f565b820191906000526020600020905b81548152906001019060200180831161090257829003601f168201915b5050505050905090565b600061093482611be7565b61096a576040517fcf4700e400000000000000000000000000000000000000000000000000000000815260040160405180910390fd5b6006600083815260200190815260200160002060000160009054906101000a900473ffffffffffffffffffffffffffffffffffffffff169050919050565b60006109b38261112c565b90508073ffffffffffffffffffffffffffffffffffffffff166109d4611c46565b73ffffffffffffffffffffffffffffffffffffffff1614610a3757610a00816109fb611c46565b6119a3565b610a36576040517fcfb3b94200000000000000000000000000000000000000000000000000000000815260040160405180910390fd5b5b826006600084815260200190815260200160002060000160006101000a81548173ffffffffffffffffffffffffffffffffffffffff021916908373ffffffffffffffffffffffffffffffffffffffff160217905550818373ffffffffffffffffffffffffffffffffffffffff168273ffffffffffffffffffffffffffffffffffffffff167f8c5be1e5ebec7d5bd14f71427d1e84f3dd0314c0f7b2291e5b200ac8c7c3b92560405160405180910390a4505050565b6000610af6611c4e565b6001546000540303905090565b600a60009054906101000a900460ff1681565b6000610b2182611c57565b90508373ffffffffffffffffffffffffffffffffffffffff168173ffffffffffffffffffffffffffffffffffffffff1614610b88576040517fa114810000000000000000000000000000000000000000000000000000000000815260040160405180910390fd5b600080610b9484611d25565b91509150610baa8187610ba5611c46565b611d4c565b610bf657610bbf86610bba611c46565b6119a3565b610bf5576040517f59c896be00000000000000000000000000000000000000000000000000000000815260040160405180910390fd5b5b600073ffffffffffffffffffffffffffffffffffffffff168573ffffffffffffffffffffffffffffffffffffffff161415610c5d576040517fea553b3400000000000000000000000000000000000000000000000000000000815260040160405180910390fd5b610c6a8686866001611d90565b8015610c7557600082555b600560008773ffffffffffffffffffffffffffffffffffffffff1673ffffffffffffffffffffffffffffffffffffffff168152602001908152602001600020600081546001900391905081905550600560008673ffffffffffffffffffffffffffffffffffffffff1673ffffffffffffffffffffffffffffffffffffffff1681526020019081526020016000206000815460010191905081905550610d4385610d1f888887611d96565b7c020000000000000000000000000000000000000000000000000000000017611dbe565b600460008681526020019081526020016000208190555060007c020000000000000000000000000000000000000000000000000000000084161415610dcb576000600185019050600060046000838152602001908152602001600020541415610dc9576000548114610dc8578360046000838152602001908152602001600020819055505b5b505b838573ffffffffffffffffffffffffffffffffffffffff168773ffffffffffffffffffffffffffffffffffffffff167fddf252ad1be2c89b69c2b068fc378daa952ba7f163c4a11628f55a4df523b3ef60405160405180910390a4610e338686866001611de9565b505050505050565b60026009541415610e81576040517f08c379a0000000000000000000000000000000000000000000000000000000008152600401610e78906131e1565b60405180910390fd5b60026009819055503373ffffffffffffffffffffffffffffffffffffffff163273ffffffffffffffffffffffffffffffffffffffff1614610eee576040517f2e75101900000000000000000000000000000000000000000000000000000000815260040160405180910390fd5b600280811115610f0157610f00612b9a565b5b600a60009054906101000a900460ff166002811115610f2357610f22612b9a565b5b14610f5a576040517f012cd2e700000000000000000000000000000000000000000000000000000000815260040160405180910390fd5b6108ae600e541115610f7457610f6f81611def565b610f7d565b610f7c611fcb565b5b600160098190555050565b6000601160008373ffffffffffffffffffffffffffffffffffffffff1673ffffffffffffffffffffffffffffffffffffffff16815260200190815260200160002060009054906101000a900460ff169050919050565b60026009541415611024576040517f08c379a000000000000000000000000000000000000000000000000000000000815260040161101b906131e1565b60405180910390fd5b6002600981905550611034612155565b3373ffffffffffffffffffffffffffffffffffffffff166108fc479081150290604051600060405180830381858888f1935050505015801561107a573d6000803e3d6000fd5b506001600981905550565b6110a08383836040518060200160405280600081525061180e565b505050565b6110ad612155565b80600d8190555050565b6000601260008373ffffffffffffffffffffffffffffffffffffffff1673ffffffffffffffffffffffffffffffffffffffff168152602001908152602001600020549050919050565b611108612155565b80600c908051906020019061111e929190612818565b5050565b6000600e54905090565b600061113782611c57565b9050919050565b600d5481565b61114c612155565b80600281111561115f5761115e612b9a565b5b600a60006101000a81548160ff0219169083600281111561118357611182612b9a565b5b02179055507f3665a8b73cada881fbf8d8433b7d9e7d21c1e53eecf7bb51fb15262d98ee0afb816040516111b79190612b7f565b60405180910390a150565b600c80546111cf90613163565b80601f01602080910402602001604051908101604052809291908181526020018280546111fb90613163565b80156112485780601f1061121d57610100808354040283529160200191611248565b820191906000526020600020905b81548152906001019060200180831161122b57829003601f168201915b505050505081565b60008073ffffffffffffffffffffffffffffffffffffffff168273ffffffffffffffffffffffffffffffffffffffff1614156112b8576040517f8f4eb60400000000000000000000000000000000000000000000000000000000815260040160405180910390fd5b67ffffffffffffffff600560008473ffffffffffffffffffffffffffffffffffffffff1673ffffffffffffffffffffffffffffffffffffffff16815260200190815260200160002054169050919050565b611311612155565b61131b60006121d3565b565b6000600860009054906101000a900473ffffffffffffffffffffffffffffffffffffffff16905090565b61134f612155565b80600b8190555050565b60606003805461136890613163565b80601f016020809104026020016040519081016040528092919081815260200182805461139490613163565b80156113e15780601f106113b6576101008083540402835291602001916113e1565b820191906000526020600020905b8154815290600101906020018083116113c457829003601f168201915b5050505050905090565b60026009541415611431576040517f08c379a0000000000000000000000000000000000000000000000000000000008152600401611428906131e1565b60405180910390fd5b60026009819055503373ffffffffffffffffffffffffffffffffffffffff163273ffffffffffffffffffffffffffffffffffffffff161461149e576040517f2e75101900000000000000000000000000000000000000000000000000000000815260040160405180910390fd5b600160028111156114b2576114b1612b9a565b5b600a60009054906101000a900460ff1660028111156114d4576114d3612b9a565b5b1461150b576040517f012cd2e700000000000000000000000000000000000000000000000000000000815260040160405180910390fd5b6106a4600e541115611549576040517f47747fa900000000000000000000000000000000000000000000000000000000815260040160405180910390fd5b6115568282600d54612299565b61158c576040517f6a9a57a500000000000000000000000000000000000000000000000000000000815260040160405180910390fd5b601060003373ffffffffffffffffffffffffffffffffffffffff1673ffffffffffffffffffffffffffffffffffffffff16815260200190815260200160002060009054906101000a900460ff1615611610576040517f6f5aa9e400000000000000000000000000000000000000000000000000000000815260040160405180910390fd5b6001600e600082825401925050819055506001601060003373ffffffffffffffffffffffffffffffffffffffff1673ffffffffffffffffffffffffffffffffffffffff16815260200190815260200160002060006101000a81548160ff021916908315150217905550611684336001612316565b60016009819055505050565b600b5481565b61169e611c46565b73ffffffffffffffffffffffffffffffffffffffff168273ffffffffffffffffffffffffffffffffffffffff161415611703576040517fb06307db00000000000000000000000000000000000000000000000000000000815260040160405180910390fd5b8060076000611710611c46565b73ffffffffffffffffffffffffffffffffffffffff1673ffffffffffffffffffffffffffffffffffffffff16815260200190815260200160002060008473ffffffffffffffffffffffffffffffffffffffff1673ffffffffffffffffffffffffffffffffffffffff16815260200190815260200160002060006101000a81548160ff0219169083151502179055508173ffffffffffffffffffffffffffffffffffffffff166117bd611c46565b73ffffffffffffffffffffffffffffffffffffffff167f17307eab39ab6107e8899845ad3d59bd9653f200f220920489ca2b5937696c3183604051611802919061296f565b60405180910390a35050565b611819848484610b16565b60008373ffffffffffffffffffffffffffffffffffffffff163b1461187b5761184484848484612334565b61187a576040517fd1a57ed600000000000000000000000000000000000000000000000000000000815260040160405180910390fd5b5b50505050565b606061188c82611be7565b6118c2576040517fa14c4b5000000000000000000000000000000000000000000000000000000000815260040160405180910390fd5b6000600c80546118d190613163565b80601f01602080910402602001604051908101604052809291908181526020018280546118fd90613163565b801561194a5780601f1061191f5761010080835404028352916020019161194a565b820191906000526020600020905b81548152906001019060200180831161192d57829003601f168201915b50505050509050600081511415611970576040518060200160405280600081525061199b565b8061197a84612494565b60405160200161198b929190613289565b6040516020818303038152906040525b915050919050565b6000600760008473ffffffffffffffffffffffffffffffffffffffff1673ffffffffffffffffffffffffffffffffffffffff16815260200190815260200160002060008373ffffffffffffffffffffffffffffffffffffffff1673ffffffffffffffffffffffffffffffffffffffff16815260200190815260200160002060009054906101000a900460ff16905092915050565b60026009541415611a7d576040517f08c379a0000000000000000000000000000000000000000000000000000000008152600401611a74906131e1565b60405180910390fd5b6002600981905550611a8d612155565b600f5481600e54611a9e91906132e7565b1115611ad6576040517f47747fa900000000000000000000000000000000000000000000000000000000815260040160405180910390fd5b80600e60008282540192505081905550611af03382612316565b600160098190555050565b611b03612155565b600073ffffffffffffffffffffffffffffffffffffffff168173ffffffffffffffffffffffffffffffffffffffff161415611b73576040517f08c379a0000000000000000000000000000000000000000000000000000000008152600401611b6a906133af565b60405180910390fd5b611b7c816121d3565b50565b6000601060008373ffffffffffffffffffffffffffffffffffffffff1673ffffffffffffffffffffffffffffffffffffffff16815260200190815260200160002060009054906101000a900460ff169050919050565b611bdd612155565b80600f8190555050565b600081611bf2611c4e565b11158015611c01575060005482105b8015611c3f575060007c0100000000000000000000000000000000000000000000000000000000600460008581526020019081526020016000205416145b9050919050565b600033905090565b60006001905090565b60008082905080611c66611c4e565b11611cee57600054811015611ced5760006004600083815260200190815260200160002054905060007c010000000000000000000000000000000000000000000000000000000082161415611ceb575b6000811415611ce1576004600083600190039350838152602001908152602001600020549050611cb6565b8092505050611d20565b505b5b6040517fdf2d9b4200000000000000000000000000000000000000000000000000000000815260040160405180910390fd5b919050565b60008060006006600085815260200190815260200160002090508092508254915050915091565b600073ffffffffffffffffffffffffffffffffffffffff8316925073ffffffffffffffffffffffffffffffffffffffff821691508382148383141790509392505050565b50505050565b60008060e883901c905060e8611dad8686846124ee565b62ffffff16901b9150509392505050565b600073ffffffffffffffffffffffffffffffffffffffff83169250814260a01b178317905092915050565b50505050565b60026009541415611e35576040517f08c379a0000000000000000000000000000000000000000000000000000000008152600401611e2c906131e1565b60405180910390fd5b6002600981905550600b5481611e4b91906133cf565b3414611e83576040517fc534702400000000000000000000000000000000000000000000000000000000815260040160405180910390fd5b6000601260003373ffffffffffffffffffffffffffffffffffffffff1673ffffffffffffffffffffffffffffffffffffffff16815260200190815260200160002054905060058282611ed591906132e7565b1115611f0d576040517f06f5d75400000000000000000000000000000000000000000000000000000000815260040160405180910390fd5b600f5482600e54611f1e91906132e7565b1115611f56576040517f47747fa900000000000000000000000000000000000000000000000000000000815260040160405180910390fd5b81600e600082825401925050819055508181611f7291906132e7565b601260003373ffffffffffffffffffffffffffffffffffffffff1673ffffffffffffffffffffffffffffffffffffffff16815260200190815260200160002081905550611fbf3383612316565b50600160098190555050565b60026009541415612011576040517f08c379a0000000000000000000000000000000000000000000000000000000008152600401612008906131e1565b60405180910390fd5b600260098190555060003414612053576040517fc534702400000000000000000000000000000000000000000000000000000000815260040160405180910390fd5b601160003373ffffffffffffffffffffffffffffffffffffffff1673ffffffffffffffffffffffffffffffffffffffff16815260200190815260200160002060009054906101000a900460ff16156120d7576040517f6f5aa9e400000000000000000000000000000000000000000000000000000000815260040160405180910390fd5b6001600e600082825401925050819055506001601160003373ffffffffffffffffffffffffffffffffffffffff1673ffffffffffffffffffffffffffffffffffffffff16815260200190815260200160002060006101000a81548160ff02191690831515021790555061214b336001612316565b6001600981905550565b61215d6124f7565b73ffffffffffffffffffffffffffffffffffffffff1661217b61131d565b73ffffffffffffffffffffffffffffffffffffffff16146121d1576040517f08c379a00000000000000000000000000000000000000000000000000000000081526004016121c890613475565b60405180910390fd5b565b6000600860009054906101000a900473ffffffffffffffffffffffffffffffffffffffff16905081600860006101000a81548173ffffffffffffffffffffffffffffffffffffffff021916908373ffffffffffffffffffffffffffffffffffffffff1602179055508173ffffffffffffffffffffffffffffffffffffffff168173ffffffffffffffffffffffffffffffffffffffff167f8be0079c531659141344cd1fd0a4f28419497f9722a3daafe3b4186f6b6457e060405160405180910390a35050565b600061230d848480806020026020016040519081016040528093929190818152602001838360200280828437600081840152601f19601f8201169050808301925050505050505083336040516020016122f291906134dd565b604051602081830303815290604052805190602001206124ff565b90509392505050565b612330828260405180602001604052806000815250612516565b5050565b60008373ffffffffffffffffffffffffffffffffffffffff1663150b7a0261235a611c46565b8786866040518563ffffffff1660e01b815260040161237c949392919061354d565b602060405180830381600087803b15801561239657600080fd5b505af19250505080156123c757506040513d601f19601f820116820180604052508101906123c491906135ae565b60015b612441573d80600081146123f7576040519150601f19603f3d011682016040523d82523d6000602084013e6123fc565b606091505b50600081511415612439576040517fd1a57ed600000000000000000000000000000000000000000000000000000000815260040160405180910390fd5b805181602001fd5b63150b7a0260e01b7bffffffffffffffffffffffffffffffffffffffffffffffffffffffff1916817bffffffffffffffffffffffffffffffffffffffffffffffffffffffff191614915050949350505050565b60606080604051019050806040528082600183039250600a81066030018353600a810490505b80156124da57600183039250600a81066030018353600a810490506124ba565b508181036020830392508083525050919050565b60009392505050565b600033905090565b60008261250c85846125b3565b1490509392505050565b6125208383612609565b60008373ffffffffffffffffffffffffffffffffffffffff163b146125ae57600080549050600083820390505b6125606000868380600101945086612334565b612596576040517fd1a57ed600000000000000000000000000000000000000000000000000000000815260040160405180910390fd5b81811061254d5781600054146125ab57600080fd5b50505b505050565b60008082905060005b84518110156125fe576125e9828683815181106125dc576125db6135db565b5b60200260200101516127c6565b915080806125f69061360a565b9150506125bc565b508091505092915050565b600080549050600082141561264a576040517fb562e8dd00000000000000000000000000000000000000000000000000000000815260040160405180910390fd5b6126576000848385611d90565b600160406001901b178202600560008573ffffffffffffffffffffffffffffffffffffffff1673ffffffffffffffffffffffffffffffffffffffff168152602001908152602001600020600082825401925050819055506126ce836126bf6000866000611d96565b6126c8856127f1565b17611dbe565b6004600083815260200190815260200160002081905550600080838301905073ffffffffffffffffffffffffffffffffffffffff85169150828260007fddf252ad1be2c89b69c2b068fc378daa952ba7f163c4a11628f55a4df523b3ef600080a4600183015b81811461276f57808360007fddf252ad1be2c89b69c2b068fc378daa952ba7f163c4a11628f55a4df523b3ef600080a4600181019050612734565b5060008214156127ab576040517f2e07630000000000000000000000000000000000000000000000000000000000815260040160405180910390fd5b8060008190555050506127c16000848385611de9565b505050565b60008183106127de576127d98284612801565b6127e9565b6127e88383612801565b5b905092915050565b60006001821460e11b9050919050565b600082600052816020526040600020905092915050565b82805461282490613163565b90600052602060002090601f016020900481019282612846576000855561288d565b82601f1061285f57805160ff191683800117855561288d565b8280016001018555821561288d579182015b8281111561288c578251825591602001919060010190612871565b5b50905061289a919061289e565b5090565b5b808211156128b757600081600090555060010161289f565b5090565b6000604051905090565b600080fd5b600080fd5b60007fffffffff0000000000000000000000000000000000000000000000000000000082169050919050565b612904816128cf565b811461290f57600080fd5b50565b600081359050612921816128fb565b92915050565b60006020828403121561293d5761293c6128c5565b5b600061294b84828501612912565b91505092915050565b60008115159050919050565b61296981612954565b82525050565b60006020820190506129846000830184612960565b92915050565b600081519050919050565b600082825260208201905092915050565b60005b838110156129c45780820151818401526020810190506129a9565b838111156129d3576000848401525b50505050565b6000601f19601f8301169050919050565b60006129f58261298a565b6129ff8185612995565b9350612a0f8185602086016129a6565b612a18816129d9565b840191505092915050565b60006020820190508181036000830152612a3d81846129ea565b905092915050565b6000819050919050565b612a5881612a45565b8114612a6357600080fd5b50565b600081359050612a7581612a4f565b92915050565b600060208284031215612a9157612a906128c5565b5b6000612a9f84828501612a66565b91505092915050565b600073ffffffffffffffffffffffffffffffffffffffff82169050919050565b6000612ad382612aa8565b9050919050565b612ae381612ac8565b82525050565b6000602082019050612afe6000830184612ada565b92915050565b612b0d81612ac8565b8114612b1857600080fd5b50565b600081359050612b2a81612b04565b92915050565b60008060408385031215612b4757612b466128c5565b5b6000612b5585828601612b1b565b9250506020612b6685828601612a66565b9150509250929050565b612b7981612a45565b82525050565b6000602082019050612b946000830184612b70565b92915050565b7f4e487b7100000000000000000000000000000000000000000000000000000000600052602160045260246000fd5b60038110612bda57612bd9612b9a565b5b50565b6000819050612beb82612bc9565b919050565b6000612bfb82612bdd565b9050919050565b612c0b81612bf0565b82525050565b6000602082019050612c266000830184612c02565b92915050565b600080600060608486031215612c4557612c446128c5565b5b6000612c5386828701612b1b565b9350506020612c6486828701612b1b565b9250506040612c7586828701612a66565b9150509250925092565b600060208284031215612c9557612c946128c5565b5b6000612ca384828501612b1b565b91505092915050565b6000819050919050565b612cbf81612cac565b8114612cca57600080fd5b50565b600081359050612cdc81612cb6565b92915050565b600060208284031215612cf857612cf76128c5565b5b6000612d0684828501612ccd565b91505092915050565b600080fd5b600080fd5b7f4e487b7100000000000000000000000000000000000000000000000000000000600052604160045260246000fd5b612d51826129d9565b810181811067ffffffffffffffff82111715612d7057612d6f612d19565b5b80604052505050565b6000612d836128bb565b9050612d8f8282612d48565b919050565b600067ffffffffffffffff821115612daf57612dae612d19565b5b612db8826129d9565b9050602081019050919050565b82818337600083830152505050565b6000612de7612de284612d94565b612d79565b905082815260208101848484011115612e0357612e02612d14565b5b612e0e848285612dc5565b509392505050565b600082601f830112612e2b57612e2a612d0f565b5b8135612e3b848260208601612dd4565b91505092915050565b600060208284031215612e5a57612e596128c5565b5b600082013567ffffffffffffffff811115612e7857612e776128ca565b5b612e8484828501612e16565b91505092915050565b612e9681612cac565b82525050565b6000602082019050612eb16000830184612e8d565b92915050565b600080fd5b600080fd5b60008083601f840112612ed757612ed6612d0f565b5b8235905067ffffffffffffffff811115612ef457612ef3612eb7565b5b602083019150836020820283011115612f1057612f0f612ebc565b5b9250929050565b60008060208385031215612f2e57612f2d6128c5565b5b600083013567ffffffffffffffff811115612f4c57612f4b6128ca565b5b612f5885828601612ec1565b92509250509250929050565b612f6d81612954565b8114612f7857600080fd5b50565b600081359050612f8a81612f64565b92915050565b60008060408385031215612fa757612fa66128c5565b5b6000612fb585828601612b1b565b9250506020612fc685828601612f7b565b9150509250929050565b600067ffffffffffffffff821115612feb57612fea612d19565b5b612ff4826129d9565b9050602081019050919050565b600061301461300f84612fd0565b612d79565b9050828152602081018484840111156130305761302f612d14565b5b61303b848285612dc5565b509392505050565b600082601f83011261305857613057612d0f565b5b8135613068848260208601613001565b91505092915050565b6000806000806080858703121561308b5761308a6128c5565b5b600061309987828801612b1b565b94505060206130aa87828801612b1b565b93505060406130bb87828801612a66565b925050606085013567ffffffffffffffff8111156130dc576130db6128ca565b5b6130e887828801613043565b91505092959194509250565b6000806040838503121561310b5761310a6128c5565b5b600061311985828601612b1b565b925050602061312a85828601612b1b565b9150509250929050565b7f4e487b7100000000000000000000000000000000000000000000000000000000600052602260045260246000fd5b6000600282049050600182168061317b57607f821691505b6020821081141561318f5761318e613134565b5b50919050565b7f5265656e7472616e637947756172643a207265656e7472616e742063616c6c00600082015250565b60006131cb601f83612995565b91506131d682613195565b602082019050919050565b600060208201905081810360008301526131fa816131be565b9050919050565b600081905092915050565b60006132178261298a565b6132218185613201565b93506132318185602086016129a6565b80840191505092915050565b7f2e6a736f6e000000000000000000000000000000000000000000000000000000600082015250565b6000613273600583613201565b915061327e8261323d565b600582019050919050565b6000613295828561320c565b91506132a1828461320c565b91506132ac82613266565b91508190509392505050565b7f4e487b7100000000000000000000000000000000000000000000000000000000600052601160045260246000fd5b60006132f282612a45565b91506132fd83612a45565b9250827fffffffffffffffffffffffffffffffffffffffffffffffffffffffffffffffff03821115613332576133316132b8565b5b828201905092915050565b7f4f776e61626c653a206e6577206f776e657220697320746865207a65726f206160008201527f6464726573730000000000000000000000000000000000000000000000000000602082015250565b6000613399602683612995565b91506133a48261333d565b604082019050919050565b600060208201905081810360008301526133c88161338c565b9050919050565b60006133da82612a45565b91506133e583612a45565b9250817fffffffffffffffffffffffffffffffffffffffffffffffffffffffffffffffff048311821515161561341e5761341d6132b8565b5b828202905092915050565b7f4f776e61626c653a2063616c6c6572206973206e6f7420746865206f776e6572600082015250565b600061345f602083612995565b915061346a82613429565b602082019050919050565b6000602082019050818103600083015261348e81613452565b9050919050565b60008160601b9050919050565b60006134ad82613495565b9050919050565b60006134bf826134a2565b9050919050565b6134d76134d282612ac8565b6134b4565b82525050565b60006134e982846134c6565b60148201915081905092915050565b600081519050919050565b600082825260208201905092915050565b600061351f826134f8565b6135298185613503565b93506135398185602086016129a6565b613542816129d9565b840191505092915050565b60006080820190506135626000830187612ada565b61356f6020830186612ada565b61357c6040830185612b70565b818103606083015261358e8184613514565b905095945050505050565b6000815190506135a8816128fb565b92915050565b6000602082840312156135c4576135c36128c5565b5b60006135d284828501613599565b91505092915050565b7f4e487b7100000000000000000000000000000000000000000000000000000000600052603260045260246000fd5b600061361582612a45565b91507fffffffffffffffffffffffffffffffffffffffffffffffffffffffffffffffff821415613648576136476132b8565b5b60018201905091905056fea26469706673582212201c7f75e2623cce7a765c2260272e1d9aea9ef2272933391fe63fac0bea02074964736f6c63430008090033",
          "opcodes": "PUSH1 0x80 PUSH1 0x40 MSTORE PUSH2 0x115C PUSH1 0xF SSTORE CALLVALUE DUP1 ISZERO PUSH3 0x17 JUMPI PUSH1 0x0 DUP1 REVERT JUMPDEST POP PUSH1 0x40 MLOAD DUP1 PUSH1 0x40 ADD PUSH1 0x40 MSTORE DUP1 PUSH1 0x9 DUP2 MSTORE PUSH1 0x20 ADD PUSH32 0x4E6F74204D616669610000000000000000000000000000000000000000000000 DUP2 MSTORE POP PUSH1 0x40 MLOAD DUP1 PUSH1 0x40 ADD PUSH1 0x40 MSTORE DUP1 PUSH1 0x4 DUP2 MSTORE PUSH1 0x20 ADD PUSH32 0x4E544D4600000000000000000000000000000000000000000000000000000000 DUP2 MSTORE POP DUP2 PUSH1 0x2 SWAP1 DUP1 MLOAD SWAP1 PUSH1 0x20 ADD SWAP1 PUSH3 0x9C SWAP3 SWAP2 SWAP1 PUSH3 0x217 JUMP JUMPDEST POP DUP1 PUSH1 0x3 SWAP1 DUP1 MLOAD SWAP1 PUSH1 0x20 ADD SWAP1 PUSH3 0xB5 SWAP3 SWAP2 SWAP1 PUSH3 0x217 JUMP JUMPDEST POP PUSH3 0xC6 PUSH3 0x140 PUSH1 0x20 SHL PUSH1 0x20 SHR JUMP JUMPDEST PUSH1 0x0 DUP2 SWAP1 SSTORE POP POP POP PUSH3 0xEE PUSH3 0xE2 PUSH3 0x149 PUSH1 0x20 SHL PUSH1 0x20 SHR JUMP JUMPDEST PUSH3 0x151 PUSH1 0x20 SHL PUSH1 0x20 SHR JUMP JUMPDEST PUSH1 0x1 PUSH1 0x9 DUP2 SWAP1 SSTORE POP PUSH1 0x0 PUSH1 0xA PUSH1 0x0 PUSH2 0x100 EXP DUP2 SLOAD DUP2 PUSH1 0xFF MUL NOT AND SWAP1 DUP4 PUSH1 0x2 DUP2 GT ISZERO PUSH3 0x11F JUMPI PUSH3 0x11E PUSH3 0x2C7 JUMP JUMPDEST JUMPDEST MUL OR SWAP1 SSTORE POP PUSH7 0x1EDF824B192000 PUSH1 0xB DUP2 SWAP1 SSTORE POP PUSH1 0x1 PUSH1 0xE DUP2 SWAP1 SSTORE POP PUSH3 0x35B JUMP JUMPDEST PUSH1 0x0 PUSH1 0x1 SWAP1 POP SWAP1 JUMP JUMPDEST PUSH1 0x0 CALLER SWAP1 POP SWAP1 JUMP JUMPDEST PUSH1 0x0 PUSH1 0x8 PUSH1 0x0 SWAP1 SLOAD SWAP1 PUSH2 0x100 EXP SWAP1 DIV PUSH20 0xFFFFFFFFFFFFFFFFFFFFFFFFFFFFFFFFFFFFFFFF AND SWAP1 POP DUP2 PUSH1 0x8 PUSH1 0x0 PUSH2 0x100 EXP DUP2 SLOAD DUP2 PUSH20 0xFFFFFFFFFFFFFFFFFFFFFFFFFFFFFFFFFFFFFFFF MUL NOT AND SWAP1 DUP4 PUSH20 0xFFFFFFFFFFFFFFFFFFFFFFFFFFFFFFFFFFFFFFFF AND MUL OR SWAP1 SSTORE POP DUP2 PUSH20 0xFFFFFFFFFFFFFFFFFFFFFFFFFFFFFFFFFFFFFFFF AND DUP2 PUSH20 0xFFFFFFFFFFFFFFFFFFFFFFFFFFFFFFFFFFFFFFFF AND PUSH32 0x8BE0079C531659141344CD1FD0A4F28419497F9722A3DAAFE3B4186F6B6457E0 PUSH1 0x40 MLOAD PUSH1 0x40 MLOAD DUP1 SWAP2 SUB SWAP1 LOG3 POP POP JUMP JUMPDEST DUP3 DUP1 SLOAD PUSH3 0x225 SWAP1 PUSH3 0x325 JUMP JUMPDEST SWAP1 PUSH1 0x0 MSTORE PUSH1 0x20 PUSH1 0x0 KECCAK256 SWAP1 PUSH1 0x1F ADD PUSH1 0x20 SWAP1 DIV DUP2 ADD SWAP3 DUP3 PUSH3 0x249 JUMPI PUSH1 0x0 DUP6 SSTORE PUSH3 0x295 JUMP JUMPDEST DUP3 PUSH1 0x1F LT PUSH3 0x264 JUMPI DUP1 MLOAD PUSH1 0xFF NOT AND DUP4 DUP1 ADD OR DUP6 SSTORE PUSH3 0x295 JUMP JUMPDEST DUP3 DUP1 ADD PUSH1 0x1 ADD DUP6 SSTORE DUP3 ISZERO PUSH3 0x295 JUMPI SWAP2 DUP3 ADD JUMPDEST DUP3 DUP2 GT ISZERO PUSH3 0x294 JUMPI DUP3 MLOAD DUP3 SSTORE SWAP2 PUSH1 0x20 ADD SWAP2 SWAP1 PUSH1 0x1 ADD SWAP1 PUSH3 0x277 JUMP JUMPDEST JUMPDEST POP SWAP1 POP PUSH3 0x2A4 SWAP2 SWAP1 PUSH3 0x2A8 JUMP JUMPDEST POP SWAP1 JUMP JUMPDEST JUMPDEST DUP1 DUP3 GT ISZERO PUSH3 0x2C3 JUMPI PUSH1 0x0 DUP2 PUSH1 0x0 SWAP1 SSTORE POP PUSH1 0x1 ADD PUSH3 0x2A9 JUMP JUMPDEST POP SWAP1 JUMP JUMPDEST PUSH32 0x4E487B7100000000000000000000000000000000000000000000000000000000 PUSH1 0x0 MSTORE PUSH1 0x21 PUSH1 0x4 MSTORE PUSH1 0x24 PUSH1 0x0 REVERT JUMPDEST PUSH32 0x4E487B7100000000000000000000000000000000000000000000000000000000 PUSH1 0x0 MSTORE PUSH1 0x22 PUSH1 0x4 MSTORE PUSH1 0x24 PUSH1 0x0 REVERT JUMPDEST PUSH1 0x0 PUSH1 0x2 DUP3 DIV SWAP1 POP PUSH1 0x1 DUP3 AND DUP1 PUSH3 0x33E JUMPI PUSH1 0x7F DUP3 AND SWAP2 POP JUMPDEST PUSH1 0x20 DUP3 LT DUP2 EQ ISZERO PUSH3 0x355 JUMPI PUSH3 0x354 PUSH3 0x2F6 JUMP JUMPDEST JUMPDEST POP SWAP2 SWAP1 POP JUMP JUMPDEST PUSH2 0x3689 DUP1 PUSH3 0x36B PUSH1 0x0 CODECOPY PUSH1 0x0 RETURN INVALID PUSH1 0x80 PUSH1 0x40 MSTORE PUSH1 0x4 CALLDATASIZE LT PUSH2 0x1F9 JUMPI PUSH1 0x0 CALLDATALOAD PUSH1 0xE0 SHR DUP1 PUSH4 0x69BA1A75 GT PUSH2 0x10D JUMPI DUP1 PUSH4 0xA035B1FE GT PUSH2 0xA0 JUMPI DUP1 PUSH4 0xE985E9C5 GT PUSH2 0x6F JUMPI DUP1 PUSH4 0xE985E9C5 EQ PUSH2 0x710 JUMPI DUP1 PUSH4 0xF19E75D4 EQ PUSH2 0x74D JUMPI DUP1 PUSH4 0xF2FDE38B EQ PUSH2 0x776 JUMPI DUP1 PUSH4 0xF524D6CD EQ PUSH2 0x79F JUMPI DUP1 PUSH4 0xF7EA7A3D EQ PUSH2 0x7DC JUMPI PUSH2 0x1F9 JUMP JUMPDEST DUP1 PUSH4 0xA035B1FE EQ PUSH2 0x656 JUMPI DUP1 PUSH4 0xA22CB465 EQ PUSH2 0x681 JUMPI DUP1 PUSH4 0xB88D4FDE EQ PUSH2 0x6AA JUMPI DUP1 PUSH4 0xC87B56DD EQ PUSH2 0x6D3 JUMPI PUSH2 0x1F9 JUMP JUMPDEST DUP1 PUSH4 0x8DA5CB5B GT PUSH2 0xDC JUMPI DUP1 PUSH4 0x8DA5CB5B EQ PUSH2 0x5AE JUMPI DUP1 PUSH4 0x91B7F5ED EQ PUSH2 0x5D9 JUMPI DUP1 PUSH4 0x95D89B41 EQ PUSH2 0x602 JUMPI DUP1 PUSH4 0x97254E55 EQ PUSH2 0x62D JUMPI PUSH2 0x1F9 JUMP JUMPDEST DUP1 PUSH4 0x69BA1A75 EQ PUSH2 0x506 JUMPI DUP1 PUSH4 0x6C0360EB EQ PUSH2 0x52F JUMPI DUP1 PUSH4 0x70A08231 EQ PUSH2 0x55A JUMPI DUP1 PUSH4 0x715018A6 EQ PUSH2 0x597 JUMPI PUSH2 0x1F9 JUMP JUMPDEST DUP1 PUSH4 0x374BC20B GT PUSH2 0x190 JUMPI DUP1 PUSH4 0x4D721690 GT PUSH2 0x15F JUMPI DUP1 PUSH4 0x4D721690 EQ PUSH2 0x40D JUMPI DUP1 PUSH4 0x55F804B3 EQ PUSH2 0x44A JUMPI DUP1 PUSH4 0x56189236 EQ PUSH2 0x473 JUMPI DUP1 PUSH4 0x6352211E EQ PUSH2 0x49E JUMPI DUP1 PUSH4 0x65F4FD12 EQ PUSH2 0x4DB JUMPI PUSH2 0x1F9 JUMP JUMPDEST DUP1 PUSH4 0x374BC20B EQ PUSH2 0x367 JUMPI DUP1 PUSH4 0x3CCFD60B EQ PUSH2 0x3A4 JUMPI DUP1 PUSH4 0x42842E0E EQ PUSH2 0x3BB JUMPI DUP1 PUSH4 0x45149BB3 EQ PUSH2 0x3E4 JUMPI PUSH2 0x1F9 JUMP JUMPDEST DUP1 PUSH4 0x18160DDD GT PUSH2 0x1CC JUMPI DUP1 PUSH4 0x18160DDD EQ PUSH2 0x2CC JUMPI DUP1 PUSH4 0x200D2ED2 EQ PUSH2 0x2F7 JUMPI DUP1 PUSH4 0x23B872DD EQ PUSH2 0x322 JUMPI DUP1 PUSH4 0x2DB11544 EQ PUSH2 0x34B JUMPI PUSH2 0x1F9 JUMP JUMPDEST DUP1 PUSH4 0x1FFC9A7 EQ PUSH2 0x1FE JUMPI DUP1 PUSH4 0x6FDDE03 EQ PUSH2 0x23B JUMPI DUP1 PUSH4 0x81812FC EQ PUSH2 0x266 JUMPI DUP1 PUSH4 0x95EA7B3 EQ PUSH2 0x2A3 JUMPI JUMPDEST PUSH1 0x0 DUP1 REVERT JUMPDEST CALLVALUE DUP1 ISZERO PUSH2 0x20A JUMPI PUSH1 0x0 DUP1 REVERT JUMPDEST POP PUSH2 0x225 PUSH1 0x4 DUP1 CALLDATASIZE SUB DUP2 ADD SWAP1 PUSH2 0x220 SWAP2 SWAP1 PUSH2 0x2927 JUMP JUMPDEST PUSH2 0x805 JUMP JUMPDEST PUSH1 0x40 MLOAD PUSH2 0x232 SWAP2 SWAP1 PUSH2 0x296F JUMP JUMPDEST PUSH1 0x40 MLOAD DUP1 SWAP2 SUB SWAP1 RETURN JUMPDEST CALLVALUE DUP1 ISZERO PUSH2 0x247 JUMPI PUSH1 0x0 DUP1 REVERT JUMPDEST POP PUSH2 0x250 PUSH2 0x897 JUMP JUMPDEST PUSH1 0x40 MLOAD PUSH2 0x25D SWAP2 SWAP1 PUSH2 0x2A23 JUMP JUMPDEST PUSH1 0x40 MLOAD DUP1 SWAP2 SUB SWAP1 RETURN JUMPDEST CALLVALUE DUP1 ISZERO PUSH2 0x272 JUMPI PUSH1 0x0 DUP1 REVERT JUMPDEST POP PUSH2 0x28D PUSH1 0x4 DUP1 CALLDATASIZE SUB DUP2 ADD SWAP1 PUSH2 0x288 SWAP2 SWAP1 PUSH2 0x2A7B JUMP JUMPDEST PUSH2 0x929 JUMP JUMPDEST PUSH1 0x40 MLOAD PUSH2 0x29A SWAP2 SWAP1 PUSH2 0x2AE9 JUMP JUMPDEST PUSH1 0x40 MLOAD DUP1 SWAP2 SUB SWAP1 RETURN JUMPDEST CALLVALUE DUP1 ISZERO PUSH2 0x2AF JUMPI PUSH1 0x0 DUP1 REVERT JUMPDEST POP PUSH2 0x2CA PUSH1 0x4 DUP1 CALLDATASIZE SUB DUP2 ADD SWAP1 PUSH2 0x2C5 SWAP2 SWAP1 PUSH2 0x2B30 JUMP JUMPDEST PUSH2 0x9A8 JUMP JUMPDEST STOP JUMPDEST CALLVALUE DUP1 ISZERO PUSH2 0x2D8 JUMPI PUSH1 0x0 DUP1 REVERT JUMPDEST POP PUSH2 0x2E1 PUSH2 0xAEC JUMP JUMPDEST PUSH1 0x40 MLOAD PUSH2 0x2EE SWAP2 SWAP1 PUSH2 0x2B7F JUMP JUMPDEST PUSH1 0x40 MLOAD DUP1 SWAP2 SUB SWAP1 RETURN JUMPDEST CALLVALUE DUP1 ISZERO PUSH2 0x303 JUMPI PUSH1 0x0 DUP1 REVERT JUMPDEST POP PUSH2 0x30C PUSH2 0xB03 JUMP JUMPDEST PUSH1 0x40 MLOAD PUSH2 0x319 SWAP2 SWAP1 PUSH2 0x2C11 JUMP JUMPDEST PUSH1 0x40 MLOAD DUP1 SWAP2 SUB SWAP1 RETURN JUMPDEST CALLVALUE DUP1 ISZERO PUSH2 0x32E JUMPI PUSH1 0x0 DUP1 REVERT JUMPDEST POP PUSH2 0x349 PUSH1 0x4 DUP1 CALLDATASIZE SUB DUP2 ADD SWAP1 PUSH2 0x344 SWAP2 SWAP1 PUSH2 0x2C2C JUMP JUMPDEST PUSH2 0xB16 JUMP JUMPDEST STOP JUMPDEST PUSH2 0x365 PUSH1 0x4 DUP1 CALLDATASIZE SUB DUP2 ADD SWAP1 PUSH2 0x360 SWAP2 SWAP1 PUSH2 0x2A7B JUMP JUMPDEST PUSH2 0xE3B JUMP JUMPDEST STOP JUMPDEST CALLVALUE DUP1 ISZERO PUSH2 0x373 JUMPI PUSH1 0x0 DUP1 REVERT JUMPDEST POP PUSH2 0x38E PUSH1 0x4 DUP1 CALLDATASIZE SUB DUP2 ADD SWAP1 PUSH2 0x389 SWAP2 SWAP1 PUSH2 0x2C7F JUMP JUMPDEST PUSH2 0xF88 JUMP JUMPDEST PUSH1 0x40 MLOAD PUSH2 0x39B SWAP2 SWAP1 PUSH2 0x296F JUMP JUMPDEST PUSH1 0x40 MLOAD DUP1 SWAP2 SUB SWAP1 RETURN JUMPDEST CALLVALUE DUP1 ISZERO PUSH2 0x3B0 JUMPI PUSH1 0x0 DUP1 REVERT JUMPDEST POP PUSH2 0x3B9 PUSH2 0xFDE JUMP JUMPDEST STOP JUMPDEST CALLVALUE DUP1 ISZERO PUSH2 0x3C7 JUMPI PUSH1 0x0 DUP1 REVERT JUMPDEST POP PUSH2 0x3E2 PUSH1 0x4 DUP1 CALLDATASIZE SUB DUP2 ADD SWAP1 PUSH2 0x3DD SWAP2 SWAP1 PUSH2 0x2C2C JUMP JUMPDEST PUSH2 0x1085 JUMP JUMPDEST STOP JUMPDEST CALLVALUE DUP1 ISZERO PUSH2 0x3F0 JUMPI PUSH1 0x0 DUP1 REVERT JUMPDEST POP PUSH2 0x40B PUSH1 0x4 DUP1 CALLDATASIZE SUB DUP2 ADD SWAP1 PUSH2 0x406 SWAP2 SWAP1 PUSH2 0x2CE2 JUMP JUMPDEST PUSH2 0x10A5 JUMP JUMPDEST STOP JUMPDEST CALLVALUE DUP1 ISZERO PUSH2 0x419 JUMPI PUSH1 0x0 DUP1 REVERT JUMPDEST POP PUSH2 0x434 PUSH1 0x4 DUP1 CALLDATASIZE SUB DUP2 ADD SWAP1 PUSH2 0x42F SWAP2 SWAP1 PUSH2 0x2C7F JUMP JUMPDEST PUSH2 0x10B7 JUMP JUMPDEST PUSH1 0x40 MLOAD PUSH2 0x441 SWAP2 SWAP1 PUSH2 0x2B7F JUMP JUMPDEST PUSH1 0x40 MLOAD DUP1 SWAP2 SUB SWAP1 RETURN JUMPDEST CALLVALUE DUP1 ISZERO PUSH2 0x456 JUMPI PUSH1 0x0 DUP1 REVERT JUMPDEST POP PUSH2 0x471 PUSH1 0x4 DUP1 CALLDATASIZE SUB DUP2 ADD SWAP1 PUSH2 0x46C SWAP2 SWAP1 PUSH2 0x2E44 JUMP JUMPDEST PUSH2 0x1100 JUMP JUMPDEST STOP JUMPDEST CALLVALUE DUP1 ISZERO PUSH2 0x47F JUMPI PUSH1 0x0 DUP1 REVERT JUMPDEST POP PUSH2 0x488 PUSH2 0x1122 JUMP JUMPDEST PUSH1 0x40 MLOAD PUSH2 0x495 SWAP2 SWAP1 PUSH2 0x2B7F JUMP JUMPDEST PUSH1 0x40 MLOAD DUP1 SWAP2 SUB SWAP1 RETURN JUMPDEST CALLVALUE DUP1 ISZERO PUSH2 0x4AA JUMPI PUSH1 0x0 DUP1 REVERT JUMPDEST POP PUSH2 0x4C5 PUSH1 0x4 DUP1 CALLDATASIZE SUB DUP2 ADD SWAP1 PUSH2 0x4C0 SWAP2 SWAP1 PUSH2 0x2A7B JUMP JUMPDEST PUSH2 0x112C JUMP JUMPDEST PUSH1 0x40 MLOAD PUSH2 0x4D2 SWAP2 SWAP1 PUSH2 0x2AE9 JUMP JUMPDEST PUSH1 0x40 MLOAD DUP1 SWAP2 SUB SWAP1 RETURN JUMPDEST CALLVALUE DUP1 ISZERO PUSH2 0x4E7 JUMPI PUSH1 0x0 DUP1 REVERT JUMPDEST POP PUSH2 0x4F0 PUSH2 0x113E JUMP JUMPDEST PUSH1 0x40 MLOAD PUSH2 0x4FD SWAP2 SWAP1 PUSH2 0x2E9C JUMP JUMPDEST PUSH1 0x40 MLOAD DUP1 SWAP2 SUB SWAP1 RETURN JUMPDEST CALLVALUE DUP1 ISZERO PUSH2 0x512 JUMPI PUSH1 0x0 DUP1 REVERT JUMPDEST POP PUSH2 0x52D PUSH1 0x4 DUP1 CALLDATASIZE SUB DUP2 ADD SWAP1 PUSH2 0x528 SWAP2 SWAP1 PUSH2 0x2A7B JUMP JUMPDEST PUSH2 0x1144 JUMP JUMPDEST STOP JUMPDEST CALLVALUE DUP1 ISZERO PUSH2 0x53B JUMPI PUSH1 0x0 DUP1 REVERT JUMPDEST POP PUSH2 0x544 PUSH2 0x11C2 JUMP JUMPDEST PUSH1 0x40 MLOAD PUSH2 0x551 SWAP2 SWAP1 PUSH2 0x2A23 JUMP JUMPDEST PUSH1 0x40 MLOAD DUP1 SWAP2 SUB SWAP1 RETURN JUMPDEST CALLVALUE DUP1 ISZERO PUSH2 0x566 JUMPI PUSH1 0x0 DUP1 REVERT JUMPDEST POP PUSH2 0x581 PUSH1 0x4 DUP1 CALLDATASIZE SUB DUP2 ADD SWAP1 PUSH2 0x57C SWAP2 SWAP1 PUSH2 0x2C7F JUMP JUMPDEST PUSH2 0x1250 JUMP JUMPDEST PUSH1 0x40 MLOAD PUSH2 0x58E SWAP2 SWAP1 PUSH2 0x2B7F JUMP JUMPDEST PUSH1 0x40 MLOAD DUP1 SWAP2 SUB SWAP1 RETURN JUMPDEST CALLVALUE DUP1 ISZERO PUSH2 0x5A3 JUMPI PUSH1 0x0 DUP1 REVERT JUMPDEST POP PUSH2 0x5AC PUSH2 0x1309 JUMP JUMPDEST STOP JUMPDEST CALLVALUE DUP1 ISZERO PUSH2 0x5BA JUMPI PUSH1 0x0 DUP1 REVERT JUMPDEST POP PUSH2 0x5C3 PUSH2 0x131D JUMP JUMPDEST PUSH1 0x40 MLOAD PUSH2 0x5D0 SWAP2 SWAP1 PUSH2 0x2AE9 JUMP JUMPDEST PUSH1 0x40 MLOAD DUP1 SWAP2 SUB SWAP1 RETURN JUMPDEST CALLVALUE DUP1 ISZERO PUSH2 0x5E5 JUMPI PUSH1 0x0 DUP1 REVERT JUMPDEST POP PUSH2 0x600 PUSH1 0x4 DUP1 CALLDATASIZE SUB DUP2 ADD SWAP1 PUSH2 0x5FB SWAP2 SWAP1 PUSH2 0x2A7B JUMP JUMPDEST PUSH2 0x1347 JUMP JUMPDEST STOP JUMPDEST CALLVALUE DUP1 ISZERO PUSH2 0x60E JUMPI PUSH1 0x0 DUP1 REVERT JUMPDEST POP PUSH2 0x617 PUSH2 0x1359 JUMP JUMPDEST PUSH1 0x40 MLOAD PUSH2 0x624 SWAP2 SWAP1 PUSH2 0x2A23 JUMP JUMPDEST PUSH1 0x40 MLOAD DUP1 SWAP2 SUB SWAP1 RETURN JUMPDEST CALLVALUE DUP1 ISZERO PUSH2 0x639 JUMPI PUSH1 0x0 DUP1 REVERT JUMPDEST POP PUSH2 0x654 PUSH1 0x4 DUP1 CALLDATASIZE SUB DUP2 ADD SWAP1 PUSH2 0x64F SWAP2 SWAP1 PUSH2 0x2F17 JUMP JUMPDEST PUSH2 0x13EB JUMP JUMPDEST STOP JUMPDEST CALLVALUE DUP1 ISZERO PUSH2 0x662 JUMPI PUSH1 0x0 DUP1 REVERT JUMPDEST POP PUSH2 0x66B PUSH2 0x1690 JUMP JUMPDEST PUSH1 0x40 MLOAD PUSH2 0x678 SWAP2 SWAP1 PUSH2 0x2B7F JUMP JUMPDEST PUSH1 0x40 MLOAD DUP1 SWAP2 SUB SWAP1 RETURN JUMPDEST CALLVALUE DUP1 ISZERO PUSH2 0x68D JUMPI PUSH1 0x0 DUP1 REVERT JUMPDEST POP PUSH2 0x6A8 PUSH1 0x4 DUP1 CALLDATASIZE SUB DUP2 ADD SWAP1 PUSH2 0x6A3 SWAP2 SWAP1 PUSH2 0x2F90 JUMP JUMPDEST PUSH2 0x1696 JUMP JUMPDEST STOP JUMPDEST CALLVALUE DUP1 ISZERO PUSH2 0x6B6 JUMPI PUSH1 0x0 DUP1 REVERT JUMPDEST POP PUSH2 0x6D1 PUSH1 0x4 DUP1 CALLDATASIZE SUB DUP2 ADD SWAP1 PUSH2 0x6CC SWAP2 SWAP1 PUSH2 0x3071 JUMP JUMPDEST PUSH2 0x180E JUMP JUMPDEST STOP JUMPDEST CALLVALUE DUP1 ISZERO PUSH2 0x6DF JUMPI PUSH1 0x0 DUP1 REVERT JUMPDEST POP PUSH2 0x6FA PUSH1 0x4 DUP1 CALLDATASIZE SUB DUP2 ADD SWAP1 PUSH2 0x6F5 SWAP2 SWAP1 PUSH2 0x2A7B JUMP JUMPDEST PUSH2 0x1881 JUMP JUMPDEST PUSH1 0x40 MLOAD PUSH2 0x707 SWAP2 SWAP1 PUSH2 0x2A23 JUMP JUMPDEST PUSH1 0x40 MLOAD DUP1 SWAP2 SUB SWAP1 RETURN JUMPDEST CALLVALUE DUP1 ISZERO PUSH2 0x71C JUMPI PUSH1 0x0 DUP1 REVERT JUMPDEST POP PUSH2 0x737 PUSH1 0x4 DUP1 CALLDATASIZE SUB DUP2 ADD SWAP1 PUSH2 0x732 SWAP2 SWAP1 PUSH2 0x30F4 JUMP JUMPDEST PUSH2 0x19A3 JUMP JUMPDEST PUSH1 0x40 MLOAD PUSH2 0x744 SWAP2 SWAP1 PUSH2 0x296F JUMP JUMPDEST PUSH1 0x40 MLOAD DUP1 SWAP2 SUB SWAP1 RETURN JUMPDEST CALLVALUE DUP1 ISZERO PUSH2 0x759 JUMPI PUSH1 0x0 DUP1 REVERT JUMPDEST POP PUSH2 0x774 PUSH1 0x4 DUP1 CALLDATASIZE SUB DUP2 ADD SWAP1 PUSH2 0x76F SWAP2 SWAP1 PUSH2 0x2A7B JUMP JUMPDEST PUSH2 0x1A37 JUMP JUMPDEST STOP JUMPDEST CALLVALUE DUP1 ISZERO PUSH2 0x782 JUMPI PUSH1 0x0 DUP1 REVERT JUMPDEST POP PUSH2 0x79D PUSH1 0x4 DUP1 CALLDATASIZE SUB DUP2 ADD SWAP1 PUSH2 0x798 SWAP2 SWAP1 PUSH2 0x2C7F JUMP JUMPDEST PUSH2 0x1AFB JUMP JUMPDEST STOP JUMPDEST CALLVALUE DUP1 ISZERO PUSH2 0x7AB JUMPI PUSH1 0x0 DUP1 REVERT JUMPDEST POP PUSH2 0x7C6 PUSH1 0x4 DUP1 CALLDATASIZE SUB DUP2 ADD SWAP1 PUSH2 0x7C1 SWAP2 SWAP1 PUSH2 0x2C7F JUMP JUMPDEST PUSH2 0x1B7F JUMP JUMPDEST PUSH1 0x40 MLOAD PUSH2 0x7D3 SWAP2 SWAP1 PUSH2 0x296F JUMP JUMPDEST PUSH1 0x40 MLOAD DUP1 SWAP2 SUB SWAP1 RETURN JUMPDEST CALLVALUE DUP1 ISZERO PUSH2 0x7E8 JUMPI PUSH1 0x0 DUP1 REVERT JUMPDEST POP PUSH2 0x803 PUSH1 0x4 DUP1 CALLDATASIZE SUB DUP2 ADD SWAP1 PUSH2 0x7FE SWAP2 SWAP1 PUSH2 0x2A7B JUMP JUMPDEST PUSH2 0x1BD5 JUMP JUMPDEST STOP JUMPDEST PUSH1 0x0 PUSH4 0x1FFC9A7 PUSH1 0xE0 SHL DUP3 PUSH28 0xFFFFFFFFFFFFFFFFFFFFFFFFFFFFFFFFFFFFFFFFFFFFFFFFFFFFFFFF NOT AND EQ DUP1 PUSH2 0x860 JUMPI POP PUSH4 0x80AC58CD PUSH1 0xE0 SHL DUP3 PUSH28 0xFFFFFFFFFFFFFFFFFFFFFFFFFFFFFFFFFFFFFFFFFFFFFFFFFFFFFFFF NOT AND EQ JUMPDEST DUP1 PUSH2 0x890 JUMPI POP PUSH4 0x5B5E139F PUSH1 0xE0 SHL DUP3 PUSH28 0xFFFFFFFFFFFFFFFFFFFFFFFFFFFFFFFFFFFFFFFFFFFFFFFFFFFFFFFF NOT AND EQ JUMPDEST SWAP1 POP SWAP2 SWAP1 POP JUMP JUMPDEST PUSH1 0x60 PUSH1 0x2 DUP1 SLOAD PUSH2 0x8A6 SWAP1 PUSH2 0x3163 JUMP JUMPDEST DUP1 PUSH1 0x1F ADD PUSH1 0x20 DUP1 SWAP2 DIV MUL PUSH1 0x20 ADD PUSH1 0x40 MLOAD SWAP1 DUP2 ADD PUSH1 0x40 MSTORE DUP1 SWAP3 SWAP2 SWAP1 DUP2 DUP2 MSTORE PUSH1 0x20 ADD DUP3 DUP1 SLOAD PUSH2 0x8D2 SWAP1 PUSH2 0x3163 JUMP JUMPDEST DUP1 ISZERO PUSH2 0x91F JUMPI DUP1 PUSH1 0x1F LT PUSH2 0x8F4 JUMPI PUSH2 0x100 DUP1 DUP4 SLOAD DIV MUL DUP4 MSTORE SWAP2 PUSH1 0x20 ADD SWAP2 PUSH2 0x91F JUMP JUMPDEST DUP3 ADD SWAP2 SWAP1 PUSH1 0x0 MSTORE PUSH1 0x20 PUSH1 0x0 KECCAK256 SWAP1 JUMPDEST DUP2 SLOAD DUP2 MSTORE SWAP1 PUSH1 0x1 ADD SWAP1 PUSH1 0x20 ADD DUP1 DUP4 GT PUSH2 0x902 JUMPI DUP3 SWAP1 SUB PUSH1 0x1F AND DUP3 ADD SWAP2 JUMPDEST POP POP POP POP POP SWAP1 POP SWAP1 JUMP JUMPDEST PUSH1 0x0 PUSH2 0x934 DUP3 PUSH2 0x1BE7 JUMP JUMPDEST PUSH2 0x96A JUMPI PUSH1 0x40 MLOAD PUSH32 0xCF4700E400000000000000000000000000000000000000000000000000000000 DUP2 MSTORE PUSH1 0x4 ADD PUSH1 0x40 MLOAD DUP1 SWAP2 SUB SWAP1 REVERT JUMPDEST PUSH1 0x6 PUSH1 0x0 DUP4 DUP2 MSTORE PUSH1 0x20 ADD SWAP1 DUP2 MSTORE PUSH1 0x20 ADD PUSH1 0x0 KECCAK256 PUSH1 0x0 ADD PUSH1 0x0 SWAP1 SLOAD SWAP1 PUSH2 0x100 EXP SWAP1 DIV PUSH20 0xFFFFFFFFFFFFFFFFFFFFFFFFFFFFFFFFFFFFFFFF AND SWAP1 POP SWAP2 SWAP1 POP JUMP JUMPDEST PUSH1 0x0 PUSH2 0x9B3 DUP3 PUSH2 0x112C JUMP JUMPDEST SWAP1 POP DUP1 PUSH20 0xFFFFFFFFFFFFFFFFFFFFFFFFFFFFFFFFFFFFFFFF AND PUSH2 0x9D4 PUSH2 0x1C46 JUMP JUMPDEST PUSH20 0xFFFFFFFFFFFFFFFFFFFFFFFFFFFFFFFFFFFFFFFF AND EQ PUSH2 0xA37 JUMPI PUSH2 0xA00 DUP2 PUSH2 0x9FB PUSH2 0x1C46 JUMP JUMPDEST PUSH2 0x19A3 JUMP JUMPDEST PUSH2 0xA36 JUMPI PUSH1 0x40 MLOAD PUSH32 0xCFB3B94200000000000000000000000000000000000000000000000000000000 DUP2 MSTORE PUSH1 0x4 ADD PUSH1 0x40 MLOAD DUP1 SWAP2 SUB SWAP1 REVERT JUMPDEST JUMPDEST DUP3 PUSH1 0x6 PUSH1 0x0 DUP5 DUP2 MSTORE PUSH1 0x20 ADD SWAP1 DUP2 MSTORE PUSH1 0x20 ADD PUSH1 0x0 KECCAK256 PUSH1 0x0 ADD PUSH1 0x0 PUSH2 0x100 EXP DUP2 SLOAD DUP2 PUSH20 0xFFFFFFFFFFFFFFFFFFFFFFFFFFFFFFFFFFFFFFFF MUL NOT AND SWAP1 DUP4 PUSH20 0xFFFFFFFFFFFFFFFFFFFFFFFFFFFFFFFFFFFFFFFF AND MUL OR SWAP1 SSTORE POP DUP2 DUP4 PUSH20 0xFFFFFFFFFFFFFFFFFFFFFFFFFFFFFFFFFFFFFFFF AND DUP3 PUSH20 0xFFFFFFFFFFFFFFFFFFFFFFFFFFFFFFFFFFFFFFFF AND PUSH32 0x8C5BE1E5EBEC7D5BD14F71427D1E84F3DD0314C0F7B2291E5B200AC8C7C3B925 PUSH1 0x40 MLOAD PUSH1 0x40 MLOAD DUP1 SWAP2 SUB SWAP1 LOG4 POP POP POP JUMP JUMPDEST PUSH1 0x0 PUSH2 0xAF6 PUSH2 0x1C4E JUMP JUMPDEST PUSH1 0x1 SLOAD PUSH1 0x0 SLOAD SUB SUB SWAP1 POP SWAP1 JUMP JUMPDEST PUSH1 0xA PUSH1 0x0 SWAP1 SLOAD SWAP1 PUSH2 0x100 EXP SWAP1 DIV PUSH1 0xFF AND DUP2 JUMP JUMPDEST PUSH1 0x0 PUSH2 0xB21 DUP3 PUSH2 0x1C57 JUMP JUMPDEST SWAP1 POP DUP4 PUSH20 0xFFFFFFFFFFFFFFFFFFFFFFFFFFFFFFFFFFFFFFFF AND DUP2 PUSH20 0xFFFFFFFFFFFFFFFFFFFFFFFFFFFFFFFFFFFFFFFF AND EQ PUSH2 0xB88 JUMPI PUSH1 0x40 MLOAD PUSH32 0xA114810000000000000000000000000000000000000000000000000000000000 DUP2 MSTORE PUSH1 0x4 ADD PUSH1 0x40 MLOAD DUP1 SWAP2 SUB SWAP1 REVERT JUMPDEST PUSH1 0x0 DUP1 PUSH2 0xB94 DUP5 PUSH2 0x1D25 JUMP JUMPDEST SWAP2 POP SWAP2 POP PUSH2 0xBAA DUP2 DUP8 PUSH2 0xBA5 PUSH2 0x1C46 JUMP JUMPDEST PUSH2 0x1D4C JUMP JUMPDEST PUSH2 0xBF6 JUMPI PUSH2 0xBBF DUP7 PUSH2 0xBBA PUSH2 0x1C46 JUMP JUMPDEST PUSH2 0x19A3 JUMP JUMPDEST PUSH2 0xBF5 JUMPI PUSH1 0x40 MLOAD PUSH32 0x59C896BE00000000000000000000000000000000000000000000000000000000 DUP2 MSTORE PUSH1 0x4 ADD PUSH1 0x40 MLOAD DUP1 SWAP2 SUB SWAP1 REVERT JUMPDEST JUMPDEST PUSH1 0x0 PUSH20 0xFFFFFFFFFFFFFFFFFFFFFFFFFFFFFFFFFFFFFFFF AND DUP6 PUSH20 0xFFFFFFFFFFFFFFFFFFFFFFFFFFFFFFFFFFFFFFFF AND EQ ISZERO PUSH2 0xC5D JUMPI PUSH1 0x40 MLOAD PUSH32 0xEA553B3400000000000000000000000000000000000000000000000000000000 DUP2 MSTORE PUSH1 0x4 ADD PUSH1 0x40 MLOAD DUP1 SWAP2 SUB SWAP1 REVERT JUMPDEST PUSH2 0xC6A DUP7 DUP7 DUP7 PUSH1 0x1 PUSH2 0x1D90 JUMP JUMPDEST DUP1 ISZERO PUSH2 0xC75 JUMPI PUSH1 0x0 DUP3 SSTORE JUMPDEST PUSH1 0x5 PUSH1 0x0 DUP8 PUSH20 0xFFFFFFFFFFFFFFFFFFFFFFFFFFFFFFFFFFFFFFFF AND PUSH20 0xFFFFFFFFFFFFFFFFFFFFFFFFFFFFFFFFFFFFFFFF AND DUP2 MSTORE PUSH1 0x20 ADD SWAP1 DUP2 MSTORE PUSH1 0x20 ADD PUSH1 0x0 KECCAK256 PUSH1 0x0 DUP2 SLOAD PUSH1 0x1 SWAP1 SUB SWAP2 SWAP1 POP DUP2 SWAP1 SSTORE POP PUSH1 0x5 PUSH1 0x0 DUP7 PUSH20 0xFFFFFFFFFFFFFFFFFFFFFFFFFFFFFFFFFFFFFFFF AND PUSH20 0xFFFFFFFFFFFFFFFFFFFFFFFFFFFFFFFFFFFFFFFF AND DUP2 MSTORE PUSH1 0x20 ADD SWAP1 DUP2 MSTORE PUSH1 0x20 ADD PUSH1 0x0 KECCAK256 PUSH1 0x0 DUP2 SLOAD PUSH1 0x1 ADD SWAP2 SWAP1 POP DUP2 SWAP1 SSTORE POP PUSH2 0xD43 DUP6 PUSH2 0xD1F DUP9 DUP9 DUP8 PUSH2 0x1D96 JUMP JUMPDEST PUSH29 0x200000000000000000000000000000000000000000000000000000000 OR PUSH2 0x1DBE JUMP JUMPDEST PUSH1 0x4 PUSH1 0x0 DUP7 DUP2 MSTORE PUSH1 0x20 ADD SWAP1 DUP2 MSTORE PUSH1 0x20 ADD PUSH1 0x0 KECCAK256 DUP2 SWAP1 SSTORE POP PUSH1 0x0 PUSH29 0x200000000000000000000000000000000000000000000000000000000 DUP5 AND EQ ISZERO PUSH2 0xDCB JUMPI PUSH1 0x0 PUSH1 0x1 DUP6 ADD SWAP1 POP PUSH1 0x0 PUSH1 0x4 PUSH1 0x0 DUP4 DUP2 MSTORE PUSH1 0x20 ADD SWAP1 DUP2 MSTORE PUSH1 0x20 ADD PUSH1 0x0 KECCAK256 SLOAD EQ ISZERO PUSH2 0xDC9 JUMPI PUSH1 0x0 SLOAD DUP2 EQ PUSH2 0xDC8 JUMPI DUP4 PUSH1 0x4 PUSH1 0x0 DUP4 DUP2 MSTORE PUSH1 0x20 ADD SWAP1 DUP2 MSTORE PUSH1 0x20 ADD PUSH1 0x0 KECCAK256 DUP2 SWAP1 SSTORE POP JUMPDEST JUMPDEST POP JUMPDEST DUP4 DUP6 PUSH20 0xFFFFFFFFFFFFFFFFFFFFFFFFFFFFFFFFFFFFFFFF AND DUP8 PUSH20 0xFFFFFFFFFFFFFFFFFFFFFFFFFFFFFFFFFFFFFFFF AND PUSH32 0xDDF252AD1BE2C89B69C2B068FC378DAA952BA7F163C4A11628F55A4DF523B3EF PUSH1 0x40 MLOAD PUSH1 0x40 MLOAD DUP1 SWAP2 SUB SWAP1 LOG4 PUSH2 0xE33 DUP7 DUP7 DUP7 PUSH1 0x1 PUSH2 0x1DE9 JUMP JUMPDEST POP POP POP POP POP POP JUMP JUMPDEST PUSH1 0x2 PUSH1 0x9 SLOAD EQ ISZERO PUSH2 0xE81 JUMPI PUSH1 0x40 MLOAD PUSH32 0x8C379A000000000000000000000000000000000000000000000000000000000 DUP2 MSTORE PUSH1 0x4 ADD PUSH2 0xE78 SWAP1 PUSH2 0x31E1 JUMP JUMPDEST PUSH1 0x40 MLOAD DUP1 SWAP2 SUB SWAP1 REVERT JUMPDEST PUSH1 0x2 PUSH1 0x9 DUP2 SWAP1 SSTORE POP CALLER PUSH20 0xFFFFFFFFFFFFFFFFFFFFFFFFFFFFFFFFFFFFFFFF AND ORIGIN PUSH20 0xFFFFFFFFFFFFFFFFFFFFFFFFFFFFFFFFFFFFFFFF AND EQ PUSH2 0xEEE JUMPI PUSH1 0x40 MLOAD PUSH32 0x2E75101900000000000000000000000000000000000000000000000000000000 DUP2 MSTORE PUSH1 0x4 ADD PUSH1 0x40 MLOAD DUP1 SWAP2 SUB SWAP1 REVERT JUMPDEST PUSH1 0x2 DUP1 DUP2 GT ISZERO PUSH2 0xF01 JUMPI PUSH2 0xF00 PUSH2 0x2B9A JUMP JUMPDEST JUMPDEST PUSH1 0xA PUSH1 0x0 SWAP1 SLOAD SWAP1 PUSH2 0x100 EXP SWAP1 DIV PUSH1 0xFF AND PUSH1 0x2 DUP2 GT ISZERO PUSH2 0xF23 JUMPI PUSH2 0xF22 PUSH2 0x2B9A JUMP JUMPDEST JUMPDEST EQ PUSH2 0xF5A JUMPI PUSH1 0x40 MLOAD PUSH32 0x12CD2E700000000000000000000000000000000000000000000000000000000 DUP2 MSTORE PUSH1 0x4 ADD PUSH1 0x40 MLOAD DUP1 SWAP2 SUB SWAP1 REVERT JUMPDEST PUSH2 0x8AE PUSH1 0xE SLOAD GT ISZERO PUSH2 0xF74 JUMPI PUSH2 0xF6F DUP2 PUSH2 0x1DEF JUMP JUMPDEST PUSH2 0xF7D JUMP JUMPDEST PUSH2 0xF7C PUSH2 0x1FCB JUMP JUMPDEST JUMPDEST PUSH1 0x1 PUSH1 0x9 DUP2 SWAP1 SSTORE POP POP JUMP JUMPDEST PUSH1 0x0 PUSH1 0x11 PUSH1 0x0 DUP4 PUSH20 0xFFFFFFFFFFFFFFFFFFFFFFFFFFFFFFFFFFFFFFFF AND PUSH20 0xFFFFFFFFFFFFFFFFFFFFFFFFFFFFFFFFFFFFFFFF AND DUP2 MSTORE PUSH1 0x20 ADD SWAP1 DUP2 MSTORE PUSH1 0x20 ADD PUSH1 0x0 KECCAK256 PUSH1 0x0 SWAP1 SLOAD SWAP1 PUSH2 0x100 EXP SWAP1 DIV PUSH1 0xFF AND SWAP1 POP SWAP2 SWAP1 POP JUMP JUMPDEST PUSH1 0x2 PUSH1 0x9 SLOAD EQ ISZERO PUSH2 0x1024 JUMPI PUSH1 0x40 MLOAD PUSH32 0x8C379A000000000000000000000000000000000000000000000000000000000 DUP2 MSTORE PUSH1 0x4 ADD PUSH2 0x101B SWAP1 PUSH2 0x31E1 JUMP JUMPDEST PUSH1 0x40 MLOAD DUP1 SWAP2 SUB SWAP1 REVERT JUMPDEST PUSH1 0x2 PUSH1 0x9 DUP2 SWAP1 SSTORE POP PUSH2 0x1034 PUSH2 0x2155 JUMP JUMPDEST CALLER PUSH20 0xFFFFFFFFFFFFFFFFFFFFFFFFFFFFFFFFFFFFFFFF AND PUSH2 0x8FC SELFBALANCE SWAP1 DUP2 ISZERO MUL SWAP1 PUSH1 0x40 MLOAD PUSH1 0x0 PUSH1 0x40 MLOAD DUP1 DUP4 SUB DUP2 DUP6 DUP9 DUP9 CALL SWAP4 POP POP POP POP ISZERO DUP1 ISZERO PUSH2 0x107A JUMPI RETURNDATASIZE PUSH1 0x0 DUP1 RETURNDATACOPY RETURNDATASIZE PUSH1 0x0 REVERT JUMPDEST POP PUSH1 0x1 PUSH1 0x9 DUP2 SWAP1 SSTORE POP JUMP JUMPDEST PUSH2 0x10A0 DUP4 DUP4 DUP4 PUSH1 0x40 MLOAD DUP1 PUSH1 0x20 ADD PUSH1 0x40 MSTORE DUP1 PUSH1 0x0 DUP2 MSTORE POP PUSH2 0x180E JUMP JUMPDEST POP POP POP JUMP JUMPDEST PUSH2 0x10AD PUSH2 0x2155 JUMP JUMPDEST DUP1 PUSH1 0xD DUP2 SWAP1 SSTORE POP POP JUMP JUMPDEST PUSH1 0x0 PUSH1 0x12 PUSH1 0x0 DUP4 PUSH20 0xFFFFFFFFFFFFFFFFFFFFFFFFFFFFFFFFFFFFFFFF AND PUSH20 0xFFFFFFFFFFFFFFFFFFFFFFFFFFFFFFFFFFFFFFFF AND DUP2 MSTORE PUSH1 0x20 ADD SWAP1 DUP2 MSTORE PUSH1 0x20 ADD PUSH1 0x0 KECCAK256 SLOAD SWAP1 POP SWAP2 SWAP1 POP JUMP JUMPDEST PUSH2 0x1108 PUSH2 0x2155 JUMP JUMPDEST DUP1 PUSH1 0xC SWAP1 DUP1 MLOAD SWAP1 PUSH1 0x20 ADD SWAP1 PUSH2 0x111E SWAP3 SWAP2 SWAP1 PUSH2 0x2818 JUMP JUMPDEST POP POP JUMP JUMPDEST PUSH1 0x0 PUSH1 0xE SLOAD SWAP1 POP SWAP1 JUMP JUMPDEST PUSH1 0x0 PUSH2 0x1137 DUP3 PUSH2 0x1C57 JUMP JUMPDEST SWAP1 POP SWAP2 SWAP1 POP JUMP JUMPDEST PUSH1 0xD SLOAD DUP2 JUMP JUMPDEST PUSH2 0x114C PUSH2 0x2155 JUMP JUMPDEST DUP1 PUSH1 0x2 DUP2 GT ISZERO PUSH2 0x115F JUMPI PUSH2 0x115E PUSH2 0x2B9A JUMP JUMPDEST JUMPDEST PUSH1 0xA PUSH1 0x0 PUSH2 0x100 EXP DUP2 SLOAD DUP2 PUSH1 0xFF MUL NOT AND SWAP1 DUP4 PUSH1 0x2 DUP2 GT ISZERO PUSH2 0x1183 JUMPI PUSH2 0x1182 PUSH2 0x2B9A JUMP JUMPDEST JUMPDEST MUL OR SWAP1 SSTORE POP PUSH32 0x3665A8B73CADA881FBF8D8433B7D9E7D21C1E53EECF7BB51FB15262D98EE0AFB DUP2 PUSH1 0x40 MLOAD PUSH2 0x11B7 SWAP2 SWAP1 PUSH2 0x2B7F JUMP JUMPDEST PUSH1 0x40 MLOAD DUP1 SWAP2 SUB SWAP1 LOG1 POP JUMP JUMPDEST PUSH1 0xC DUP1 SLOAD PUSH2 0x11CF SWAP1 PUSH2 0x3163 JUMP JUMPDEST DUP1 PUSH1 0x1F ADD PUSH1 0x20 DUP1 SWAP2 DIV MUL PUSH1 0x20 ADD PUSH1 0x40 MLOAD SWAP1 DUP2 ADD PUSH1 0x40 MSTORE DUP1 SWAP3 SWAP2 SWAP1 DUP2 DUP2 MSTORE PUSH1 0x20 ADD DUP3 DUP1 SLOAD PUSH2 0x11FB SWAP1 PUSH2 0x3163 JUMP JUMPDEST DUP1 ISZERO PUSH2 0x1248 JUMPI DUP1 PUSH1 0x1F LT PUSH2 0x121D JUMPI PUSH2 0x100 DUP1 DUP4 SLOAD DIV MUL DUP4 MSTORE SWAP2 PUSH1 0x20 ADD SWAP2 PUSH2 0x1248 JUMP JUMPDEST DUP3 ADD SWAP2 SWAP1 PUSH1 0x0 MSTORE PUSH1 0x20 PUSH1 0x0 KECCAK256 SWAP1 JUMPDEST DUP2 SLOAD DUP2 MSTORE SWAP1 PUSH1 0x1 ADD SWAP1 PUSH1 0x20 ADD DUP1 DUP4 GT PUSH2 0x122B JUMPI DUP3 SWAP1 SUB PUSH1 0x1F AND DUP3 ADD SWAP2 JUMPDEST POP POP POP POP POP DUP2 JUMP JUMPDEST PUSH1 0x0 DUP1 PUSH20 0xFFFFFFFFFFFFFFFFFFFFFFFFFFFFFFFFFFFFFFFF AND DUP3 PUSH20 0xFFFFFFFFFFFFFFFFFFFFFFFFFFFFFFFFFFFFFFFF AND EQ ISZERO PUSH2 0x12B8 JUMPI PUSH1 0x40 MLOAD PUSH32 0x8F4EB60400000000000000000000000000000000000000000000000000000000 DUP2 MSTORE PUSH1 0x4 ADD PUSH1 0x40 MLOAD DUP1 SWAP2 SUB SWAP1 REVERT JUMPDEST PUSH8 0xFFFFFFFFFFFFFFFF PUSH1 0x5 PUSH1 0x0 DUP5 PUSH20 0xFFFFFFFFFFFFFFFFFFFFFFFFFFFFFFFFFFFFFFFF AND PUSH20 0xFFFFFFFFFFFFFFFFFFFFFFFFFFFFFFFFFFFFFFFF AND DUP2 MSTORE PUSH1 0x20 ADD SWAP1 DUP2 MSTORE PUSH1 0x20 ADD PUSH1 0x0 KECCAK256 SLOAD AND SWAP1 POP SWAP2 SWAP1 POP JUMP JUMPDEST PUSH2 0x1311 PUSH2 0x2155 JUMP JUMPDEST PUSH2 0x131B PUSH1 0x0 PUSH2 0x21D3 JUMP JUMPDEST JUMP JUMPDEST PUSH1 0x0 PUSH1 0x8 PUSH1 0x0 SWAP1 SLOAD SWAP1 PUSH2 0x100 EXP SWAP1 DIV PUSH20 0xFFFFFFFFFFFFFFFFFFFFFFFFFFFFFFFFFFFFFFFF AND SWAP1 POP SWAP1 JUMP JUMPDEST PUSH2 0x134F PUSH2 0x2155 JUMP JUMPDEST DUP1 PUSH1 0xB DUP2 SWAP1 SSTORE POP POP JUMP JUMPDEST PUSH1 0x60 PUSH1 0x3 DUP1 SLOAD PUSH2 0x1368 SWAP1 PUSH2 0x3163 JUMP JUMPDEST DUP1 PUSH1 0x1F ADD PUSH1 0x20 DUP1 SWAP2 DIV MUL PUSH1 0x20 ADD PUSH1 0x40 MLOAD SWAP1 DUP2 ADD PUSH1 0x40 MSTORE DUP1 SWAP3 SWAP2 SWAP1 DUP2 DUP2 MSTORE PUSH1 0x20 ADD DUP3 DUP1 SLOAD PUSH2 0x1394 SWAP1 PUSH2 0x3163 JUMP JUMPDEST DUP1 ISZERO PUSH2 0x13E1 JUMPI DUP1 PUSH1 0x1F LT PUSH2 0x13B6 JUMPI PUSH2 0x100 DUP1 DUP4 SLOAD DIV MUL DUP4 MSTORE SWAP2 PUSH1 0x20 ADD SWAP2 PUSH2 0x13E1 JUMP JUMPDEST DUP3 ADD SWAP2 SWAP1 PUSH1 0x0 MSTORE PUSH1 0x20 PUSH1 0x0 KECCAK256 SWAP1 JUMPDEST DUP2 SLOAD DUP2 MSTORE SWAP1 PUSH1 0x1 ADD SWAP1 PUSH1 0x20 ADD DUP1 DUP4 GT PUSH2 0x13C4 JUMPI DUP3 SWAP1 SUB PUSH1 0x1F AND DUP3 ADD SWAP2 JUMPDEST POP POP POP POP POP SWAP1 POP SWAP1 JUMP JUMPDEST PUSH1 0x2 PUSH1 0x9 SLOAD EQ ISZERO PUSH2 0x1431 JUMPI PUSH1 0x40 MLOAD PUSH32 0x8C379A000000000000000000000000000000000000000000000000000000000 DUP2 MSTORE PUSH1 0x4 ADD PUSH2 0x1428 SWAP1 PUSH2 0x31E1 JUMP JUMPDEST PUSH1 0x40 MLOAD DUP1 SWAP2 SUB SWAP1 REVERT JUMPDEST PUSH1 0x2 PUSH1 0x9 DUP2 SWAP1 SSTORE POP CALLER PUSH20 0xFFFFFFFFFFFFFFFFFFFFFFFFFFFFFFFFFFFFFFFF AND ORIGIN PUSH20 0xFFFFFFFFFFFFFFFFFFFFFFFFFFFFFFFFFFFFFFFF AND EQ PUSH2 0x149E JUMPI PUSH1 0x40 MLOAD PUSH32 0x2E75101900000000000000000000000000000000000000000000000000000000 DUP2 MSTORE PUSH1 0x4 ADD PUSH1 0x40 MLOAD DUP1 SWAP2 SUB SWAP1 REVERT JUMPDEST PUSH1 0x1 PUSH1 0x2 DUP2 GT ISZERO PUSH2 0x14B2 JUMPI PUSH2 0x14B1 PUSH2 0x2B9A JUMP JUMPDEST JUMPDEST PUSH1 0xA PUSH1 0x0 SWAP1 SLOAD SWAP1 PUSH2 0x100 EXP SWAP1 DIV PUSH1 0xFF AND PUSH1 0x2 DUP2 GT ISZERO PUSH2 0x14D4 JUMPI PUSH2 0x14D3 PUSH2 0x2B9A JUMP JUMPDEST JUMPDEST EQ PUSH2 0x150B JUMPI PUSH1 0x40 MLOAD PUSH32 0x12CD2E700000000000000000000000000000000000000000000000000000000 DUP2 MSTORE PUSH1 0x4 ADD PUSH1 0x40 MLOAD DUP1 SWAP2 SUB SWAP1 REVERT JUMPDEST PUSH2 0x6A4 PUSH1 0xE SLOAD GT ISZERO PUSH2 0x1549 JUMPI PUSH1 0x40 MLOAD PUSH32 0x47747FA900000000000000000000000000000000000000000000000000000000 DUP2 MSTORE PUSH1 0x4 ADD PUSH1 0x40 MLOAD DUP1 SWAP2 SUB SWAP1 REVERT JUMPDEST PUSH2 0x1556 DUP3 DUP3 PUSH1 0xD SLOAD PUSH2 0x2299 JUMP JUMPDEST PUSH2 0x158C JUMPI PUSH1 0x40 MLOAD PUSH32 0x6A9A57A500000000000000000000000000000000000000000000000000000000 DUP2 MSTORE PUSH1 0x4 ADD PUSH1 0x40 MLOAD DUP1 SWAP2 SUB SWAP1 REVERT JUMPDEST PUSH1 0x10 PUSH1 0x0 CALLER PUSH20 0xFFFFFFFFFFFFFFFFFFFFFFFFFFFFFFFFFFFFFFFF AND PUSH20 0xFFFFFFFFFFFFFFFFFFFFFFFFFFFFFFFFFFFFFFFF AND DUP2 MSTORE PUSH1 0x20 ADD SWAP1 DUP2 MSTORE PUSH1 0x20 ADD PUSH1 0x0 KECCAK256 PUSH1 0x0 SWAP1 SLOAD SWAP1 PUSH2 0x100 EXP SWAP1 DIV PUSH1 0xFF AND ISZERO PUSH2 0x1610 JUMPI PUSH1 0x40 MLOAD PUSH32 0x6F5AA9E400000000000000000000000000000000000000000000000000000000 DUP2 MSTORE PUSH1 0x4 ADD PUSH1 0x40 MLOAD DUP1 SWAP2 SUB SWAP1 REVERT JUMPDEST PUSH1 0x1 PUSH1 0xE PUSH1 0x0 DUP3 DUP3 SLOAD ADD SWAP3 POP POP DUP2 SWAP1 SSTORE POP PUSH1 0x1 PUSH1 0x10 PUSH1 0x0 CALLER PUSH20 0xFFFFFFFFFFFFFFFFFFFFFFFFFFFFFFFFFFFFFFFF AND PUSH20 0xFFFFFFFFFFFFFFFFFFFFFFFFFFFFFFFFFFFFFFFF AND DUP2 MSTORE PUSH1 0x20 ADD SWAP1 DUP2 MSTORE PUSH1 0x20 ADD PUSH1 0x0 KECCAK256 PUSH1 0x0 PUSH2 0x100 EXP DUP2 SLOAD DUP2 PUSH1 0xFF MUL NOT AND SWAP1 DUP4 ISZERO ISZERO MUL OR SWAP1 SSTORE POP PUSH2 0x1684 CALLER PUSH1 0x1 PUSH2 0x2316 JUMP JUMPDEST PUSH1 0x1 PUSH1 0x9 DUP2 SWAP1 SSTORE POP POP POP JUMP JUMPDEST PUSH1 0xB SLOAD DUP2 JUMP JUMPDEST PUSH2 0x169E PUSH2 0x1C46 JUMP JUMPDEST PUSH20 0xFFFFFFFFFFFFFFFFFFFFFFFFFFFFFFFFFFFFFFFF AND DUP3 PUSH20 0xFFFFFFFFFFFFFFFFFFFFFFFFFFFFFFFFFFFFFFFF AND EQ ISZERO PUSH2 0x1703 JUMPI PUSH1 0x40 MLOAD PUSH32 0xB06307DB00000000000000000000000000000000000000000000000000000000 DUP2 MSTORE PUSH1 0x4 ADD PUSH1 0x40 MLOAD DUP1 SWAP2 SUB SWAP1 REVERT JUMPDEST DUP1 PUSH1 0x7 PUSH1 0x0 PUSH2 0x1710 PUSH2 0x1C46 JUMP JUMPDEST PUSH20 0xFFFFFFFFFFFFFFFFFFFFFFFFFFFFFFFFFFFFFFFF AND PUSH20 0xFFFFFFFFFFFFFFFFFFFFFFFFFFFFFFFFFFFFFFFF AND DUP2 MSTORE PUSH1 0x20 ADD SWAP1 DUP2 MSTORE PUSH1 0x20 ADD PUSH1 0x0 KECCAK256 PUSH1 0x0 DUP5 PUSH20 0xFFFFFFFFFFFFFFFFFFFFFFFFFFFFFFFFFFFFFFFF AND PUSH20 0xFFFFFFFFFFFFFFFFFFFFFFFFFFFFFFFFFFFFFFFF AND DUP2 MSTORE PUSH1 0x20 ADD SWAP1 DUP2 MSTORE PUSH1 0x20 ADD PUSH1 0x0 KECCAK256 PUSH1 0x0 PUSH2 0x100 EXP DUP2 SLOAD DUP2 PUSH1 0xFF MUL NOT AND SWAP1 DUP4 ISZERO ISZERO MUL OR SWAP1 SSTORE POP DUP2 PUSH20 0xFFFFFFFFFFFFFFFFFFFFFFFFFFFFFFFFFFFFFFFF AND PUSH2 0x17BD PUSH2 0x1C46 JUMP JUMPDEST PUSH20 0xFFFFFFFFFFFFFFFFFFFFFFFFFFFFFFFFFFFFFFFF AND PUSH32 0x17307EAB39AB6107E8899845AD3D59BD9653F200F220920489CA2B5937696C31 DUP4 PUSH1 0x40 MLOAD PUSH2 0x1802 SWAP2 SWAP1 PUSH2 0x296F JUMP JUMPDEST PUSH1 0x40 MLOAD DUP1 SWAP2 SUB SWAP1 LOG3 POP POP JUMP JUMPDEST PUSH2 0x1819 DUP5 DUP5 DUP5 PUSH2 0xB16 JUMP JUMPDEST PUSH1 0x0 DUP4 PUSH20 0xFFFFFFFFFFFFFFFFFFFFFFFFFFFFFFFFFFFFFFFF AND EXTCODESIZE EQ PUSH2 0x187B JUMPI PUSH2 0x1844 DUP5 DUP5 DUP5 DUP5 PUSH2 0x2334 JUMP JUMPDEST PUSH2 0x187A JUMPI PUSH1 0x40 MLOAD PUSH32 0xD1A57ED600000000000000000000000000000000000000000000000000000000 DUP2 MSTORE PUSH1 0x4 ADD PUSH1 0x40 MLOAD DUP1 SWAP2 SUB SWAP1 REVERT JUMPDEST JUMPDEST POP POP POP POP JUMP JUMPDEST PUSH1 0x60 PUSH2 0x188C DUP3 PUSH2 0x1BE7 JUMP JUMPDEST PUSH2 0x18C2 JUMPI PUSH1 0x40 MLOAD PUSH32 0xA14C4B5000000000000000000000000000000000000000000000000000000000 DUP2 MSTORE PUSH1 0x4 ADD PUSH1 0x40 MLOAD DUP1 SWAP2 SUB SWAP1 REVERT JUMPDEST PUSH1 0x0 PUSH1 0xC DUP1 SLOAD PUSH2 0x18D1 SWAP1 PUSH2 0x3163 JUMP JUMPDEST DUP1 PUSH1 0x1F ADD PUSH1 0x20 DUP1 SWAP2 DIV MUL PUSH1 0x20 ADD PUSH1 0x40 MLOAD SWAP1 DUP2 ADD PUSH1 0x40 MSTORE DUP1 SWAP3 SWAP2 SWAP1 DUP2 DUP2 MSTORE PUSH1 0x20 ADD DUP3 DUP1 SLOAD PUSH2 0x18FD SWAP1 PUSH2 0x3163 JUMP JUMPDEST DUP1 ISZERO PUSH2 0x194A JUMPI DUP1 PUSH1 0x1F LT PUSH2 0x191F JUMPI PUSH2 0x100 DUP1 DUP4 SLOAD DIV MUL DUP4 MSTORE SWAP2 PUSH1 0x20 ADD SWAP2 PUSH2 0x194A JUMP JUMPDEST DUP3 ADD SWAP2 SWAP1 PUSH1 0x0 MSTORE PUSH1 0x20 PUSH1 0x0 KECCAK256 SWAP1 JUMPDEST DUP2 SLOAD DUP2 MSTORE SWAP1 PUSH1 0x1 ADD SWAP1 PUSH1 0x20 ADD DUP1 DUP4 GT PUSH2 0x192D JUMPI DUP3 SWAP1 SUB PUSH1 0x1F AND DUP3 ADD SWAP2 JUMPDEST POP POP POP POP POP SWAP1 POP PUSH1 0x0 DUP2 MLOAD EQ ISZERO PUSH2 0x1970 JUMPI PUSH1 0x40 MLOAD DUP1 PUSH1 0x20 ADD PUSH1 0x40 MSTORE DUP1 PUSH1 0x0 DUP2 MSTORE POP PUSH2 0x199B JUMP JUMPDEST DUP1 PUSH2 0x197A DUP5 PUSH2 0x2494 JUMP JUMPDEST PUSH1 0x40 MLOAD PUSH1 0x20 ADD PUSH2 0x198B SWAP3 SWAP2 SWAP1 PUSH2 0x3289 JUMP JUMPDEST PUSH1 0x40 MLOAD PUSH1 0x20 DUP2 DUP4 SUB SUB DUP2 MSTORE SWAP1 PUSH1 0x40 MSTORE JUMPDEST SWAP2 POP POP SWAP2 SWAP1 POP JUMP JUMPDEST PUSH1 0x0 PUSH1 0x7 PUSH1 0x0 DUP5 PUSH20 0xFFFFFFFFFFFFFFFFFFFFFFFFFFFFFFFFFFFFFFFF AND PUSH20 0xFFFFFFFFFFFFFFFFFFFFFFFFFFFFFFFFFFFFFFFF AND DUP2 MSTORE PUSH1 0x20 ADD SWAP1 DUP2 MSTORE PUSH1 0x20 ADD PUSH1 0x0 KECCAK256 PUSH1 0x0 DUP4 PUSH20 0xFFFFFFFFFFFFFFFFFFFFFFFFFFFFFFFFFFFFFFFF AND PUSH20 0xFFFFFFFFFFFFFFFFFFFFFFFFFFFFFFFFFFFFFFFF AND DUP2 MSTORE PUSH1 0x20 ADD SWAP1 DUP2 MSTORE PUSH1 0x20 ADD PUSH1 0x0 KECCAK256 PUSH1 0x0 SWAP1 SLOAD SWAP1 PUSH2 0x100 EXP SWAP1 DIV PUSH1 0xFF AND SWAP1 POP SWAP3 SWAP2 POP POP JUMP JUMPDEST PUSH1 0x2 PUSH1 0x9 SLOAD EQ ISZERO PUSH2 0x1A7D JUMPI PUSH1 0x40 MLOAD PUSH32 0x8C379A000000000000000000000000000000000000000000000000000000000 DUP2 MSTORE PUSH1 0x4 ADD PUSH2 0x1A74 SWAP1 PUSH2 0x31E1 JUMP JUMPDEST PUSH1 0x40 MLOAD DUP1 SWAP2 SUB SWAP1 REVERT JUMPDEST PUSH1 0x2 PUSH1 0x9 DUP2 SWAP1 SSTORE POP PUSH2 0x1A8D PUSH2 0x2155 JUMP JUMPDEST PUSH1 0xF SLOAD DUP2 PUSH1 0xE SLOAD PUSH2 0x1A9E SWAP2 SWAP1 PUSH2 0x32E7 JUMP JUMPDEST GT ISZERO PUSH2 0x1AD6 JUMPI PUSH1 0x40 MLOAD PUSH32 0x47747FA900000000000000000000000000000000000000000000000000000000 DUP2 MSTORE PUSH1 0x4 ADD PUSH1 0x40 MLOAD DUP1 SWAP2 SUB SWAP1 REVERT JUMPDEST DUP1 PUSH1 0xE PUSH1 0x0 DUP3 DUP3 SLOAD ADD SWAP3 POP POP DUP2 SWAP1 SSTORE POP PUSH2 0x1AF0 CALLER DUP3 PUSH2 0x2316 JUMP JUMPDEST PUSH1 0x1 PUSH1 0x9 DUP2 SWAP1 SSTORE POP POP JUMP JUMPDEST PUSH2 0x1B03 PUSH2 0x2155 JUMP JUMPDEST PUSH1 0x0 PUSH20 0xFFFFFFFFFFFFFFFFFFFFFFFFFFFFFFFFFFFFFFFF AND DUP2 PUSH20 0xFFFFFFFFFFFFFFFFFFFFFFFFFFFFFFFFFFFFFFFF AND EQ ISZERO PUSH2 0x1B73 JUMPI PUSH1 0x40 MLOAD PUSH32 0x8C379A000000000000000000000000000000000000000000000000000000000 DUP2 MSTORE PUSH1 0x4 ADD PUSH2 0x1B6A SWAP1 PUSH2 0x33AF JUMP JUMPDEST PUSH1 0x40 MLOAD DUP1 SWAP2 SUB SWAP1 REVERT JUMPDEST PUSH2 0x1B7C DUP2 PUSH2 0x21D3 JUMP JUMPDEST POP JUMP JUMPDEST PUSH1 0x0 PUSH1 0x10 PUSH1 0x0 DUP4 PUSH20 0xFFFFFFFFFFFFFFFFFFFFFFFFFFFFFFFFFFFFFFFF AND PUSH20 0xFFFFFFFFFFFFFFFFFFFFFFFFFFFFFFFFFFFFFFFF AND DUP2 MSTORE PUSH1 0x20 ADD SWAP1 DUP2 MSTORE PUSH1 0x20 ADD PUSH1 0x0 KECCAK256 PUSH1 0x0 SWAP1 SLOAD SWAP1 PUSH2 0x100 EXP SWAP1 DIV PUSH1 0xFF AND SWAP1 POP SWAP2 SWAP1 POP JUMP JUMPDEST PUSH2 0x1BDD PUSH2 0x2155 JUMP JUMPDEST DUP1 PUSH1 0xF DUP2 SWAP1 SSTORE POP POP JUMP JUMPDEST PUSH1 0x0 DUP2 PUSH2 0x1BF2 PUSH2 0x1C4E JUMP JUMPDEST GT ISZERO DUP1 ISZERO PUSH2 0x1C01 JUMPI POP PUSH1 0x0 SLOAD DUP3 LT JUMPDEST DUP1 ISZERO PUSH2 0x1C3F JUMPI POP PUSH1 0x0 PUSH29 0x100000000000000000000000000000000000000000000000000000000 PUSH1 0x4 PUSH1 0x0 DUP6 DUP2 MSTORE PUSH1 0x20 ADD SWAP1 DUP2 MSTORE PUSH1 0x20 ADD PUSH1 0x0 KECCAK256 SLOAD AND EQ JUMPDEST SWAP1 POP SWAP2 SWAP1 POP JUMP JUMPDEST PUSH1 0x0 CALLER SWAP1 POP SWAP1 JUMP JUMPDEST PUSH1 0x0 PUSH1 0x1 SWAP1 POP SWAP1 JUMP JUMPDEST PUSH1 0x0 DUP1 DUP3 SWAP1 POP DUP1 PUSH2 0x1C66 PUSH2 0x1C4E JUMP JUMPDEST GT PUSH2 0x1CEE JUMPI PUSH1 0x0 SLOAD DUP2 LT ISZERO PUSH2 0x1CED JUMPI PUSH1 0x0 PUSH1 0x4 PUSH1 0x0 DUP4 DUP2 MSTORE PUSH1 0x20 ADD SWAP1 DUP2 MSTORE PUSH1 0x20 ADD PUSH1 0x0 KECCAK256 SLOAD SWAP1 POP PUSH1 0x0 PUSH29 0x100000000000000000000000000000000000000000000000000000000 DUP3 AND EQ ISZERO PUSH2 0x1CEB JUMPI JUMPDEST PUSH1 0x0 DUP2 EQ ISZERO PUSH2 0x1CE1 JUMPI PUSH1 0x4 PUSH1 0x0 DUP4 PUSH1 0x1 SWAP1 SUB SWAP4 POP DUP4 DUP2 MSTORE PUSH1 0x20 ADD SWAP1 DUP2 MSTORE PUSH1 0x20 ADD PUSH1 0x0 KECCAK256 SLOAD SWAP1 POP PUSH2 0x1CB6 JUMP JUMPDEST DUP1 SWAP3 POP POP POP PUSH2 0x1D20 JUMP JUMPDEST POP JUMPDEST JUMPDEST PUSH1 0x40 MLOAD PUSH32 0xDF2D9B4200000000000000000000000000000000000000000000000000000000 DUP2 MSTORE PUSH1 0x4 ADD PUSH1 0x40 MLOAD DUP1 SWAP2 SUB SWAP1 REVERT JUMPDEST SWAP2 SWAP1 POP JUMP JUMPDEST PUSH1 0x0 DUP1 PUSH1 0x0 PUSH1 0x6 PUSH1 0x0 DUP6 DUP2 MSTORE PUSH1 0x20 ADD SWAP1 DUP2 MSTORE PUSH1 0x20 ADD PUSH1 0x0 KECCAK256 SWAP1 POP DUP1 SWAP3 POP DUP3 SLOAD SWAP2 POP POP SWAP2 POP SWAP2 JUMP JUMPDEST PUSH1 0x0 PUSH20 0xFFFFFFFFFFFFFFFFFFFFFFFFFFFFFFFFFFFFFFFF DUP4 AND SWAP3 POP PUSH20 0xFFFFFFFFFFFFFFFFFFFFFFFFFFFFFFFFFFFFFFFF DUP3 AND SWAP2 POP DUP4 DUP3 EQ DUP4 DUP4 EQ OR SWAP1 POP SWAP4 SWAP3 POP POP POP JUMP JUMPDEST POP POP POP POP JUMP JUMPDEST PUSH1 0x0 DUP1 PUSH1 0xE8 DUP4 SWAP1 SHR SWAP1 POP PUSH1 0xE8 PUSH2 0x1DAD DUP7 DUP7 DUP5 PUSH2 0x24EE JUMP JUMPDEST PUSH3 0xFFFFFF AND SWAP1 SHL SWAP2 POP POP SWAP4 SWAP3 POP POP POP JUMP JUMPDEST PUSH1 0x0 PUSH20 0xFFFFFFFFFFFFFFFFFFFFFFFFFFFFFFFFFFFFFFFF DUP4 AND SWAP3 POP DUP2 TIMESTAMP PUSH1 0xA0 SHL OR DUP4 OR SWAP1 POP SWAP3 SWAP2 POP POP JUMP JUMPDEST POP POP POP POP JUMP JUMPDEST PUSH1 0x2 PUSH1 0x9 SLOAD EQ ISZERO PUSH2 0x1E35 JUMPI PUSH1 0x40 MLOAD PUSH32 0x8C379A000000000000000000000000000000000000000000000000000000000 DUP2 MSTORE PUSH1 0x4 ADD PUSH2 0x1E2C SWAP1 PUSH2 0x31E1 JUMP JUMPDEST PUSH1 0x40 MLOAD DUP1 SWAP2 SUB SWAP1 REVERT JUMPDEST PUSH1 0x2 PUSH1 0x9 DUP2 SWAP1 SSTORE POP PUSH1 0xB SLOAD DUP2 PUSH2 0x1E4B SWAP2 SWAP1 PUSH2 0x33CF JUMP JUMPDEST CALLVALUE EQ PUSH2 0x1E83 JUMPI PUSH1 0x40 MLOAD PUSH32 0xC534702400000000000000000000000000000000000000000000000000000000 DUP2 MSTORE PUSH1 0x4 ADD PUSH1 0x40 MLOAD DUP1 SWAP2 SUB SWAP1 REVERT JUMPDEST PUSH1 0x0 PUSH1 0x12 PUSH1 0x0 CALLER PUSH20 0xFFFFFFFFFFFFFFFFFFFFFFFFFFFFFFFFFFFFFFFF AND PUSH20 0xFFFFFFFFFFFFFFFFFFFFFFFFFFFFFFFFFFFFFFFF AND DUP2 MSTORE PUSH1 0x20 ADD SWAP1 DUP2 MSTORE PUSH1 0x20 ADD PUSH1 0x0 KECCAK256 SLOAD SWAP1 POP PUSH1 0x5 DUP3 DUP3 PUSH2 0x1ED5 SWAP2 SWAP1 PUSH2 0x32E7 JUMP JUMPDEST GT ISZERO PUSH2 0x1F0D JUMPI PUSH1 0x40 MLOAD PUSH32 0x6F5D75400000000000000000000000000000000000000000000000000000000 DUP2 MSTORE PUSH1 0x4 ADD PUSH1 0x40 MLOAD DUP1 SWAP2 SUB SWAP1 REVERT JUMPDEST PUSH1 0xF SLOAD DUP3 PUSH1 0xE SLOAD PUSH2 0x1F1E SWAP2 SWAP1 PUSH2 0x32E7 JUMP JUMPDEST GT ISZERO PUSH2 0x1F56 JUMPI PUSH1 0x40 MLOAD PUSH32 0x47747FA900000000000000000000000000000000000000000000000000000000 DUP2 MSTORE PUSH1 0x4 ADD PUSH1 0x40 MLOAD DUP1 SWAP2 SUB SWAP1 REVERT JUMPDEST DUP2 PUSH1 0xE PUSH1 0x0 DUP3 DUP3 SLOAD ADD SWAP3 POP POP DUP2 SWAP1 SSTORE POP DUP2 DUP2 PUSH2 0x1F72 SWAP2 SWAP1 PUSH2 0x32E7 JUMP JUMPDEST PUSH1 0x12 PUSH1 0x0 CALLER PUSH20 0xFFFFFFFFFFFFFFFFFFFFFFFFFFFFFFFFFFFFFFFF AND PUSH20 0xFFFFFFFFFFFFFFFFFFFFFFFFFFFFFFFFFFFFFFFF AND DUP2 MSTORE PUSH1 0x20 ADD SWAP1 DUP2 MSTORE PUSH1 0x20 ADD PUSH1 0x0 KECCAK256 DUP2 SWAP1 SSTORE POP PUSH2 0x1FBF CALLER DUP4 PUSH2 0x2316 JUMP JUMPDEST POP PUSH1 0x1 PUSH1 0x9 DUP2 SWAP1 SSTORE POP POP JUMP JUMPDEST PUSH1 0x2 PUSH1 0x9 SLOAD EQ ISZERO PUSH2 0x2011 JUMPI PUSH1 0x40 MLOAD PUSH32 0x8C379A000000000000000000000000000000000000000000000000000000000 DUP2 MSTORE PUSH1 0x4 ADD PUSH2 0x2008 SWAP1 PUSH2 0x31E1 JUMP JUMPDEST PUSH1 0x40 MLOAD DUP1 SWAP2 SUB SWAP1 REVERT JUMPDEST PUSH1 0x2 PUSH1 0x9 DUP2 SWAP1 SSTORE POP PUSH1 0x0 CALLVALUE EQ PUSH2 0x2053 JUMPI PUSH1 0x40 MLOAD PUSH32 0xC534702400000000000000000000000000000000000000000000000000000000 DUP2 MSTORE PUSH1 0x4 ADD PUSH1 0x40 MLOAD DUP1 SWAP2 SUB SWAP1 REVERT JUMPDEST PUSH1 0x11 PUSH1 0x0 CALLER PUSH20 0xFFFFFFFFFFFFFFFFFFFFFFFFFFFFFFFFFFFFFFFF AND PUSH20 0xFFFFFFFFFFFFFFFFFFFFFFFFFFFFFFFFFFFFFFFF AND DUP2 MSTORE PUSH1 0x20 ADD SWAP1 DUP2 MSTORE PUSH1 0x20 ADD PUSH1 0x0 KECCAK256 PUSH1 0x0 SWAP1 SLOAD SWAP1 PUSH2 0x100 EXP SWAP1 DIV PUSH1 0xFF AND ISZERO PUSH2 0x20D7 JUMPI PUSH1 0x40 MLOAD PUSH32 0x6F5AA9E400000000000000000000000000000000000000000000000000000000 DUP2 MSTORE PUSH1 0x4 ADD PUSH1 0x40 MLOAD DUP1 SWAP2 SUB SWAP1 REVERT JUMPDEST PUSH1 0x1 PUSH1 0xE PUSH1 0x0 DUP3 DUP3 SLOAD ADD SWAP3 POP POP DUP2 SWAP1 SSTORE POP PUSH1 0x1 PUSH1 0x11 PUSH1 0x0 CALLER PUSH20 0xFFFFFFFFFFFFFFFFFFFFFFFFFFFFFFFFFFFFFFFF AND PUSH20 0xFFFFFFFFFFFFFFFFFFFFFFFFFFFFFFFFFFFFFFFF AND DUP2 MSTORE PUSH1 0x20 ADD SWAP1 DUP2 MSTORE PUSH1 0x20 ADD PUSH1 0x0 KECCAK256 PUSH1 0x0 PUSH2 0x100 EXP DUP2 SLOAD DUP2 PUSH1 0xFF MUL NOT AND SWAP1 DUP4 ISZERO ISZERO MUL OR SWAP1 SSTORE POP PUSH2 0x214B CALLER PUSH1 0x1 PUSH2 0x2316 JUMP JUMPDEST PUSH1 0x1 PUSH1 0x9 DUP2 SWAP1 SSTORE POP JUMP JUMPDEST PUSH2 0x215D PUSH2 0x24F7 JUMP JUMPDEST PUSH20 0xFFFFFFFFFFFFFFFFFFFFFFFFFFFFFFFFFFFFFFFF AND PUSH2 0x217B PUSH2 0x131D JUMP JUMPDEST PUSH20 0xFFFFFFFFFFFFFFFFFFFFFFFFFFFFFFFFFFFFFFFF AND EQ PUSH2 0x21D1 JUMPI PUSH1 0x40 MLOAD PUSH32 0x8C379A000000000000000000000000000000000000000000000000000000000 DUP2 MSTORE PUSH1 0x4 ADD PUSH2 0x21C8 SWAP1 PUSH2 0x3475 JUMP JUMPDEST PUSH1 0x40 MLOAD DUP1 SWAP2 SUB SWAP1 REVERT JUMPDEST JUMP JUMPDEST PUSH1 0x0 PUSH1 0x8 PUSH1 0x0 SWAP1 SLOAD SWAP1 PUSH2 0x100 EXP SWAP1 DIV PUSH20 0xFFFFFFFFFFFFFFFFFFFFFFFFFFFFFFFFFFFFFFFF AND SWAP1 POP DUP2 PUSH1 0x8 PUSH1 0x0 PUSH2 0x100 EXP DUP2 SLOAD DUP2 PUSH20 0xFFFFFFFFFFFFFFFFFFFFFFFFFFFFFFFFFFFFFFFF MUL NOT AND SWAP1 DUP4 PUSH20 0xFFFFFFFFFFFFFFFFFFFFFFFFFFFFFFFFFFFFFFFF AND MUL OR SWAP1 SSTORE POP DUP2 PUSH20 0xFFFFFFFFFFFFFFFFFFFFFFFFFFFFFFFFFFFFFFFF AND DUP2 PUSH20 0xFFFFFFFFFFFFFFFFFFFFFFFFFFFFFFFFFFFFFFFF AND PUSH32 0x8BE0079C531659141344CD1FD0A4F28419497F9722A3DAAFE3B4186F6B6457E0 PUSH1 0x40 MLOAD PUSH1 0x40 MLOAD DUP1 SWAP2 SUB SWAP1 LOG3 POP POP JUMP JUMPDEST PUSH1 0x0 PUSH2 0x230D DUP5 DUP5 DUP1 DUP1 PUSH1 0x20 MUL PUSH1 0x20 ADD PUSH1 0x40 MLOAD SWAP1 DUP2 ADD PUSH1 0x40 MSTORE DUP1 SWAP4 SWAP3 SWAP2 SWAP1 DUP2 DUP2 MSTORE PUSH1 0x20 ADD DUP4 DUP4 PUSH1 0x20 MUL DUP1 DUP3 DUP5 CALLDATACOPY PUSH1 0x0 DUP2 DUP5 ADD MSTORE PUSH1 0x1F NOT PUSH1 0x1F DUP3 ADD AND SWAP1 POP DUP1 DUP4 ADD SWAP3 POP POP POP POP POP POP POP DUP4 CALLER PUSH1 0x40 MLOAD PUSH1 0x20 ADD PUSH2 0x22F2 SWAP2 SWAP1 PUSH2 0x34DD JUMP JUMPDEST PUSH1 0x40 MLOAD PUSH1 0x20 DUP2 DUP4 SUB SUB DUP2 MSTORE SWAP1 PUSH1 0x40 MSTORE DUP1 MLOAD SWAP1 PUSH1 0x20 ADD KECCAK256 PUSH2 0x24FF JUMP JUMPDEST SWAP1 POP SWAP4 SWAP3 POP POP POP JUMP JUMPDEST PUSH2 0x2330 DUP3 DUP3 PUSH1 0x40 MLOAD DUP1 PUSH1 0x20 ADD PUSH1 0x40 MSTORE DUP1 PUSH1 0x0 DUP2 MSTORE POP PUSH2 0x2516 JUMP JUMPDEST POP POP JUMP JUMPDEST PUSH1 0x0 DUP4 PUSH20 0xFFFFFFFFFFFFFFFFFFFFFFFFFFFFFFFFFFFFFFFF AND PUSH4 0x150B7A02 PUSH2 0x235A PUSH2 0x1C46 JUMP JUMPDEST DUP8 DUP7 DUP7 PUSH1 0x40 MLOAD DUP6 PUSH4 0xFFFFFFFF AND PUSH1 0xE0 SHL DUP2 MSTORE PUSH1 0x4 ADD PUSH2 0x237C SWAP5 SWAP4 SWAP3 SWAP2 SWAP1 PUSH2 0x354D JUMP JUMPDEST PUSH1 0x20 PUSH1 0x40 MLOAD DUP1 DUP4 SUB DUP2 PUSH1 0x0 DUP8 DUP1 EXTCODESIZE ISZERO DUP1 ISZERO PUSH2 0x2396 JUMPI PUSH1 0x0 DUP1 REVERT JUMPDEST POP GAS CALL SWAP3 POP POP POP DUP1 ISZERO PUSH2 0x23C7 JUMPI POP PUSH1 0x40 MLOAD RETURNDATASIZE PUSH1 0x1F NOT PUSH1 0x1F DUP3 ADD AND DUP3 ADD DUP1 PUSH1 0x40 MSTORE POP DUP2 ADD SWAP1 PUSH2 0x23C4 SWAP2 SWAP1 PUSH2 0x35AE JUMP JUMPDEST PUSH1 0x1 JUMPDEST PUSH2 0x2441 JUMPI RETURNDATASIZE DUP1 PUSH1 0x0 DUP2 EQ PUSH2 0x23F7 JUMPI PUSH1 0x40 MLOAD SWAP2 POP PUSH1 0x1F NOT PUSH1 0x3F RETURNDATASIZE ADD AND DUP3 ADD PUSH1 0x40 MSTORE RETURNDATASIZE DUP3 MSTORE RETURNDATASIZE PUSH1 0x0 PUSH1 0x20 DUP5 ADD RETURNDATACOPY PUSH2 0x23FC JUMP JUMPDEST PUSH1 0x60 SWAP2 POP JUMPDEST POP PUSH1 0x0 DUP2 MLOAD EQ ISZERO PUSH2 0x2439 JUMPI PUSH1 0x40 MLOAD PUSH32 0xD1A57ED600000000000000000000000000000000000000000000000000000000 DUP2 MSTORE PUSH1 0x4 ADD PUSH1 0x40 MLOAD DUP1 SWAP2 SUB SWAP1 REVERT JUMPDEST DUP1 MLOAD DUP2 PUSH1 0x20 ADD REVERT JUMPDEST PUSH4 0x150B7A02 PUSH1 0xE0 SHL PUSH28 0xFFFFFFFFFFFFFFFFFFFFFFFFFFFFFFFFFFFFFFFFFFFFFFFFFFFFFFFF NOT AND DUP2 PUSH28 0xFFFFFFFFFFFFFFFFFFFFFFFFFFFFFFFFFFFFFFFFFFFFFFFFFFFFFFFF NOT AND EQ SWAP2 POP POP SWAP5 SWAP4 POP POP POP POP JUMP JUMPDEST PUSH1 0x60 PUSH1 0x80 PUSH1 0x40 MLOAD ADD SWAP1 POP DUP1 PUSH1 0x40 MSTORE DUP1 DUP3 PUSH1 0x1 DUP4 SUB SWAP3 POP PUSH1 0xA DUP2 MOD PUSH1 0x30 ADD DUP4 MSTORE8 PUSH1 0xA DUP2 DIV SWAP1 POP JUMPDEST DUP1 ISZERO PUSH2 0x24DA JUMPI PUSH1 0x1 DUP4 SUB SWAP3 POP PUSH1 0xA DUP2 MOD PUSH1 0x30 ADD DUP4 MSTORE8 PUSH1 0xA DUP2 DIV SWAP1 POP PUSH2 0x24BA JUMP JUMPDEST POP DUP2 DUP2 SUB PUSH1 0x20 DUP4 SUB SWAP3 POP DUP1 DUP4 MSTORE POP POP SWAP2 SWAP1 POP JUMP JUMPDEST PUSH1 0x0 SWAP4 SWAP3 POP POP POP JUMP JUMPDEST PUSH1 0x0 CALLER SWAP1 POP SWAP1 JUMP JUMPDEST PUSH1 0x0 DUP3 PUSH2 0x250C DUP6 DUP5 PUSH2 0x25B3 JUMP JUMPDEST EQ SWAP1 POP SWAP4 SWAP3 POP POP POP JUMP JUMPDEST PUSH2 0x2520 DUP4 DUP4 PUSH2 0x2609 JUMP JUMPDEST PUSH1 0x0 DUP4 PUSH20 0xFFFFFFFFFFFFFFFFFFFFFFFFFFFFFFFFFFFFFFFF AND EXTCODESIZE EQ PUSH2 0x25AE JUMPI PUSH1 0x0 DUP1 SLOAD SWAP1 POP PUSH1 0x0 DUP4 DUP3 SUB SWAP1 POP JUMPDEST PUSH2 0x2560 PUSH1 0x0 DUP7 DUP4 DUP1 PUSH1 0x1 ADD SWAP5 POP DUP7 PUSH2 0x2334 JUMP JUMPDEST PUSH2 0x2596 JUMPI PUSH1 0x40 MLOAD PUSH32 0xD1A57ED600000000000000000000000000000000000000000000000000000000 DUP2 MSTORE PUSH1 0x4 ADD PUSH1 0x40 MLOAD DUP1 SWAP2 SUB SWAP1 REVERT JUMPDEST DUP2 DUP2 LT PUSH2 0x254D JUMPI DUP2 PUSH1 0x0 SLOAD EQ PUSH2 0x25AB JUMPI PUSH1 0x0 DUP1 REVERT JUMPDEST POP POP JUMPDEST POP POP POP JUMP JUMPDEST PUSH1 0x0 DUP1 DUP3 SWAP1 POP PUSH1 0x0 JUMPDEST DUP5 MLOAD DUP2 LT ISZERO PUSH2 0x25FE JUMPI PUSH2 0x25E9 DUP3 DUP7 DUP4 DUP2 MLOAD DUP2 LT PUSH2 0x25DC JUMPI PUSH2 0x25DB PUSH2 0x35DB JUMP JUMPDEST JUMPDEST PUSH1 0x20 MUL PUSH1 0x20 ADD ADD MLOAD PUSH2 0x27C6 JUMP JUMPDEST SWAP2 POP DUP1 DUP1 PUSH2 0x25F6 SWAP1 PUSH2 0x360A JUMP JUMPDEST SWAP2 POP POP PUSH2 0x25BC JUMP JUMPDEST POP DUP1 SWAP2 POP POP SWAP3 SWAP2 POP POP JUMP JUMPDEST PUSH1 0x0 DUP1 SLOAD SWAP1 POP PUSH1 0x0 DUP3 EQ ISZERO PUSH2 0x264A JUMPI PUSH1 0x40 MLOAD PUSH32 0xB562E8DD00000000000000000000000000000000000000000000000000000000 DUP2 MSTORE PUSH1 0x4 ADD PUSH1 0x40 MLOAD DUP1 SWAP2 SUB SWAP1 REVERT JUMPDEST PUSH2 0x2657 PUSH1 0x0 DUP5 DUP4 DUP6 PUSH2 0x1D90 JUMP JUMPDEST PUSH1 0x1 PUSH1 0x40 PUSH1 0x1 SWAP1 SHL OR DUP3 MUL PUSH1 0x5 PUSH1 0x0 DUP6 PUSH20 0xFFFFFFFFFFFFFFFFFFFFFFFFFFFFFFFFFFFFFFFF AND PUSH20 0xFFFFFFFFFFFFFFFFFFFFFFFFFFFFFFFFFFFFFFFF AND DUP2 MSTORE PUSH1 0x20 ADD SWAP1 DUP2 MSTORE PUSH1 0x20 ADD PUSH1 0x0 KECCAK256 PUSH1 0x0 DUP3 DUP3 SLOAD ADD SWAP3 POP POP DUP2 SWAP1 SSTORE POP PUSH2 0x26CE DUP4 PUSH2 0x26BF PUSH1 0x0 DUP7 PUSH1 0x0 PUSH2 0x1D96 JUMP JUMPDEST PUSH2 0x26C8 DUP6 PUSH2 0x27F1 JUMP JUMPDEST OR PUSH2 0x1DBE JUMP JUMPDEST PUSH1 0x4 PUSH1 0x0 DUP4 DUP2 MSTORE PUSH1 0x20 ADD SWAP1 DUP2 MSTORE PUSH1 0x20 ADD PUSH1 0x0 KECCAK256 DUP2 SWAP1 SSTORE POP PUSH1 0x0 DUP1 DUP4 DUP4 ADD SWAP1 POP PUSH20 0xFFFFFFFFFFFFFFFFFFFFFFFFFFFFFFFFFFFFFFFF DUP6 AND SWAP2 POP DUP3 DUP3 PUSH1 0x0 PUSH32 0xDDF252AD1BE2C89B69C2B068FC378DAA952BA7F163C4A11628F55A4DF523B3EF PUSH1 0x0 DUP1 LOG4 PUSH1 0x1 DUP4 ADD JUMPDEST DUP2 DUP2 EQ PUSH2 0x276F JUMPI DUP1 DUP4 PUSH1 0x0 PUSH32 0xDDF252AD1BE2C89B69C2B068FC378DAA952BA7F163C4A11628F55A4DF523B3EF PUSH1 0x0 DUP1 LOG4 PUSH1 0x1 DUP2 ADD SWAP1 POP PUSH2 0x2734 JUMP JUMPDEST POP PUSH1 0x0 DUP3 EQ ISZERO PUSH2 0x27AB JUMPI PUSH1 0x40 MLOAD PUSH32 0x2E07630000000000000000000000000000000000000000000000000000000000 DUP2 MSTORE PUSH1 0x4 ADD PUSH1 0x40 MLOAD DUP1 SWAP2 SUB SWAP1 REVERT JUMPDEST DUP1 PUSH1 0x0 DUP2 SWAP1 SSTORE POP POP POP PUSH2 0x27C1 PUSH1 0x0 DUP5 DUP4 DUP6 PUSH2 0x1DE9 JUMP JUMPDEST POP POP POP JUMP JUMPDEST PUSH1 0x0 DUP2 DUP4 LT PUSH2 0x27DE JUMPI PUSH2 0x27D9 DUP3 DUP5 PUSH2 0x2801 JUMP JUMPDEST PUSH2 0x27E9 JUMP JUMPDEST PUSH2 0x27E8 DUP4 DUP4 PUSH2 0x2801 JUMP JUMPDEST JUMPDEST SWAP1 POP SWAP3 SWAP2 POP POP JUMP JUMPDEST PUSH1 0x0 PUSH1 0x1 DUP3 EQ PUSH1 0xE1 SHL SWAP1 POP SWAP2 SWAP1 POP JUMP JUMPDEST PUSH1 0x0 DUP3 PUSH1 0x0 MSTORE DUP2 PUSH1 0x20 MSTORE PUSH1 0x40 PUSH1 0x0 KECCAK256 SWAP1 POP SWAP3 SWAP2 POP POP JUMP JUMPDEST DUP3 DUP1 SLOAD PUSH2 0x2824 SWAP1 PUSH2 0x3163 JUMP JUMPDEST SWAP1 PUSH1 0x0 MSTORE PUSH1 0x20 PUSH1 0x0 KECCAK256 SWAP1 PUSH1 0x1F ADD PUSH1 0x20 SWAP1 DIV DUP2 ADD SWAP3 DUP3 PUSH2 0x2846 JUMPI PUSH1 0x0 DUP6 SSTORE PUSH2 0x288D JUMP JUMPDEST DUP3 PUSH1 0x1F LT PUSH2 0x285F JUMPI DUP1 MLOAD PUSH1 0xFF NOT AND DUP4 DUP1 ADD OR DUP6 SSTORE PUSH2 0x288D JUMP JUMPDEST DUP3 DUP1 ADD PUSH1 0x1 ADD DUP6 SSTORE DUP3 ISZERO PUSH2 0x288D JUMPI SWAP2 DUP3 ADD JUMPDEST DUP3 DUP2 GT ISZERO PUSH2 0x288C JUMPI DUP3 MLOAD DUP3 SSTORE SWAP2 PUSH1 0x20 ADD SWAP2 SWAP1 PUSH1 0x1 ADD SWAP1 PUSH2 0x2871 JUMP JUMPDEST JUMPDEST POP SWAP1 POP PUSH2 0x289A SWAP2 SWAP1 PUSH2 0x289E JUMP JUMPDEST POP SWAP1 JUMP JUMPDEST JUMPDEST DUP1 DUP3 GT ISZERO PUSH2 0x28B7 JUMPI PUSH1 0x0 DUP2 PUSH1 0x0 SWAP1 SSTORE POP PUSH1 0x1 ADD PUSH2 0x289F JUMP JUMPDEST POP SWAP1 JUMP JUMPDEST PUSH1 0x0 PUSH1 0x40 MLOAD SWAP1 POP SWAP1 JUMP JUMPDEST PUSH1 0x0 DUP1 REVERT JUMPDEST PUSH1 0x0 DUP1 REVERT JUMPDEST PUSH1 0x0 PUSH32 0xFFFFFFFF00000000000000000000000000000000000000000000000000000000 DUP3 AND SWAP1 POP SWAP2 SWAP1 POP JUMP JUMPDEST PUSH2 0x2904 DUP2 PUSH2 0x28CF JUMP JUMPDEST DUP2 EQ PUSH2 0x290F JUMPI PUSH1 0x0 DUP1 REVERT JUMPDEST POP JUMP JUMPDEST PUSH1 0x0 DUP2 CALLDATALOAD SWAP1 POP PUSH2 0x2921 DUP2 PUSH2 0x28FB JUMP JUMPDEST SWAP3 SWAP2 POP POP JUMP JUMPDEST PUSH1 0x0 PUSH1 0x20 DUP3 DUP5 SUB SLT ISZERO PUSH2 0x293D JUMPI PUSH2 0x293C PUSH2 0x28C5 JUMP JUMPDEST JUMPDEST PUSH1 0x0 PUSH2 0x294B DUP5 DUP3 DUP6 ADD PUSH2 0x2912 JUMP JUMPDEST SWAP2 POP POP SWAP3 SWAP2 POP POP JUMP JUMPDEST PUSH1 0x0 DUP2 ISZERO ISZERO SWAP1 POP SWAP2 SWAP1 POP JUMP JUMPDEST PUSH2 0x2969 DUP2 PUSH2 0x2954 JUMP JUMPDEST DUP3 MSTORE POP POP JUMP JUMPDEST PUSH1 0x0 PUSH1 0x20 DUP3 ADD SWAP1 POP PUSH2 0x2984 PUSH1 0x0 DUP4 ADD DUP5 PUSH2 0x2960 JUMP JUMPDEST SWAP3 SWAP2 POP POP JUMP JUMPDEST PUSH1 0x0 DUP2 MLOAD SWAP1 POP SWAP2 SWAP1 POP JUMP JUMPDEST PUSH1 0x0 DUP3 DUP3 MSTORE PUSH1 0x20 DUP3 ADD SWAP1 POP SWAP3 SWAP2 POP POP JUMP JUMPDEST PUSH1 0x0 JUMPDEST DUP4 DUP2 LT ISZERO PUSH2 0x29C4 JUMPI DUP1 DUP3 ADD MLOAD DUP2 DUP5 ADD MSTORE PUSH1 0x20 DUP2 ADD SWAP1 POP PUSH2 0x29A9 JUMP JUMPDEST DUP4 DUP2 GT ISZERO PUSH2 0x29D3 JUMPI PUSH1 0x0 DUP5 DUP5 ADD MSTORE JUMPDEST POP POP POP POP JUMP JUMPDEST PUSH1 0x0 PUSH1 0x1F NOT PUSH1 0x1F DUP4 ADD AND SWAP1 POP SWAP2 SWAP1 POP JUMP JUMPDEST PUSH1 0x0 PUSH2 0x29F5 DUP3 PUSH2 0x298A JUMP JUMPDEST PUSH2 0x29FF DUP2 DUP6 PUSH2 0x2995 JUMP JUMPDEST SWAP4 POP PUSH2 0x2A0F DUP2 DUP6 PUSH1 0x20 DUP7 ADD PUSH2 0x29A6 JUMP JUMPDEST PUSH2 0x2A18 DUP2 PUSH2 0x29D9 JUMP JUMPDEST DUP5 ADD SWAP2 POP POP SWAP3 SWAP2 POP POP JUMP JUMPDEST PUSH1 0x0 PUSH1 0x20 DUP3 ADD SWAP1 POP DUP2 DUP2 SUB PUSH1 0x0 DUP4 ADD MSTORE PUSH2 0x2A3D DUP2 DUP5 PUSH2 0x29EA JUMP JUMPDEST SWAP1 POP SWAP3 SWAP2 POP POP JUMP JUMPDEST PUSH1 0x0 DUP2 SWAP1 POP SWAP2 SWAP1 POP JUMP JUMPDEST PUSH2 0x2A58 DUP2 PUSH2 0x2A45 JUMP JUMPDEST DUP2 EQ PUSH2 0x2A63 JUMPI PUSH1 0x0 DUP1 REVERT JUMPDEST POP JUMP JUMPDEST PUSH1 0x0 DUP2 CALLDATALOAD SWAP1 POP PUSH2 0x2A75 DUP2 PUSH2 0x2A4F JUMP JUMPDEST SWAP3 SWAP2 POP POP JUMP JUMPDEST PUSH1 0x0 PUSH1 0x20 DUP3 DUP5 SUB SLT ISZERO PUSH2 0x2A91 JUMPI PUSH2 0x2A90 PUSH2 0x28C5 JUMP JUMPDEST JUMPDEST PUSH1 0x0 PUSH2 0x2A9F DUP5 DUP3 DUP6 ADD PUSH2 0x2A66 JUMP JUMPDEST SWAP2 POP POP SWAP3 SWAP2 POP POP JUMP JUMPDEST PUSH1 0x0 PUSH20 0xFFFFFFFFFFFFFFFFFFFFFFFFFFFFFFFFFFFFFFFF DUP3 AND SWAP1 POP SWAP2 SWAP1 POP JUMP JUMPDEST PUSH1 0x0 PUSH2 0x2AD3 DUP3 PUSH2 0x2AA8 JUMP JUMPDEST SWAP1 POP SWAP2 SWAP1 POP JUMP JUMPDEST PUSH2 0x2AE3 DUP2 PUSH2 0x2AC8 JUMP JUMPDEST DUP3 MSTORE POP POP JUMP JUMPDEST PUSH1 0x0 PUSH1 0x20 DUP3 ADD SWAP1 POP PUSH2 0x2AFE PUSH1 0x0 DUP4 ADD DUP5 PUSH2 0x2ADA JUMP JUMPDEST SWAP3 SWAP2 POP POP JUMP JUMPDEST PUSH2 0x2B0D DUP2 PUSH2 0x2AC8 JUMP JUMPDEST DUP2 EQ PUSH2 0x2B18 JUMPI PUSH1 0x0 DUP1 REVERT JUMPDEST POP JUMP JUMPDEST PUSH1 0x0 DUP2 CALLDATALOAD SWAP1 POP PUSH2 0x2B2A DUP2 PUSH2 0x2B04 JUMP JUMPDEST SWAP3 SWAP2 POP POP JUMP JUMPDEST PUSH1 0x0 DUP1 PUSH1 0x40 DUP4 DUP6 SUB SLT ISZERO PUSH2 0x2B47 JUMPI PUSH2 0x2B46 PUSH2 0x28C5 JUMP JUMPDEST JUMPDEST PUSH1 0x0 PUSH2 0x2B55 DUP6 DUP3 DUP7 ADD PUSH2 0x2B1B JUMP JUMPDEST SWAP3 POP POP PUSH1 0x20 PUSH2 0x2B66 DUP6 DUP3 DUP7 ADD PUSH2 0x2A66 JUMP JUMPDEST SWAP2 POP POP SWAP3 POP SWAP3 SWAP1 POP JUMP JUMPDEST PUSH2 0x2B79 DUP2 PUSH2 0x2A45 JUMP JUMPDEST DUP3 MSTORE POP POP JUMP JUMPDEST PUSH1 0x0 PUSH1 0x20 DUP3 ADD SWAP1 POP PUSH2 0x2B94 PUSH1 0x0 DUP4 ADD DUP5 PUSH2 0x2B70 JUMP JUMPDEST SWAP3 SWAP2 POP POP JUMP JUMPDEST PUSH32 0x4E487B7100000000000000000000000000000000000000000000000000000000 PUSH1 0x0 MSTORE PUSH1 0x21 PUSH1 0x4 MSTORE PUSH1 0x24 PUSH1 0x0 REVERT JUMPDEST PUSH1 0x3 DUP2 LT PUSH2 0x2BDA JUMPI PUSH2 0x2BD9 PUSH2 0x2B9A JUMP JUMPDEST JUMPDEST POP JUMP JUMPDEST PUSH1 0x0 DUP2 SWAP1 POP PUSH2 0x2BEB DUP3 PUSH2 0x2BC9 JUMP JUMPDEST SWAP2 SWAP1 POP JUMP JUMPDEST PUSH1 0x0 PUSH2 0x2BFB DUP3 PUSH2 0x2BDD JUMP JUMPDEST SWAP1 POP SWAP2 SWAP1 POP JUMP JUMPDEST PUSH2 0x2C0B DUP2 PUSH2 0x2BF0 JUMP JUMPDEST DUP3 MSTORE POP POP JUMP JUMPDEST PUSH1 0x0 PUSH1 0x20 DUP3 ADD SWAP1 POP PUSH2 0x2C26 PUSH1 0x0 DUP4 ADD DUP5 PUSH2 0x2C02 JUMP JUMPDEST SWAP3 SWAP2 POP POP JUMP JUMPDEST PUSH1 0x0 DUP1 PUSH1 0x0 PUSH1 0x60 DUP5 DUP7 SUB SLT ISZERO PUSH2 0x2C45 JUMPI PUSH2 0x2C44 PUSH2 0x28C5 JUMP JUMPDEST JUMPDEST PUSH1 0x0 PUSH2 0x2C53 DUP7 DUP3 DUP8 ADD PUSH2 0x2B1B JUMP JUMPDEST SWAP4 POP POP PUSH1 0x20 PUSH2 0x2C64 DUP7 DUP3 DUP8 ADD PUSH2 0x2B1B JUMP JUMPDEST SWAP3 POP POP PUSH1 0x40 PUSH2 0x2C75 DUP7 DUP3 DUP8 ADD PUSH2 0x2A66 JUMP JUMPDEST SWAP2 POP POP SWAP3 POP SWAP3 POP SWAP3 JUMP JUMPDEST PUSH1 0x0 PUSH1 0x20 DUP3 DUP5 SUB SLT ISZERO PUSH2 0x2C95 JUMPI PUSH2 0x2C94 PUSH2 0x28C5 JUMP JUMPDEST JUMPDEST PUSH1 0x0 PUSH2 0x2CA3 DUP5 DUP3 DUP6 ADD PUSH2 0x2B1B JUMP JUMPDEST SWAP2 POP POP SWAP3 SWAP2 POP POP JUMP JUMPDEST PUSH1 0x0 DUP2 SWAP1 POP SWAP2 SWAP1 POP JUMP JUMPDEST PUSH2 0x2CBF DUP2 PUSH2 0x2CAC JUMP JUMPDEST DUP2 EQ PUSH2 0x2CCA JUMPI PUSH1 0x0 DUP1 REVERT JUMPDEST POP JUMP JUMPDEST PUSH1 0x0 DUP2 CALLDATALOAD SWAP1 POP PUSH2 0x2CDC DUP2 PUSH2 0x2CB6 JUMP JUMPDEST SWAP3 SWAP2 POP POP JUMP JUMPDEST PUSH1 0x0 PUSH1 0x20 DUP3 DUP5 SUB SLT ISZERO PUSH2 0x2CF8 JUMPI PUSH2 0x2CF7 PUSH2 0x28C5 JUMP JUMPDEST JUMPDEST PUSH1 0x0 PUSH2 0x2D06 DUP5 DUP3 DUP6 ADD PUSH2 0x2CCD JUMP JUMPDEST SWAP2 POP POP SWAP3 SWAP2 POP POP JUMP JUMPDEST PUSH1 0x0 DUP1 REVERT JUMPDEST PUSH1 0x0 DUP1 REVERT JUMPDEST PUSH32 0x4E487B7100000000000000000000000000000000000000000000000000000000 PUSH1 0x0 MSTORE PUSH1 0x41 PUSH1 0x4 MSTORE PUSH1 0x24 PUSH1 0x0 REVERT JUMPDEST PUSH2 0x2D51 DUP3 PUSH2 0x29D9 JUMP JUMPDEST DUP2 ADD DUP2 DUP2 LT PUSH8 0xFFFFFFFFFFFFFFFF DUP3 GT OR ISZERO PUSH2 0x2D70 JUMPI PUSH2 0x2D6F PUSH2 0x2D19 JUMP JUMPDEST JUMPDEST DUP1 PUSH1 0x40 MSTORE POP POP POP JUMP JUMPDEST PUSH1 0x0 PUSH2 0x2D83 PUSH2 0x28BB JUMP JUMPDEST SWAP1 POP PUSH2 0x2D8F DUP3 DUP3 PUSH2 0x2D48 JUMP JUMPDEST SWAP2 SWAP1 POP JUMP JUMPDEST PUSH1 0x0 PUSH8 0xFFFFFFFFFFFFFFFF DUP3 GT ISZERO PUSH2 0x2DAF JUMPI PUSH2 0x2DAE PUSH2 0x2D19 JUMP JUMPDEST JUMPDEST PUSH2 0x2DB8 DUP3 PUSH2 0x29D9 JUMP JUMPDEST SWAP1 POP PUSH1 0x20 DUP2 ADD SWAP1 POP SWAP2 SWAP1 POP JUMP JUMPDEST DUP3 DUP2 DUP4 CALLDATACOPY PUSH1 0x0 DUP4 DUP4 ADD MSTORE POP POP POP JUMP JUMPDEST PUSH1 0x0 PUSH2 0x2DE7 PUSH2 0x2DE2 DUP5 PUSH2 0x2D94 JUMP JUMPDEST PUSH2 0x2D79 JUMP JUMPDEST SWAP1 POP DUP3 DUP2 MSTORE PUSH1 0x20 DUP2 ADD DUP5 DUP5 DUP5 ADD GT ISZERO PUSH2 0x2E03 JUMPI PUSH2 0x2E02 PUSH2 0x2D14 JUMP JUMPDEST JUMPDEST PUSH2 0x2E0E DUP5 DUP3 DUP6 PUSH2 0x2DC5 JUMP JUMPDEST POP SWAP4 SWAP3 POP POP POP JUMP JUMPDEST PUSH1 0x0 DUP3 PUSH1 0x1F DUP4 ADD SLT PUSH2 0x2E2B JUMPI PUSH2 0x2E2A PUSH2 0x2D0F JUMP JUMPDEST JUMPDEST DUP2 CALLDATALOAD PUSH2 0x2E3B DUP5 DUP3 PUSH1 0x20 DUP7 ADD PUSH2 0x2DD4 JUMP JUMPDEST SWAP2 POP POP SWAP3 SWAP2 POP POP JUMP JUMPDEST PUSH1 0x0 PUSH1 0x20 DUP3 DUP5 SUB SLT ISZERO PUSH2 0x2E5A JUMPI PUSH2 0x2E59 PUSH2 0x28C5 JUMP JUMPDEST JUMPDEST PUSH1 0x0 DUP3 ADD CALLDATALOAD PUSH8 0xFFFFFFFFFFFFFFFF DUP2 GT ISZERO PUSH2 0x2E78 JUMPI PUSH2 0x2E77 PUSH2 0x28CA JUMP JUMPDEST JUMPDEST PUSH2 0x2E84 DUP5 DUP3 DUP6 ADD PUSH2 0x2E16 JUMP JUMPDEST SWAP2 POP POP SWAP3 SWAP2 POP POP JUMP JUMPDEST PUSH2 0x2E96 DUP2 PUSH2 0x2CAC JUMP JUMPDEST DUP3 MSTORE POP POP JUMP JUMPDEST PUSH1 0x0 PUSH1 0x20 DUP3 ADD SWAP1 POP PUSH2 0x2EB1 PUSH1 0x0 DUP4 ADD DUP5 PUSH2 0x2E8D JUMP JUMPDEST SWAP3 SWAP2 POP POP JUMP JUMPDEST PUSH1 0x0 DUP1 REVERT JUMPDEST PUSH1 0x0 DUP1 REVERT JUMPDEST PUSH1 0x0 DUP1 DUP4 PUSH1 0x1F DUP5 ADD SLT PUSH2 0x2ED7 JUMPI PUSH2 0x2ED6 PUSH2 0x2D0F JUMP JUMPDEST JUMPDEST DUP3 CALLDATALOAD SWAP1 POP PUSH8 0xFFFFFFFFFFFFFFFF DUP2 GT ISZERO PUSH2 0x2EF4 JUMPI PUSH2 0x2EF3 PUSH2 0x2EB7 JUMP JUMPDEST JUMPDEST PUSH1 0x20 DUP4 ADD SWAP2 POP DUP4 PUSH1 0x20 DUP3 MUL DUP4 ADD GT ISZERO PUSH2 0x2F10 JUMPI PUSH2 0x2F0F PUSH2 0x2EBC JUMP JUMPDEST JUMPDEST SWAP3 POP SWAP3 SWAP1 POP JUMP JUMPDEST PUSH1 0x0 DUP1 PUSH1 0x20 DUP4 DUP6 SUB SLT ISZERO PUSH2 0x2F2E JUMPI PUSH2 0x2F2D PUSH2 0x28C5 JUMP JUMPDEST JUMPDEST PUSH1 0x0 DUP4 ADD CALLDATALOAD PUSH8 0xFFFFFFFFFFFFFFFF DUP2 GT ISZERO PUSH2 0x2F4C JUMPI PUSH2 0x2F4B PUSH2 0x28CA JUMP JUMPDEST JUMPDEST PUSH2 0x2F58 DUP6 DUP3 DUP7 ADD PUSH2 0x2EC1 JUMP JUMPDEST SWAP3 POP SWAP3 POP POP SWAP3 POP SWAP3 SWAP1 POP JUMP JUMPDEST PUSH2 0x2F6D DUP2 PUSH2 0x2954 JUMP JUMPDEST DUP2 EQ PUSH2 0x2F78 JUMPI PUSH1 0x0 DUP1 REVERT JUMPDEST POP JUMP JUMPDEST PUSH1 0x0 DUP2 CALLDATALOAD SWAP1 POP PUSH2 0x2F8A DUP2 PUSH2 0x2F64 JUMP JUMPDEST SWAP3 SWAP2 POP POP JUMP JUMPDEST PUSH1 0x0 DUP1 PUSH1 0x40 DUP4 DUP6 SUB SLT ISZERO PUSH2 0x2FA7 JUMPI PUSH2 0x2FA6 PUSH2 0x28C5 JUMP JUMPDEST JUMPDEST PUSH1 0x0 PUSH2 0x2FB5 DUP6 DUP3 DUP7 ADD PUSH2 0x2B1B JUMP JUMPDEST SWAP3 POP POP PUSH1 0x20 PUSH2 0x2FC6 DUP6 DUP3 DUP7 ADD PUSH2 0x2F7B JUMP JUMPDEST SWAP2 POP POP SWAP3 POP SWAP3 SWAP1 POP JUMP JUMPDEST PUSH1 0x0 PUSH8 0xFFFFFFFFFFFFFFFF DUP3 GT ISZERO PUSH2 0x2FEB JUMPI PUSH2 0x2FEA PUSH2 0x2D19 JUMP JUMPDEST JUMPDEST PUSH2 0x2FF4 DUP3 PUSH2 0x29D9 JUMP JUMPDEST SWAP1 POP PUSH1 0x20 DUP2 ADD SWAP1 POP SWAP2 SWAP1 POP JUMP JUMPDEST PUSH1 0x0 PUSH2 0x3014 PUSH2 0x300F DUP5 PUSH2 0x2FD0 JUMP JUMPDEST PUSH2 0x2D79 JUMP JUMPDEST SWAP1 POP DUP3 DUP2 MSTORE PUSH1 0x20 DUP2 ADD DUP5 DUP5 DUP5 ADD GT ISZERO PUSH2 0x3030 JUMPI PUSH2 0x302F PUSH2 0x2D14 JUMP JUMPDEST JUMPDEST PUSH2 0x303B DUP5 DUP3 DUP6 PUSH2 0x2DC5 JUMP JUMPDEST POP SWAP4 SWAP3 POP POP POP JUMP JUMPDEST PUSH1 0x0 DUP3 PUSH1 0x1F DUP4 ADD SLT PUSH2 0x3058 JUMPI PUSH2 0x3057 PUSH2 0x2D0F JUMP JUMPDEST JUMPDEST DUP2 CALLDATALOAD PUSH2 0x3068 DUP5 DUP3 PUSH1 0x20 DUP7 ADD PUSH2 0x3001 JUMP JUMPDEST SWAP2 POP POP SWAP3 SWAP2 POP POP JUMP JUMPDEST PUSH1 0x0 DUP1 PUSH1 0x0 DUP1 PUSH1 0x80 DUP6 DUP8 SUB SLT ISZERO PUSH2 0x308B JUMPI PUSH2 0x308A PUSH2 0x28C5 JUMP JUMPDEST JUMPDEST PUSH1 0x0 PUSH2 0x3099 DUP8 DUP3 DUP9 ADD PUSH2 0x2B1B JUMP JUMPDEST SWAP5 POP POP PUSH1 0x20 PUSH2 0x30AA DUP8 DUP3 DUP9 ADD PUSH2 0x2B1B JUMP JUMPDEST SWAP4 POP POP PUSH1 0x40 PUSH2 0x30BB DUP8 DUP3 DUP9 ADD PUSH2 0x2A66 JUMP JUMPDEST SWAP3 POP POP PUSH1 0x60 DUP6 ADD CALLDATALOAD PUSH8 0xFFFFFFFFFFFFFFFF DUP2 GT ISZERO PUSH2 0x30DC JUMPI PUSH2 0x30DB PUSH2 0x28CA JUMP JUMPDEST JUMPDEST PUSH2 0x30E8 DUP8 DUP3 DUP9 ADD PUSH2 0x3043 JUMP JUMPDEST SWAP2 POP POP SWAP3 SWAP6 SWAP2 SWAP5 POP SWAP3 POP JUMP JUMPDEST PUSH1 0x0 DUP1 PUSH1 0x40 DUP4 DUP6 SUB SLT ISZERO PUSH2 0x310B JUMPI PUSH2 0x310A PUSH2 0x28C5 JUMP JUMPDEST JUMPDEST PUSH1 0x0 PUSH2 0x3119 DUP6 DUP3 DUP7 ADD PUSH2 0x2B1B JUMP JUMPDEST SWAP3 POP POP PUSH1 0x20 PUSH2 0x312A DUP6 DUP3 DUP7 ADD PUSH2 0x2B1B JUMP JUMPDEST SWAP2 POP POP SWAP3 POP SWAP3 SWAP1 POP JUMP JUMPDEST PUSH32 0x4E487B7100000000000000000000000000000000000000000000000000000000 PUSH1 0x0 MSTORE PUSH1 0x22 PUSH1 0x4 MSTORE PUSH1 0x24 PUSH1 0x0 REVERT JUMPDEST PUSH1 0x0 PUSH1 0x2 DUP3 DIV SWAP1 POP PUSH1 0x1 DUP3 AND DUP1 PUSH2 0x317B JUMPI PUSH1 0x7F DUP3 AND SWAP2 POP JUMPDEST PUSH1 0x20 DUP3 LT DUP2 EQ ISZERO PUSH2 0x318F JUMPI PUSH2 0x318E PUSH2 0x3134 JUMP JUMPDEST JUMPDEST POP SWAP2 SWAP1 POP JUMP JUMPDEST PUSH32 0x5265656E7472616E637947756172643A207265656E7472616E742063616C6C00 PUSH1 0x0 DUP3 ADD MSTORE POP JUMP JUMPDEST PUSH1 0x0 PUSH2 0x31CB PUSH1 0x1F DUP4 PUSH2 0x2995 JUMP JUMPDEST SWAP2 POP PUSH2 0x31D6 DUP3 PUSH2 0x3195 JUMP JUMPDEST PUSH1 0x20 DUP3 ADD SWAP1 POP SWAP2 SWAP1 POP JUMP JUMPDEST PUSH1 0x0 PUSH1 0x20 DUP3 ADD SWAP1 POP DUP2 DUP2 SUB PUSH1 0x0 DUP4 ADD MSTORE PUSH2 0x31FA DUP2 PUSH2 0x31BE JUMP JUMPDEST SWAP1 POP SWAP2 SWAP1 POP JUMP JUMPDEST PUSH1 0x0 DUP2 SWAP1 POP SWAP3 SWAP2 POP POP JUMP JUMPDEST PUSH1 0x0 PUSH2 0x3217 DUP3 PUSH2 0x298A JUMP JUMPDEST PUSH2 0x3221 DUP2 DUP6 PUSH2 0x3201 JUMP JUMPDEST SWAP4 POP PUSH2 0x3231 DUP2 DUP6 PUSH1 0x20 DUP7 ADD PUSH2 0x29A6 JUMP JUMPDEST DUP1 DUP5 ADD SWAP2 POP POP SWAP3 SWAP2 POP POP JUMP JUMPDEST PUSH32 0x2E6A736F6E000000000000000000000000000000000000000000000000000000 PUSH1 0x0 DUP3 ADD MSTORE POP JUMP JUMPDEST PUSH1 0x0 PUSH2 0x3273 PUSH1 0x5 DUP4 PUSH2 0x3201 JUMP JUMPDEST SWAP2 POP PUSH2 0x327E DUP3 PUSH2 0x323D JUMP JUMPDEST PUSH1 0x5 DUP3 ADD SWAP1 POP SWAP2 SWAP1 POP JUMP JUMPDEST PUSH1 0x0 PUSH2 0x3295 DUP3 DUP6 PUSH2 0x320C JUMP JUMPDEST SWAP2 POP PUSH2 0x32A1 DUP3 DUP5 PUSH2 0x320C JUMP JUMPDEST SWAP2 POP PUSH2 0x32AC DUP3 PUSH2 0x3266 JUMP JUMPDEST SWAP2 POP DUP2 SWAP1 POP SWAP4 SWAP3 POP POP POP JUMP JUMPDEST PUSH32 0x4E487B7100000000000000000000000000000000000000000000000000000000 PUSH1 0x0 MSTORE PUSH1 0x11 PUSH1 0x4 MSTORE PUSH1 0x24 PUSH1 0x0 REVERT JUMPDEST PUSH1 0x0 PUSH2 0x32F2 DUP3 PUSH2 0x2A45 JUMP JUMPDEST SWAP2 POP PUSH2 0x32FD DUP4 PUSH2 0x2A45 JUMP JUMPDEST SWAP3 POP DUP3 PUSH32 0xFFFFFFFFFFFFFFFFFFFFFFFFFFFFFFFFFFFFFFFFFFFFFFFFFFFFFFFFFFFFFFFF SUB DUP3 GT ISZERO PUSH2 0x3332 JUMPI PUSH2 0x3331 PUSH2 0x32B8 JUMP JUMPDEST JUMPDEST DUP3 DUP3 ADD SWAP1 POP SWAP3 SWAP2 POP POP JUMP JUMPDEST PUSH32 0x4F776E61626C653A206E6577206F776E657220697320746865207A65726F2061 PUSH1 0x0 DUP3 ADD MSTORE PUSH32 0x6464726573730000000000000000000000000000000000000000000000000000 PUSH1 0x20 DUP3 ADD MSTORE POP JUMP JUMPDEST PUSH1 0x0 PUSH2 0x3399 PUSH1 0x26 DUP4 PUSH2 0x2995 JUMP JUMPDEST SWAP2 POP PUSH2 0x33A4 DUP3 PUSH2 0x333D JUMP JUMPDEST PUSH1 0x40 DUP3 ADD SWAP1 POP SWAP2 SWAP1 POP JUMP JUMPDEST PUSH1 0x0 PUSH1 0x20 DUP3 ADD SWAP1 POP DUP2 DUP2 SUB PUSH1 0x0 DUP4 ADD MSTORE PUSH2 0x33C8 DUP2 PUSH2 0x338C JUMP JUMPDEST SWAP1 POP SWAP2 SWAP1 POP JUMP JUMPDEST PUSH1 0x0 PUSH2 0x33DA DUP3 PUSH2 0x2A45 JUMP JUMPDEST SWAP2 POP PUSH2 0x33E5 DUP4 PUSH2 0x2A45 JUMP JUMPDEST SWAP3 POP DUP2 PUSH32 0xFFFFFFFFFFFFFFFFFFFFFFFFFFFFFFFFFFFFFFFFFFFFFFFFFFFFFFFFFFFFFFFF DIV DUP4 GT DUP3 ISZERO ISZERO AND ISZERO PUSH2 0x341E JUMPI PUSH2 0x341D PUSH2 0x32B8 JUMP JUMPDEST JUMPDEST DUP3 DUP3 MUL SWAP1 POP SWAP3 SWAP2 POP POP JUMP JUMPDEST PUSH32 0x4F776E61626C653A2063616C6C6572206973206E6F7420746865206F776E6572 PUSH1 0x0 DUP3 ADD MSTORE POP JUMP JUMPDEST PUSH1 0x0 PUSH2 0x345F PUSH1 0x20 DUP4 PUSH2 0x2995 JUMP JUMPDEST SWAP2 POP PUSH2 0x346A DUP3 PUSH2 0x3429 JUMP JUMPDEST PUSH1 0x20 DUP3 ADD SWAP1 POP SWAP2 SWAP1 POP JUMP JUMPDEST PUSH1 0x0 PUSH1 0x20 DUP3 ADD SWAP1 POP DUP2 DUP2 SUB PUSH1 0x0 DUP4 ADD MSTORE PUSH2 0x348E DUP2 PUSH2 0x3452 JUMP JUMPDEST SWAP1 POP SWAP2 SWAP1 POP JUMP JUMPDEST PUSH1 0x0 DUP2 PUSH1 0x60 SHL SWAP1 POP SWAP2 SWAP1 POP JUMP JUMPDEST PUSH1 0x0 PUSH2 0x34AD DUP3 PUSH2 0x3495 JUMP JUMPDEST SWAP1 POP SWAP2 SWAP1 POP JUMP JUMPDEST PUSH1 0x0 PUSH2 0x34BF DUP3 PUSH2 0x34A2 JUMP JUMPDEST SWAP1 POP SWAP2 SWAP1 POP JUMP JUMPDEST PUSH2 0x34D7 PUSH2 0x34D2 DUP3 PUSH2 0x2AC8 JUMP JUMPDEST PUSH2 0x34B4 JUMP JUMPDEST DUP3 MSTORE POP POP JUMP JUMPDEST PUSH1 0x0 PUSH2 0x34E9 DUP3 DUP5 PUSH2 0x34C6 JUMP JUMPDEST PUSH1 0x14 DUP3 ADD SWAP2 POP DUP2 SWAP1 POP SWAP3 SWAP2 POP POP JUMP JUMPDEST PUSH1 0x0 DUP2 MLOAD SWAP1 POP SWAP2 SWAP1 POP JUMP JUMPDEST PUSH1 0x0 DUP3 DUP3 MSTORE PUSH1 0x20 DUP3 ADD SWAP1 POP SWAP3 SWAP2 POP POP JUMP JUMPDEST PUSH1 0x0 PUSH2 0x351F DUP3 PUSH2 0x34F8 JUMP JUMPDEST PUSH2 0x3529 DUP2 DUP6 PUSH2 0x3503 JUMP JUMPDEST SWAP4 POP PUSH2 0x3539 DUP2 DUP6 PUSH1 0x20 DUP7 ADD PUSH2 0x29A6 JUMP JUMPDEST PUSH2 0x3542 DUP2 PUSH2 0x29D9 JUMP JUMPDEST DUP5 ADD SWAP2 POP POP SWAP3 SWAP2 POP POP JUMP JUMPDEST PUSH1 0x0 PUSH1 0x80 DUP3 ADD SWAP1 POP PUSH2 0x3562 PUSH1 0x0 DUP4 ADD DUP8 PUSH2 0x2ADA JUMP JUMPDEST PUSH2 0x356F PUSH1 0x20 DUP4 ADD DUP7 PUSH2 0x2ADA JUMP JUMPDEST PUSH2 0x357C PUSH1 0x40 DUP4 ADD DUP6 PUSH2 0x2B70 JUMP JUMPDEST DUP2 DUP2 SUB PUSH1 0x60 DUP4 ADD MSTORE PUSH2 0x358E DUP2 DUP5 PUSH2 0x3514 JUMP JUMPDEST SWAP1 POP SWAP6 SWAP5 POP POP POP POP POP JUMP JUMPDEST PUSH1 0x0 DUP2 MLOAD SWAP1 POP PUSH2 0x35A8 DUP2 PUSH2 0x28FB JUMP JUMPDEST SWAP3 SWAP2 POP POP JUMP JUMPDEST PUSH1 0x0 PUSH1 0x20 DUP3 DUP5 SUB SLT ISZERO PUSH2 0x35C4 JUMPI PUSH2 0x35C3 PUSH2 0x28C5 JUMP JUMPDEST JUMPDEST PUSH1 0x0 PUSH2 0x35D2 DUP5 DUP3 DUP6 ADD PUSH2 0x3599 JUMP JUMPDEST SWAP2 POP POP SWAP3 SWAP2 POP POP JUMP JUMPDEST PUSH32 0x4E487B7100000000000000000000000000000000000000000000000000000000 PUSH1 0x0 MSTORE PUSH1 0x32 PUSH1 0x4 MSTORE PUSH1 0x24 PUSH1 0x0 REVERT JUMPDEST PUSH1 0x0 PUSH2 0x3615 DUP3 PUSH2 0x2A45 JUMP JUMPDEST SWAP2 POP PUSH32 0xFFFFFFFFFFFFFFFFFFFFFFFFFFFFFFFFFFFFFFFFFFFFFFFFFFFFFFFFFFFFFFFF DUP3 EQ ISZERO PUSH2 0x3648 JUMPI PUSH2 0x3647 PUSH2 0x32B8 JUMP JUMPDEST JUMPDEST PUSH1 0x1 DUP3 ADD SWAP1 POP SWAP2 SWAP1 POP JUMP INVALID LOG2 PUSH5 0x6970667358 0x22 SLT KECCAK256 SHR PUSH32 0x75E2623CCE7A765C2260272E1D9AEA9EF2272933391FE63FAC0BEA0207496473 PUSH16 0x6C634300080900330000000000000000 "
        },
        "methodIdentifiers": {
          "approve(address,uint256)": "095ea7b3",
          "balanceOf(address)": "70a08231",
          "baseURI()": "6c0360eb",
          "getApproved(uint256)": "081812fc",
          "getCurrentTokenId()": "56189236",
          "getHasMintedFree(address)": "374bc20b",
          "getHasMintedSale(address)": "4d721690",
          "getHasMintedWhiteList(address)": "f524d6cd",
          "isApprovedForAll(address,address)": "e985e9c5",
          "name()": "06fdde03",
          "owner()": "8da5cb5b",
          "ownerMint(uint256)": "f19e75d4",
          "ownerOf(uint256)": "6352211e",
          "price()": "a035b1fe",
          "publicMint(uint256)": "2db11544",
          "renounceOwnership()": "715018a6",
          "safeTransferFrom(address,address,uint256)": "42842e0e",
          "safeTransferFrom(address,address,uint256,bytes)": "b88d4fde",
          "setApprovalForAll(address,bool)": "a22cb465",
          "setBaseURI(string)": "55f804b3",
          "setPrice(uint256)": "91b7f5ed",
          "setStatus(uint256)": "69ba1a75",
          "setTotalSupply(uint256)": "f7ea7a3d",
          "setWhiteListRoot(bytes32)": "45149bb3",
          "status()": "200d2ed2",
          "supportsInterface(bytes4)": "01ffc9a7",
          "symbol()": "95d89b41",
          "tokenURI(uint256)": "c87b56dd",
          "totalSupply()": "18160ddd",
          "transferFrom(address,address,uint256)": "23b872dd",
          "transferOwnership(address)": "f2fde38b",
          "whiteListMint(bytes32[])": "97254e55",
          "whiteListRoot()": "65f4fd12",
          "withdraw()": "3ccfd60b"
        }
      }
    }
  }
}