{
  "_format": "hh-sol-artifact-1",
  "contractName": "NotMafia",
  "sourceName": "contracts/NotMafia.sol",
  "abi": [
    {
      "inputs": [],
      "stateMutability": "nonpayable",
      "type": "constructor"
    },
    {
      "inputs": [],
      "name": "AlreadyMintedMaxInPhase",
      "type": "error"
    },
    {
      "inputs": [],
      "name": "AmountNotAvailable",
      "type": "error"
    },
    {
      "inputs": [],
      "name": "ApprovalCallerNotOwnerNorApproved",
      "type": "error"
    },
    {
      "inputs": [],
      "name": "ApprovalQueryForNonexistentToken",
      "type": "error"
    },
    {
      "inputs": [],
      "name": "ApproveToCaller",
      "type": "error"
    },
    {
      "inputs": [],
      "name": "BalanceQueryForZeroAddress",
      "type": "error"
    },
    {
      "inputs": [],
      "name": "MintERC2309QuantityExceedsLimit",
      "type": "error"
    },
    {
      "inputs": [],
      "name": "MintToZeroAddress",
      "type": "error"
    },
    {
      "inputs": [],
      "name": "MintZeroQuantity",
      "type": "error"
    },
    {
      "inputs": [],
      "name": "NotWhiteListed",
      "type": "error"
    },
    {
      "inputs": [],
      "name": "OnlyUserMint",
      "type": "error"
    },
    {
      "inputs": [],
      "name": "OwnerQueryForNonexistentToken",
      "type": "error"
    },
    {
      "inputs": [],
      "name": "OwnershipNotInitializedForExtraData",
      "type": "error"
    },
    {
      "inputs": [],
      "name": "TransferCallerNotOwnerNorApproved",
      "type": "error"
    },
    {
      "inputs": [],
      "name": "TransferFromIncorrectOwner",
      "type": "error"
    },
    {
      "inputs": [],
      "name": "TransferToNonERC721ReceiverImplementer",
      "type": "error"
    },
    {
      "inputs": [],
      "name": "TransferToZeroAddress",
      "type": "error"
    },
    {
      "inputs": [],
      "name": "URIQueryForNonexistentToken",
      "type": "error"
    },
    {
      "inputs": [],
      "name": "ValueNotEqualToPrice",
      "type": "error"
    },
    {
      "inputs": [],
      "name": "WouldExceedMaxPerWallet",
      "type": "error"
    },
    {
      "inputs": [],
      "name": "WrongMintFunction",
      "type": "error"
    },
    {
      "anonymous": false,
      "inputs": [
        {
          "indexed": true,
          "internalType": "address",
          "name": "owner",
          "type": "address"
        },
        {
          "indexed": true,
          "internalType": "address",
          "name": "approved",
          "type": "address"
        },
        {
          "indexed": true,
          "internalType": "uint256",
          "name": "tokenId",
          "type": "uint256"
        }
      ],
      "name": "Approval",
      "type": "event"
    },
    {
      "anonymous": false,
      "inputs": [
        {
          "indexed": true,
          "internalType": "address",
          "name": "owner",
          "type": "address"
        },
        {
          "indexed": true,
          "internalType": "address",
          "name": "operator",
          "type": "address"
        },
        {
          "indexed": false,
          "internalType": "bool",
          "name": "approved",
          "type": "bool"
        }
      ],
      "name": "ApprovalForAll",
      "type": "event"
    },
    {
      "anonymous": false,
      "inputs": [
        {
          "indexed": false,
          "internalType": "uint256",
          "name": "newStatus",
          "type": "uint256"
        }
      ],
      "name": "ChangedStatus",
      "type": "event"
    },
    {
      "anonymous": false,
      "inputs": [
        {
          "indexed": true,
          "internalType": "uint256",
          "name": "fromTokenId",
          "type": "uint256"
        },
        {
          "indexed": false,
          "internalType": "uint256",
          "name": "toTokenId",
          "type": "uint256"
        },
        {
          "indexed": true,
          "internalType": "address",
          "name": "from",
          "type": "address"
        },
        {
          "indexed": true,
          "internalType": "address",
          "name": "to",
          "type": "address"
        }
      ],
      "name": "ConsecutiveTransfer",
      "type": "event"
    },
    {
      "anonymous": false,
      "inputs": [
        {
          "indexed": true,
          "internalType": "address",
          "name": "previousOwner",
          "type": "address"
        },
        {
          "indexed": true,
          "internalType": "address",
          "name": "newOwner",
          "type": "address"
        }
      ],
      "name": "OwnershipTransferred",
      "type": "event"
    },
    {
      "anonymous": false,
      "inputs": [
        {
          "indexed": true,
          "internalType": "address",
          "name": "from",
          "type": "address"
        },
        {
          "indexed": true,
          "internalType": "address",
          "name": "to",
          "type": "address"
        },
        {
          "indexed": true,
          "internalType": "uint256",
          "name": "tokenId",
          "type": "uint256"
        }
      ],
      "name": "Transfer",
      "type": "event"
    },
    {
      "inputs": [
        {
          "internalType": "address",
          "name": "to",
          "type": "address"
        },
        {
          "internalType": "uint256",
          "name": "tokenId",
          "type": "uint256"
        }
      ],
      "name": "approve",
      "outputs": [],
      "stateMutability": "nonpayable",
      "type": "function"
    },
    {
      "inputs": [
        {
          "internalType": "address",
          "name": "owner",
          "type": "address"
        }
      ],
      "name": "balanceOf",
      "outputs": [
        {
          "internalType": "uint256",
          "name": "",
          "type": "uint256"
        }
      ],
      "stateMutability": "view",
      "type": "function"
    },
    {
      "inputs": [],
      "name": "baseURI",
      "outputs": [
        {
          "internalType": "string",
          "name": "",
          "type": "string"
        }
      ],
      "stateMutability": "view",
      "type": "function"
    },
    {
      "inputs": [
        {
          "internalType": "uint256",
          "name": "tokenId",
          "type": "uint256"
        }
      ],
      "name": "getApproved",
      "outputs": [
        {
          "internalType": "address",
          "name": "",
          "type": "address"
        }
      ],
      "stateMutability": "view",
      "type": "function"
    },
    {
      "inputs": [],
      "name": "getCurrentTokenId",
      "outputs": [
        {
          "internalType": "uint256",
          "name": "",
          "type": "uint256"
        }
      ],
      "stateMutability": "view",
      "type": "function"
    },
    {
      "inputs": [
        {
          "internalType": "address",
          "name": "__address",
          "type": "address"
        }
      ],
      "name": "getHasMintedFree",
      "outputs": [
        {
          "internalType": "bool",
          "name": "",
          "type": "bool"
        }
      ],
      "stateMutability": "view",
      "type": "function"
    },
    {
      "inputs": [
        {
          "internalType": "address",
          "name": "__address",
          "type": "address"
        }
      ],
      "name": "getHasMintedSale",
      "outputs": [
        {
          "internalType": "uint256",
          "name": "",
          "type": "uint256"
        }
      ],
      "stateMutability": "view",
      "type": "function"
    },
    {
      "inputs": [
        {
          "internalType": "address",
          "name": "__address",
          "type": "address"
        }
      ],
      "name": "getHasMintedWhiteList",
      "outputs": [
        {
          "internalType": "bool",
          "name": "",
          "type": "bool"
        }
      ],
      "stateMutability": "view",
      "type": "function"
    },
    {
      "inputs": [
        {
          "internalType": "address",
          "name": "owner",
          "type": "address"
        },
        {
          "internalType": "address",
          "name": "operator",
          "type": "address"
        }
      ],
      "name": "isApprovedForAll",
      "outputs": [
        {
          "internalType": "bool",
          "name": "",
          "type": "bool"
        }
      ],
      "stateMutability": "view",
      "type": "function"
    },
    {
      "inputs": [],
      "name": "name",
      "outputs": [
        {
          "internalType": "string",
          "name": "",
          "type": "string"
        }
      ],
      "stateMutability": "view",
      "type": "function"
    },
    {
      "inputs": [],
      "name": "owner",
      "outputs": [
        {
          "internalType": "address",
          "name": "",
          "type": "address"
        }
      ],
      "stateMutability": "view",
      "type": "function"
    },
    {
      "inputs": [
        {
          "internalType": "uint256",
          "name": "__amount",
          "type": "uint256"
        }
      ],
      "name": "ownerMint",
      "outputs": [],
      "stateMutability": "nonpayable",
      "type": "function"
    },
    {
      "inputs": [
        {
          "internalType": "uint256",
          "name": "tokenId",
          "type": "uint256"
        }
      ],
      "name": "ownerOf",
      "outputs": [
        {
          "internalType": "address",
          "name": "",
          "type": "address"
        }
      ],
      "stateMutability": "view",
      "type": "function"
    },
    {
      "inputs": [],
      "name": "price",
      "outputs": [
        {
          "internalType": "uint256",
          "name": "",
          "type": "uint256"
        }
      ],
      "stateMutability": "view",
      "type": "function"
    },
    {
      "inputs": [
        {
          "internalType": "uint256",
          "name": "__amount",
          "type": "uint256"
        }
      ],
      "name": "publicMint",
      "outputs": [],
      "stateMutability": "payable",
      "type": "function"
    },
    {
      "inputs": [],
      "name": "renounceOwnership",
      "outputs": [],
      "stateMutability": "nonpayable",
      "type": "function"
    },
    {
      "inputs": [
        {
          "internalType": "address",
          "name": "from",
          "type": "address"
        },
        {
          "internalType": "address",
          "name": "to",
          "type": "address"
        },
        {
          "internalType": "uint256",
          "name": "tokenId",
          "type": "uint256"
        }
      ],
      "name": "safeTransferFrom",
      "outputs": [],
      "stateMutability": "nonpayable",
      "type": "function"
    },
    {
      "inputs": [
        {
          "internalType": "address",
          "name": "from",
          "type": "address"
        },
        {
          "internalType": "address",
          "name": "to",
          "type": "address"
        },
        {
          "internalType": "uint256",
          "name": "tokenId",
          "type": "uint256"
        },
        {
          "internalType": "bytes",
          "name": "_data",
          "type": "bytes"
        }
      ],
      "name": "safeTransferFrom",
      "outputs": [],
      "stateMutability": "nonpayable",
      "type": "function"
    },
    {
      "inputs": [
        {
          "internalType": "address",
          "name": "operator",
          "type": "address"
        },
        {
          "internalType": "bool",
          "name": "approved",
          "type": "bool"
        }
      ],
      "name": "setApprovalForAll",
      "outputs": [],
      "stateMutability": "nonpayable",
      "type": "function"
    },
    {
      "inputs": [
        {
          "internalType": "string",
          "name": "__newURI",
          "type": "string"
        }
      ],
      "name": "setBaseURI",
      "outputs": [],
      "stateMutability": "nonpayable",
      "type": "function"
    },
    {
      "inputs": [
        {
          "internalType": "uint256",
          "name": "__price",
          "type": "uint256"
        }
      ],
      "name": "setPrice",
      "outputs": [],
      "stateMutability": "nonpayable",
      "type": "function"
    },
    {
      "inputs": [
        {
          "internalType": "uint256",
          "name": "__status",
          "type": "uint256"
        }
      ],
      "name": "setStatus",
      "outputs": [],
      "stateMutability": "nonpayable",
      "type": "function"
    },
    {
      "inputs": [
        {
          "internalType": "uint256",
          "name": "__newTotalSupply",
          "type": "uint256"
        }
      ],
      "name": "setTotalSupply",
      "outputs": [],
      "stateMutability": "nonpayable",
      "type": "function"
    },
    {
      "inputs": [
        {
          "internalType": "bytes32",
          "name": "__root",
          "type": "bytes32"
        }
      ],
      "name": "setWhiteListRoot",
      "outputs": [],
      "stateMutability": "nonpayable",
      "type": "function"
    },
    {
      "inputs": [],
      "name": "status",
      "outputs": [
        {
          "internalType": "enum NotMafia.Status",
          "name": "",
          "type": "uint8"
        }
      ],
      "stateMutability": "view",
      "type": "function"
    },
    {
      "inputs": [
        {
          "internalType": "bytes4",
          "name": "interfaceId",
          "type": "bytes4"
        }
      ],
      "name": "supportsInterface",
      "outputs": [
        {
          "internalType": "bool",
          "name": "",
          "type": "bool"
        }
      ],
      "stateMutability": "view",
      "type": "function"
    },
    {
      "inputs": [],
      "name": "symbol",
      "outputs": [
        {
          "internalType": "string",
          "name": "",
          "type": "string"
        }
      ],
      "stateMutability": "view",
      "type": "function"
    },
    {
      "inputs": [
        {
          "internalType": "uint256",
          "name": "__tokenId",
          "type": "uint256"
        }
      ],
      "name": "tokenURI",
      "outputs": [
        {
          "internalType": "string",
          "name": "",
          "type": "string"
        }
      ],
      "stateMutability": "view",
      "type": "function"
    },
    {
      "inputs": [],
      "name": "totalSupply",
      "outputs": [
        {
          "internalType": "uint256",
          "name": "",
          "type": "uint256"
        }
      ],
      "stateMutability": "view",
      "type": "function"
    },
    {
      "inputs": [
        {
          "internalType": "address",
          "name": "from",
          "type": "address"
        },
        {
          "internalType": "address",
          "name": "to",
          "type": "address"
        },
        {
          "internalType": "uint256",
          "name": "tokenId",
          "type": "uint256"
        }
      ],
      "name": "transferFrom",
      "outputs": [],
      "stateMutability": "nonpayable",
      "type": "function"
    },
    {
      "inputs": [
        {
          "internalType": "address",
          "name": "newOwner",
          "type": "address"
        }
      ],
      "name": "transferOwnership",
      "outputs": [],
      "stateMutability": "nonpayable",
      "type": "function"
    },
    {
      "inputs": [
        {
          "internalType": "bytes32[]",
          "name": "__proof",
          "type": "bytes32[]"
        }
      ],
      "name": "whiteListMint",
      "outputs": [],
      "stateMutability": "nonpayable",
      "type": "function"
    },
    {
      "inputs": [],
      "name": "whiteListRoot",
      "outputs": [
        {
          "internalType": "bytes32",
          "name": "",
          "type": "bytes32"
        }
      ],
      "stateMutability": "view",
      "type": "function"
    },
    {
      "inputs": [],
      "name": "withdraw",
      "outputs": [],
      "stateMutability": "nonpayable",
      "type": "function"
    }
  ],
  "bytecode": "0x608060405261115c600f553480156200001757600080fd5b506040518060400160405280600981526020017f4e6f74204d6166696100000000000000000000000000000000000000000000008152506040518060400160405280600481526020017f4e544d460000000000000000000000000000000000000000000000000000000081525081600290805190602001906200009c92919062000217565b508060039080519060200190620000b592919062000217565b50620000c66200014060201b60201c565b6000819055505050620000ee620000e26200014960201b60201c565b6200015160201b60201c565b60016009819055506000600a60006101000a81548160ff021916908360028111156200011f576200011e620002c7565b5b0217905550661edf824b192000600b819055506001600e819055506200035b565b60006001905090565b600033905090565b6000600860009054906101000a900473ffffffffffffffffffffffffffffffffffffffff16905081600860006101000a81548173ffffffffffffffffffffffffffffffffffffffff021916908373ffffffffffffffffffffffffffffffffffffffff1602179055508173ffffffffffffffffffffffffffffffffffffffff168173ffffffffffffffffffffffffffffffffffffffff167f8be0079c531659141344cd1fd0a4f28419497f9722a3daafe3b4186f6b6457e060405160405180910390a35050565b828054620002259062000325565b90600052602060002090601f01602090048101928262000249576000855562000295565b82601f106200026457805160ff191683800117855562000295565b8280016001018555821562000295579182015b828111156200029457825182559160200191906001019062000277565b5b509050620002a49190620002a8565b5090565b5b80821115620002c3576000816000905550600101620002a9565b5090565b7f4e487b7100000000000000000000000000000000000000000000000000000000600052602160045260246000fd5b7f4e487b7100000000000000000000000000000000000000000000000000000000600052602260045260246000fd5b600060028204905060018216806200033e57607f821691505b60208210811415620003555762000354620002f6565b5b50919050565b613689806200036b6000396000f3fe6080604052600436106101f95760003560e01c806369ba1a751161010d578063a035b1fe116100a0578063e985e9c51161006f578063e985e9c514610710578063f19e75d41461074d578063f2fde38b14610776578063f524d6cd1461079f578063f7ea7a3d146107dc576101f9565b8063a035b1fe14610656578063a22cb46514610681578063b88d4fde146106aa578063c87b56dd146106d3576101f9565b80638da5cb5b116100dc5780638da5cb5b146105ae57806391b7f5ed146105d957806395d89b411461060257806397254e551461062d576101f9565b806369ba1a75146105065780636c0360eb1461052f57806370a082311461055a578063715018a614610597576101f9565b8063374bc20b116101905780634d7216901161015f5780634d7216901461040d57806355f804b31461044a57806356189236146104735780636352211e1461049e57806365f4fd12146104db576101f9565b8063374bc20b146103675780633ccfd60b146103a457806342842e0e146103bb57806345149bb3146103e4576101f9565b806318160ddd116101cc57806318160ddd146102cc578063200d2ed2146102f757806323b872dd146103225780632db115441461034b576101f9565b806301ffc9a7146101fe57806306fdde031461023b578063081812fc14610266578063095ea7b3146102a3575b600080fd5b34801561020a57600080fd5b5061022560048036038101906102209190612927565b610805565b604051610232919061296f565b60405180910390f35b34801561024757600080fd5b50610250610897565b60405161025d9190612a23565b60405180910390f35b34801561027257600080fd5b5061028d60048036038101906102889190612a7b565b610929565b60405161029a9190612ae9565b60405180910390f35b3480156102af57600080fd5b506102ca60048036038101906102c59190612b30565b6109a8565b005b3480156102d857600080fd5b506102e1610aec565b6040516102ee9190612b7f565b60405180910390f35b34801561030357600080fd5b5061030c610b03565b6040516103199190612c11565b60405180910390f35b34801561032e57600080fd5b5061034960048036038101906103449190612c2c565b610b16565b005b61036560048036038101906103609190612a7b565b610e3b565b005b34801561037357600080fd5b5061038e60048036038101906103899190612c7f565b610f88565b60405161039b919061296f565b60405180910390f35b3480156103b057600080fd5b506103b9610fde565b005b3480156103c757600080fd5b506103e260048036038101906103dd9190612c2c565b611085565b005b3480156103f057600080fd5b5061040b60048036038101906104069190612ce2565b6110a5565b005b34801561041957600080fd5b50610434600480360381019061042f9190612c7f565b6110b7565b6040516104419190612b7f565b60405180910390f35b34801561045657600080fd5b50610471600480360381019061046c9190612e44565b611100565b005b34801561047f57600080fd5b50610488611122565b6040516104959190612b7f565b60405180910390f35b3480156104aa57600080fd5b506104c560048036038101906104c09190612a7b565b61112c565b6040516104d29190612ae9565b60405180910390f35b3480156104e757600080fd5b506104f061113e565b6040516104fd9190612e9c565b60405180910390f35b34801561051257600080fd5b5061052d60048036038101906105289190612a7b565b611144565b005b34801561053b57600080fd5b506105446111c2565b6040516105519190612a23565b60405180910390f35b34801561056657600080fd5b50610581600480360381019061057c9190612c7f565b611250565b60405161058e9190612b7f565b60405180910390f35b3480156105a357600080fd5b506105ac611309565b005b3480156105ba57600080fd5b506105c361131d565b6040516105d09190612ae9565b60405180910390f35b3480156105e557600080fd5b5061060060048036038101906105fb9190612a7b565b611347565b005b34801561060e57600080fd5b50610617611359565b6040516106249190612a23565b60405180910390f35b34801561063957600080fd5b50610654600480360381019061064f9190612f17565b6113eb565b005b34801561066257600080fd5b5061066b611690565b6040516106789190612b7f565b60405180910390f35b34801561068d57600080fd5b506106a860048036038101906106a39190612f90565b611696565b005b3480156106b657600080fd5b506106d160048036038101906106cc9190613071565b61180e565b005b3480156106df57600080fd5b506106fa60048036038101906106f59190612a7b565b611881565b6040516107079190612a23565b60405180910390f35b34801561071c57600080fd5b50610737600480360381019061073291906130f4565b6119a3565b604051610744919061296f565b60405180910390f35b34801561075957600080fd5b50610774600480360381019061076f9190612a7b565b611a37565b005b34801561078257600080fd5b5061079d60048036038101906107989190612c7f565b611afb565b005b3480156107ab57600080fd5b506107c660048036038101906107c19190612c7f565b611b7f565b6040516107d3919061296f565b60405180910390f35b3480156107e857600080fd5b5061080360048036038101906107fe9190612a7b565b611bd5565b005b60006301ffc9a760e01b827bffffffffffffffffffffffffffffffffffffffffffffffffffffffff1916148061086057506380ac58cd60e01b827bffffffffffffffffffffffffffffffffffffffffffffffffffffffff1916145b806108905750635b5e139f60e01b827bffffffffffffffffffffffffffffffffffffffffffffffffffffffff1916145b9050919050565b6060600280546108a690613163565b80601f01602080910402602001604051908101604052809291908181526020018280546108d290613163565b801561091f5780601f106108f45761010080835404028352916020019161091f565b820191906000526020600020905b81548152906001019060200180831161090257829003601f168201915b5050505050905090565b600061093482611be7565b61096a576040517fcf4700e400000000000000000000000000000000000000000000000000000000815260040160405180910390fd5b6006600083815260200190815260200160002060000160009054906101000a900473ffffffffffffffffffffffffffffffffffffffff169050919050565b60006109b38261112c565b90508073ffffffffffffffffffffffffffffffffffffffff166109d4611c46565b73ffffffffffffffffffffffffffffffffffffffff1614610a3757610a00816109fb611c46565b6119a3565b610a36576040517fcfb3b94200000000000000000000000000000000000000000000000000000000815260040160405180910390fd5b5b826006600084815260200190815260200160002060000160006101000a81548173ffffffffffffffffffffffffffffffffffffffff021916908373ffffffffffffffffffffffffffffffffffffffff160217905550818373ffffffffffffffffffffffffffffffffffffffff168273ffffffffffffffffffffffffffffffffffffffff167f8c5be1e5ebec7d5bd14f71427d1e84f3dd0314c0f7b2291e5b200ac8c7c3b92560405160405180910390a4505050565b6000610af6611c4e565b6001546000540303905090565b600a60009054906101000a900460ff1681565b6000610b2182611c57565b90508373ffffffffffffffffffffffffffffffffffffffff168173ffffffffffffffffffffffffffffffffffffffff1614610b88576040517fa114810000000000000000000000000000000000000000000000000000000000815260040160405180910390fd5b600080610b9484611d25565b91509150610baa8187610ba5611c46565b611d4c565b610bf657610bbf86610bba611c46565b6119a3565b610bf5576040517f59c896be00000000000000000000000000000000000000000000000000000000815260040160405180910390fd5b5b600073ffffffffffffffffffffffffffffffffffffffff168573ffffffffffffffffffffffffffffffffffffffff161415610c5d576040517fea553b3400000000000000000000000000000000000000000000000000000000815260040160405180910390fd5b610c6a8686866001611d90565b8015610c7557600082555b600560008773ffffffffffffffffffffffffffffffffffffffff1673ffffffffffffffffffffffffffffffffffffffff168152602001908152602001600020600081546001900391905081905550600560008673ffffffffffffffffffffffffffffffffffffffff1673ffffffffffffffffffffffffffffffffffffffff1681526020019081526020016000206000815460010191905081905550610d4385610d1f888887611d96565b7c020000000000000000000000000000000000000000000000000000000017611dbe565b600460008681526020019081526020016000208190555060007c020000000000000000000000000000000000000000000000000000000084161415610dcb576000600185019050600060046000838152602001908152602001600020541415610dc9576000548114610dc8578360046000838152602001908152602001600020819055505b5b505b838573ffffffffffffffffffffffffffffffffffffffff168773ffffffffffffffffffffffffffffffffffffffff167fddf252ad1be2c89b69c2b068fc378daa952ba7f163c4a11628f55a4df523b3ef60405160405180910390a4610e338686866001611de9565b505050505050565b60026009541415610e81576040517f08c379a0000000000000000000000000000000000000000000000000000000008152600401610e78906131e1565b60405180910390fd5b60026009819055503373ffffffffffffffffffffffffffffffffffffffff163273ffffffffffffffffffffffffffffffffffffffff1614610eee576040517f2e75101900000000000000000000000000000000000000000000000000000000815260040160405180910390fd5b600280811115610f0157610f00612b9a565b5b600a60009054906101000a900460ff166002811115610f2357610f22612b9a565b5b14610f5a576040517f012cd2e700000000000000000000000000000000000000000000000000000000815260040160405180910390fd5b6108ae600e541115610f7457610f6f81611def565b610f7d565b610f7c611fcb565b5b600160098190555050565b6000601160008373ffffffffffffffffffffffffffffffffffffffff1673ffffffffffffffffffffffffffffffffffffffff16815260200190815260200160002060009054906101000a900460ff169050919050565b60026009541415611024576040517f08c379a000000000000000000000000000000000000000000000000000000000815260040161101b906131e1565b60405180910390fd5b6002600981905550611034612155565b3373ffffffffffffffffffffffffffffffffffffffff166108fc479081150290604051600060405180830381858888f1935050505015801561107a573d6000803e3d6000fd5b506001600981905550565b6110a08383836040518060200160405280600081525061180e565b505050565b6110ad612155565b80600d8190555050565b6000601260008373ffffffffffffffffffffffffffffffffffffffff1673ffffffffffffffffffffffffffffffffffffffff168152602001908152602001600020549050919050565b611108612155565b80600c908051906020019061111e929190612818565b5050565b6000600e54905090565b600061113782611c57565b9050919050565b600d5481565b61114c612155565b80600281111561115f5761115e612b9a565b5b600a60006101000a81548160ff0219169083600281111561118357611182612b9a565b5b02179055507f3665a8b73cada881fbf8d8433b7d9e7d21c1e53eecf7bb51fb15262d98ee0afb816040516111b79190612b7f565b60405180910390a150565b600c80546111cf90613163565b80601f01602080910402602001604051908101604052809291908181526020018280546111fb90613163565b80156112485780601f1061121d57610100808354040283529160200191611248565b820191906000526020600020905b81548152906001019060200180831161122b57829003601f168201915b505050505081565b60008073ffffffffffffffffffffffffffffffffffffffff168273ffffffffffffffffffffffffffffffffffffffff1614156112b8576040517f8f4eb60400000000000000000000000000000000000000000000000000000000815260040160405180910390fd5b67ffffffffffffffff600560008473ffffffffffffffffffffffffffffffffffffffff1673ffffffffffffffffffffffffffffffffffffffff16815260200190815260200160002054169050919050565b611311612155565b61131b60006121d3565b565b6000600860009054906101000a900473ffffffffffffffffffffffffffffffffffffffff16905090565b61134f612155565b80600b8190555050565b60606003805461136890613163565b80601f016020809104026020016040519081016040528092919081815260200182805461139490613163565b80156113e15780601f106113b6576101008083540402835291602001916113e1565b820191906000526020600020905b8154815290600101906020018083116113c457829003601f168201915b5050505050905090565b60026009541415611431576040517f08c379a0000000000000000000000000000000000000000000000000000000008152600401611428906131e1565b60405180910390fd5b60026009819055503373ffffffffffffffffffffffffffffffffffffffff163273ffffffffffffffffffffffffffffffffffffffff161461149e576040517f2e75101900000000000000000000000000000000000000000000000000000000815260040160405180910390fd5b600160028111156114b2576114b1612b9a565b5b600a60009054906101000a900460ff1660028111156114d4576114d3612b9a565b5b1461150b576040517f012cd2e700000000000000000000000000000000000000000000000000000000815260040160405180910390fd5b6106a4600e541115611549576040517f47747fa900000000000000000000000000000000000000000000000000000000815260040160405180910390fd5b6115568282600d54612299565b61158c576040517f6a9a57a500000000000000000000000000000000000000000000000000000000815260040160405180910390fd5b601060003373ffffffffffffffffffffffffffffffffffffffff1673ffffffffffffffffffffffffffffffffffffffff16815260200190815260200160002060009054906101000a900460ff1615611610576040517f6f5aa9e400000000000000000000000000000000000000000000000000000000815260040160405180910390fd5b6001600e600082825401925050819055506001601060003373ffffffffffffffffffffffffffffffffffffffff1673ffffffffffffffffffffffffffffffffffffffff16815260200190815260200160002060006101000a81548160ff021916908315150217905550611684336001612316565b60016009819055505050565b600b5481565b61169e611c46565b73ffffffffffffffffffffffffffffffffffffffff168273ffffffffffffffffffffffffffffffffffffffff161415611703576040517fb06307db00000000000000000000000000000000000000000000000000000000815260040160405180910390fd5b8060076000611710611c46565b73ffffffffffffffffffffffffffffffffffffffff1673ffffffffffffffffffffffffffffffffffffffff16815260200190815260200160002060008473ffffffffffffffffffffffffffffffffffffffff1673ffffffffffffffffffffffffffffffffffffffff16815260200190815260200160002060006101000a81548160ff0219169083151502179055508173ffffffffffffffffffffffffffffffffffffffff166117bd611c46565b73ffffffffffffffffffffffffffffffffffffffff167f17307eab39ab6107e8899845ad3d59bd9653f200f220920489ca2b5937696c3183604051611802919061296f565b60405180910390a35050565b611819848484610b16565b60008373ffffffffffffffffffffffffffffffffffffffff163b1461187b5761184484848484612334565b61187a576040517fd1a57ed600000000000000000000000000000000000000000000000000000000815260040160405180910390fd5b5b50505050565b606061188c82611be7565b6118c2576040517fa14c4b5000000000000000000000000000000000000000000000000000000000815260040160405180910390fd5b6000600c80546118d190613163565b80601f01602080910402602001604051908101604052809291908181526020018280546118fd90613163565b801561194a5780601f1061191f5761010080835404028352916020019161194a565b820191906000526020600020905b81548152906001019060200180831161192d57829003601f168201915b50505050509050600081511415611970576040518060200160405280600081525061199b565b8061197a84612494565b60405160200161198b929190613289565b6040516020818303038152906040525b915050919050565b6000600760008473ffffffffffffffffffffffffffffffffffffffff1673ffffffffffffffffffffffffffffffffffffffff16815260200190815260200160002060008373ffffffffffffffffffffffffffffffffffffffff1673ffffffffffffffffffffffffffffffffffffffff16815260200190815260200160002060009054906101000a900460ff16905092915050565b60026009541415611a7d576040517f08c379a0000000000000000000000000000000000000000000000000000000008152600401611a74906131e1565b60405180910390fd5b6002600981905550611a8d612155565b600f5481600e54611a9e91906132e7565b1115611ad6576040517f47747fa900000000000000000000000000000000000000000000000000000000815260040160405180910390fd5b80600e60008282540192505081905550611af03382612316565b600160098190555050565b611b03612155565b600073ffffffffffffffffffffffffffffffffffffffff168173ffffffffffffffffffffffffffffffffffffffff161415611b73576040517f08c379a0000000000000000000000000000000000000000000000000000000008152600401611b6a906133af565b60405180910390fd5b611b7c816121d3565b50565b6000601060008373ffffffffffffffffffffffffffffffffffffffff1673ffffffffffffffffffffffffffffffffffffffff16815260200190815260200160002060009054906101000a900460ff169050919050565b611bdd612155565b80600f8190555050565b600081611bf2611c4e565b11158015611c01575060005482105b8015611c3f575060007c0100000000000000000000000000000000000000000000000000000000600460008581526020019081526020016000205416145b9050919050565b600033905090565b60006001905090565b60008082905080611c66611c4e565b11611cee57600054811015611ced5760006004600083815260200190815260200160002054905060007c010000000000000000000000000000000000000000000000000000000082161415611ceb575b6000811415611ce1576004600083600190039350838152602001908152602001600020549050611cb6565b8092505050611d20565b505b5b6040517fdf2d9b4200000000000000000000000000000000000000000000000000000000815260040160405180910390fd5b919050565b60008060006006600085815260200190815260200160002090508092508254915050915091565b600073ffffffffffffffffffffffffffffffffffffffff8316925073ffffffffffffffffffffffffffffffffffffffff821691508382148383141790509392505050565b50505050565b60008060e883901c905060e8611dad8686846124ee565b62ffffff16901b9150509392505050565b600073ffffffffffffffffffffffffffffffffffffffff83169250814260a01b178317905092915050565b50505050565b60026009541415611e35576040517f08c379a0000000000000000000000000000000000000000000000000000000008152600401611e2c906131e1565b60405180910390fd5b6002600981905550600b5481611e4b91906133cf565b3414611e83576040517fc534702400000000000000000000000000000000000000000000000000000000815260040160405180910390fd5b6000601260003373ffffffffffffffffffffffffffffffffffffffff1673ffffffffffffffffffffffffffffffffffffffff16815260200190815260200160002054905060058282611ed591906132e7565b1115611f0d576040517f06f5d75400000000000000000000000000000000000000000000000000000000815260040160405180910390fd5b600f5482600e54611f1e91906132e7565b1115611f56576040517f47747fa900000000000000000000000000000000000000000000000000000000815260040160405180910390fd5b81600e600082825401925050819055508181611f7291906132e7565b601260003373ffffffffffffffffffffffffffffffffffffffff1673ffffffffffffffffffffffffffffffffffffffff16815260200190815260200160002081905550611fbf3383612316565b50600160098190555050565b60026009541415612011576040517f08c379a0000000000000000000000000000000000000000000000000000000008152600401612008906131e1565b60405180910390fd5b600260098190555060003414612053576040517fc534702400000000000000000000000000000000000000000000000000000000815260040160405180910390fd5b601160003373ffffffffffffffffffffffffffffffffffffffff1673ffffffffffffffffffffffffffffffffffffffff16815260200190815260200160002060009054906101000a900460ff16156120d7576040517f6f5aa9e400000000000000000000000000000000000000000000000000000000815260040160405180910390fd5b6001600e600082825401925050819055506001601160003373ffffffffffffffffffffffffffffffffffffffff1673ffffffffffffffffffffffffffffffffffffffff16815260200190815260200160002060006101000a81548160ff02191690831515021790555061214b336001612316565b6001600981905550565b61215d6124f7565b73ffffffffffffffffffffffffffffffffffffffff1661217b61131d565b73ffffffffffffffffffffffffffffffffffffffff16146121d1576040517f08c379a00000000000000000000000000000000000000000000000000000000081526004016121c890613475565b60405180910390fd5b565b6000600860009054906101000a900473ffffffffffffffffffffffffffffffffffffffff16905081600860006101000a81548173ffffffffffffffffffffffffffffffffffffffff021916908373ffffffffffffffffffffffffffffffffffffffff1602179055508173ffffffffffffffffffffffffffffffffffffffff168173ffffffffffffffffffffffffffffffffffffffff167f8be0079c531659141344cd1fd0a4f28419497f9722a3daafe3b4186f6b6457e060405160405180910390a35050565b600061230d848480806020026020016040519081016040528093929190818152602001838360200280828437600081840152601f19601f8201169050808301925050505050505083336040516020016122f291906134dd565b604051602081830303815290604052805190602001206124ff565b90509392505050565b612330828260405180602001604052806000815250612516565b5050565b60008373ffffffffffffffffffffffffffffffffffffffff1663150b7a0261235a611c46565b8786866040518563ffffffff1660e01b815260040161237c949392919061354d565b602060405180830381600087803b15801561239657600080fd5b505af19250505080156123c757506040513d601f19601f820116820180604052508101906123c491906135ae565b60015b612441573d80600081146123f7576040519150601f19603f3d011682016040523d82523d6000602084013e6123fc565b606091505b50600081511415612439576040517fd1a57ed600000000000000000000000000000000000000000000000000000000815260040160405180910390fd5b805181602001fd5b63150b7a0260e01b7bffffffffffffffffffffffffffffffffffffffffffffffffffffffff1916817bffffffffffffffffffffffffffffffffffffffffffffffffffffffff191614915050949350505050565b60606080604051019050806040528082600183039250600a81066030018353600a810490505b80156124da57600183039250600a81066030018353600a810490506124ba565b508181036020830392508083525050919050565b60009392505050565b600033905090565b60008261250c85846125b3565b1490509392505050565b6125208383612609565b60008373ffffffffffffffffffffffffffffffffffffffff163b146125ae57600080549050600083820390505b6125606000868380600101945086612334565b612596576040517fd1a57ed600000000000000000000000000000000000000000000000000000000815260040160405180910390fd5b81811061254d5781600054146125ab57600080fd5b50505b505050565b60008082905060005b84518110156125fe576125e9828683815181106125dc576125db6135db565b5b60200260200101516127c6565b915080806125f69061360a565b9150506125bc565b508091505092915050565b600080549050600082141561264a576040517fb562e8dd00000000000000000000000000000000000000000000000000000000815260040160405180910390fd5b6126576000848385611d90565b600160406001901b178202600560008573ffffffffffffffffffffffffffffffffffffffff1673ffffffffffffffffffffffffffffffffffffffff168152602001908152602001600020600082825401925050819055506126ce836126bf6000866000611d96565b6126c8856127f1565b17611dbe565b6004600083815260200190815260200160002081905550600080838301905073ffffffffffffffffffffffffffffffffffffffff85169150828260007fddf252ad1be2c89b69c2b068fc378daa952ba7f163c4a11628f55a4df523b3ef600080a4600183015b81811461276f57808360007fddf252ad1be2c89b69c2b068fc378daa952ba7f163c4a11628f55a4df523b3ef600080a4600181019050612734565b5060008214156127ab576040517f2e07630000000000000000000000000000000000000000000000000000000000815260040160405180910390fd5b8060008190555050506127c16000848385611de9565b505050565b60008183106127de576127d98284612801565b6127e9565b6127e88383612801565b5b905092915050565b60006001821460e11b9050919050565b600082600052816020526040600020905092915050565b82805461282490613163565b90600052602060002090601f016020900481019282612846576000855561288d565b82601f1061285f57805160ff191683800117855561288d565b8280016001018555821561288d579182015b8281111561288c578251825591602001919060010190612871565b5b50905061289a919061289e565b5090565b5b808211156128b757600081600090555060010161289f565b5090565b6000604051905090565b600080fd5b600080fd5b60007fffffffff0000000000000000000000000000000000000000000000000000000082169050919050565b612904816128cf565b811461290f57600080fd5b50565b600081359050612921816128fb565b92915050565b60006020828403121561293d5761293c6128c5565b5b600061294b84828501612912565b91505092915050565b60008115159050919050565b61296981612954565b82525050565b60006020820190506129846000830184612960565b92915050565b600081519050919050565b600082825260208201905092915050565b60005b838110156129c45780820151818401526020810190506129a9565b838111156129d3576000848401525b50505050565b6000601f19601f8301169050919050565b60006129f58261298a565b6129ff8185612995565b9350612a0f8185602086016129a6565b612a18816129d9565b840191505092915050565b60006020820190508181036000830152612a3d81846129ea565b905092915050565b6000819050919050565b612a5881612a45565b8114612a6357600080fd5b50565b600081359050612a7581612a4f565b92915050565b600060208284031215612a9157612a906128c5565b5b6000612a9f84828501612a66565b91505092915050565b600073ffffffffffffffffffffffffffffffffffffffff82169050919050565b6000612ad382612aa8565b9050919050565b612ae381612ac8565b82525050565b6000602082019050612afe6000830184612ada565b92915050565b612b0d81612ac8565b8114612b1857600080fd5b50565b600081359050612b2a81612b04565b92915050565b60008060408385031215612b4757612b466128c5565b5b6000612b5585828601612b1b565b9250506020612b6685828601612a66565b9150509250929050565b612b7981612a45565b82525050565b6000602082019050612b946000830184612b70565b92915050565b7f4e487b7100000000000000000000000000000000000000000000000000000000600052602160045260246000fd5b60038110612bda57612bd9612b9a565b5b50565b6000819050612beb82612bc9565b919050565b6000612bfb82612bdd565b9050919050565b612c0b81612bf0565b82525050565b6000602082019050612c266000830184612c02565b92915050565b600080600060608486031215612c4557612c446128c5565b5b6000612c5386828701612b1b565b9350506020612c6486828701612b1b565b9250506040612c7586828701612a66565b9150509250925092565b600060208284031215612c9557612c946128c5565b5b6000612ca384828501612b1b565b91505092915050565b6000819050919050565b612cbf81612cac565b8114612cca57600080fd5b50565b600081359050612cdc81612cb6565b92915050565b600060208284031215612cf857612cf76128c5565b5b6000612d0684828501612ccd565b91505092915050565b600080fd5b600080fd5b7f4e487b7100000000000000000000000000000000000000000000000000000000600052604160045260246000fd5b612d51826129d9565b810181811067ffffffffffffffff82111715612d7057612d6f612d19565b5b80604052505050565b6000612d836128bb565b9050612d8f8282612d48565b919050565b600067ffffffffffffffff821115612daf57612dae612d19565b5b612db8826129d9565b9050602081019050919050565b82818337600083830152505050565b6000612de7612de284612d94565b612d79565b905082815260208101848484011115612e0357612e02612d14565b5b612e0e848285612dc5565b509392505050565b600082601f830112612e2b57612e2a612d0f565b5b8135612e3b848260208601612dd4565b91505092915050565b600060208284031215612e5a57612e596128c5565b5b600082013567ffffffffffffffff811115612e7857612e776128ca565b5b612e8484828501612e16565b91505092915050565b612e9681612cac565b82525050565b6000602082019050612eb16000830184612e8d565b92915050565b600080fd5b600080fd5b60008083601f840112612ed757612ed6612d0f565b5b8235905067ffffffffffffffff811115612ef457612ef3612eb7565b5b602083019150836020820283011115612f1057612f0f612ebc565b5b9250929050565b60008060208385031215612f2e57612f2d6128c5565b5b600083013567ffffffffffffffff811115612f4c57612f4b6128ca565b5b612f5885828601612ec1565b92509250509250929050565b612f6d81612954565b8114612f7857600080fd5b50565b600081359050612f8a81612f64565b92915050565b60008060408385031215612fa757612fa66128c5565b5b6000612fb585828601612b1b565b9250506020612fc685828601612f7b565b9150509250929050565b600067ffffffffffffffff821115612feb57612fea612d19565b5b612ff4826129d9565b9050602081019050919050565b600061301461300f84612fd0565b612d79565b9050828152602081018484840111156130305761302f612d14565b5b61303b848285612dc5565b509392505050565b600082601f83011261305857613057612d0f565b5b8135613068848260208601613001565b91505092915050565b6000806000806080858703121561308b5761308a6128c5565b5b600061309987828801612b1b565b94505060206130aa87828801612b1b565b93505060406130bb87828801612a66565b925050606085013567ffffffffffffffff8111156130dc576130db6128ca565b5b6130e887828801613043565b91505092959194509250565b6000806040838503121561310b5761310a6128c5565b5b600061311985828601612b1b565b925050602061312a85828601612b1b565b9150509250929050565b7f4e487b7100000000000000000000000000000000000000000000000000000000600052602260045260246000fd5b6000600282049050600182168061317b57607f821691505b6020821081141561318f5761318e613134565b5b50919050565b7f5265656e7472616e637947756172643a207265656e7472616e742063616c6c00600082015250565b60006131cb601f83612995565b91506131d682613195565b602082019050919050565b600060208201905081810360008301526131fa816131be565b9050919050565b600081905092915050565b60006132178261298a565b6132218185613201565b93506132318185602086016129a6565b80840191505092915050565b7f2e6a736f6e000000000000000000000000000000000000000000000000000000600082015250565b6000613273600583613201565b915061327e8261323d565b600582019050919050565b6000613295828561320c565b91506132a1828461320c565b91506132ac82613266565b91508190509392505050565b7f4e487b7100000000000000000000000000000000000000000000000000000000600052601160045260246000fd5b60006132f282612a45565b91506132fd83612a45565b9250827fffffffffffffffffffffffffffffffffffffffffffffffffffffffffffffffff03821115613332576133316132b8565b5b828201905092915050565b7f4f776e61626c653a206e6577206f776e657220697320746865207a65726f206160008201527f6464726573730000000000000000000000000000000000000000000000000000602082015250565b6000613399602683612995565b91506133a48261333d565b604082019050919050565b600060208201905081810360008301526133c88161338c565b9050919050565b60006133da82612a45565b91506133e583612a45565b9250817fffffffffffffffffffffffffffffffffffffffffffffffffffffffffffffffff048311821515161561341e5761341d6132b8565b5b828202905092915050565b7f4f776e61626c653a2063616c6c6572206973206e6f7420746865206f776e6572600082015250565b600061345f602083612995565b915061346a82613429565b602082019050919050565b6000602082019050818103600083015261348e81613452565b9050919050565b60008160601b9050919050565b60006134ad82613495565b9050919050565b60006134bf826134a2565b9050919050565b6134d76134d282612ac8565b6134b4565b82525050565b60006134e982846134c6565b60148201915081905092915050565b600081519050919050565b600082825260208201905092915050565b600061351f826134f8565b6135298185613503565b93506135398185602086016129a6565b613542816129d9565b840191505092915050565b60006080820190506135626000830187612ada565b61356f6020830186612ada565b61357c6040830185612b70565b818103606083015261358e8184613514565b905095945050505050565b6000815190506135a8816128fb565b92915050565b6000602082840312156135c4576135c36128c5565b5b60006135d284828501613599565b91505092915050565b7f4e487b7100000000000000000000000000000000000000000000000000000000600052603260045260246000fd5b600061361582612a45565b91507fffffffffffffffffffffffffffffffffffffffffffffffffffffffffffffffff821415613648576136476132b8565b5b60018201905091905056fea26469706673582212201c7f75e2623cce7a765c2260272e1d9aea9ef2272933391fe63fac0bea02074964736f6c63430008090033",
  "linkReferences": {},
  "deployedLinkReferences": {}
}