{
  "_format": "hh-sol-artifact-1",
  "contractName": "NotMafia",
  "sourceName": "contracts/NotMafia.sol",
  "abi": [
    {
      "inputs": [],
      "stateMutability": "nonpayable",
      "type": "constructor"
    },
    {
      "inputs": [],
      "name": "AlreadyMintedMaxInPhase",
      "type": "error"
    },
    {
      "inputs": [],
      "name": "AmountNotAvailable",
      "type": "error"
    },
    {
      "inputs": [],
      "name": "ApprovalCallerNotOwnerNorApproved",
      "type": "error"
    },
    {
      "inputs": [],
      "name": "ApprovalQueryForNonexistentToken",
      "type": "error"
    },
    {
      "inputs": [],
      "name": "ApproveToCaller",
      "type": "error"
    },
    {
      "inputs": [],
      "name": "BalanceQueryForZeroAddress",
      "type": "error"
    },
    {
      "inputs": [],
      "name": "MintERC2309QuantityExceedsLimit",
      "type": "error"
    },
    {
      "inputs": [],
      "name": "MintToZeroAddress",
      "type": "error"
    },
    {
      "inputs": [],
      "name": "MintZeroQuantity",
      "type": "error"
    },
    {
      "inputs": [],
      "name": "NotWhiteListed",
      "type": "error"
    },
    {
      "inputs": [],
      "name": "OnlyUserMint",
      "type": "error"
    },
    {
      "inputs": [],
      "name": "OwnerQueryForNonexistentToken",
      "type": "error"
    },
    {
      "inputs": [],
      "name": "OwnershipNotInitializedForExtraData",
      "type": "error"
    },
    {
      "inputs": [],
      "name": "TransferCallerNotOwnerNorApproved",
      "type": "error"
    },
    {
      "inputs": [],
      "name": "TransferFromIncorrectOwner",
      "type": "error"
    },
    {
      "inputs": [],
      "name": "TransferToNonERC721ReceiverImplementer",
      "type": "error"
    },
    {
      "inputs": [],
      "name": "TransferToZeroAddress",
      "type": "error"
    },
    {
      "inputs": [],
      "name": "URIQueryForNonexistentToken",
      "type": "error"
    },
    {
      "inputs": [],
      "name": "ValueNotEqualToPrice",
      "type": "error"
    },
    {
      "inputs": [],
      "name": "WouldExceedMaxPerWallet",
      "type": "error"
    },
    {
      "inputs": [],
      "name": "WrongMintFunction",
      "type": "error"
    },
    {
      "anonymous": false,
      "inputs": [
        {
          "indexed": true,
          "internalType": "address",
          "name": "owner",
          "type": "address"
        },
        {
          "indexed": true,
          "internalType": "address",
          "name": "approved",
          "type": "address"
        },
        {
          "indexed": true,
          "internalType": "uint256",
          "name": "tokenId",
          "type": "uint256"
        }
      ],
      "name": "Approval",
      "type": "event"
    },
    {
      "anonymous": false,
      "inputs": [
        {
          "indexed": true,
          "internalType": "address",
          "name": "owner",
          "type": "address"
        },
        {
          "indexed": true,
          "internalType": "address",
          "name": "operator",
          "type": "address"
        },
        {
          "indexed": false,
          "internalType": "bool",
          "name": "approved",
          "type": "bool"
        }
      ],
      "name": "ApprovalForAll",
      "type": "event"
    },
    {
      "anonymous": false,
      "inputs": [
        {
          "indexed": false,
          "internalType": "uint256",
          "name": "newStatus",
          "type": "uint256"
        }
      ],
      "name": "ChangedStatus",
      "type": "event"
    },
    {
      "anonymous": false,
      "inputs": [
        {
          "indexed": true,
          "internalType": "uint256",
          "name": "fromTokenId",
          "type": "uint256"
        },
        {
          "indexed": false,
          "internalType": "uint256",
          "name": "toTokenId",
          "type": "uint256"
        },
        {
          "indexed": true,
          "internalType": "address",
          "name": "from",
          "type": "address"
        },
        {
          "indexed": true,
          "internalType": "address",
          "name": "to",
          "type": "address"
        }
      ],
      "name": "ConsecutiveTransfer",
      "type": "event"
    },
    {
      "anonymous": false,
      "inputs": [
        {
          "indexed": true,
          "internalType": "address",
          "name": "previousOwner",
          "type": "address"
        },
        {
          "indexed": true,
          "internalType": "address",
          "name": "newOwner",
          "type": "address"
        }
      ],
      "name": "OwnershipTransferred",
      "type": "event"
    },
    {
      "anonymous": false,
      "inputs": [
        {
          "indexed": true,
          "internalType": "address",
          "name": "from",
          "type": "address"
        },
        {
          "indexed": true,
          "internalType": "address",
          "name": "to",
          "type": "address"
        },
        {
          "indexed": true,
          "internalType": "uint256",
          "name": "tokenId",
          "type": "uint256"
        }
      ],
      "name": "Transfer",
      "type": "event"
    },
    {
      "inputs": [
        {
          "internalType": "address",
          "name": "to",
          "type": "address"
        },
        {
          "internalType": "uint256",
          "name": "tokenId",
          "type": "uint256"
        }
      ],
      "name": "approve",
      "outputs": [],
      "stateMutability": "nonpayable",
      "type": "function"
    },
    {
      "inputs": [
        {
          "internalType": "address",
          "name": "owner",
          "type": "address"
        }
      ],
      "name": "balanceOf",
      "outputs": [
        {
          "internalType": "uint256",
          "name": "",
          "type": "uint256"
        }
      ],
      "stateMutability": "view",
      "type": "function"
    },
    {
      "inputs": [],
      "name": "baseURI",
      "outputs": [
        {
          "internalType": "string",
          "name": "",
          "type": "string"
        }
      ],
      "stateMutability": "view",
      "type": "function"
    },
    {
      "inputs": [
        {
          "internalType": "uint256",
          "name": "tokenId",
          "type": "uint256"
        }
      ],
      "name": "getApproved",
      "outputs": [
        {
          "internalType": "address",
          "name": "",
          "type": "address"
        }
      ],
      "stateMutability": "view",
      "type": "function"
    },
    {
      "inputs": [],
      "name": "getCurrentTokenId",
      "outputs": [
        {
          "internalType": "uint256",
          "name": "",
          "type": "uint256"
        }
      ],
      "stateMutability": "view",
      "type": "function"
    },
    {
      "inputs": [
        {
          "internalType": "address",
          "name": "__address",
          "type": "address"
        }
      ],
      "name": "getHasMintedFree",
      "outputs": [
        {
          "internalType": "bool",
          "name": "",
          "type": "bool"
        }
      ],
      "stateMutability": "view",
      "type": "function"
    },
    {
      "inputs": [
        {
          "internalType": "address",
          "name": "__address",
          "type": "address"
        }
      ],
      "name": "getHasMintedSale",
      "outputs": [
        {
          "internalType": "uint256",
          "name": "",
          "type": "uint256"
        }
      ],
      "stateMutability": "view",
      "type": "function"
    },
    {
      "inputs": [
        {
          "internalType": "address",
          "name": "__address",
          "type": "address"
        }
      ],
      "name": "getHasMintedWhiteList",
      "outputs": [
        {
          "internalType": "bool",
          "name": "",
          "type": "bool"
        }
      ],
      "stateMutability": "view",
      "type": "function"
    },
    {
      "inputs": [
        {
          "internalType": "address",
          "name": "owner",
          "type": "address"
        },
        {
          "internalType": "address",
          "name": "operator",
          "type": "address"
        }
      ],
      "name": "isApprovedForAll",
      "outputs": [
        {
          "internalType": "bool",
          "name": "",
          "type": "bool"
        }
      ],
      "stateMutability": "view",
      "type": "function"
    },
    {
      "inputs": [],
      "name": "name",
      "outputs": [
        {
          "internalType": "string",
          "name": "",
          "type": "string"
        }
      ],
      "stateMutability": "view",
      "type": "function"
    },
    {
      "inputs": [],
      "name": "owner",
      "outputs": [
        {
          "internalType": "address",
          "name": "",
          "type": "address"
        }
      ],
      "stateMutability": "view",
      "type": "function"
    },
    {
      "inputs": [
        {
          "internalType": "uint256",
          "name": "__amount",
          "type": "uint256"
        }
      ],
      "name": "ownerMint",
      "outputs": [],
      "stateMutability": "nonpayable",
      "type": "function"
    },
    {
      "inputs": [
        {
          "internalType": "uint256",
          "name": "tokenId",
          "type": "uint256"
        }
      ],
      "name": "ownerOf",
      "outputs": [
        {
          "internalType": "address",
          "name": "",
          "type": "address"
        }
      ],
      "stateMutability": "view",
      "type": "function"
    },
    {
      "inputs": [],
      "name": "price",
      "outputs": [
        {
          "internalType": "uint256",
          "name": "",
          "type": "uint256"
        }
      ],
      "stateMutability": "view",
      "type": "function"
    },
    {
      "inputs": [
        {
          "internalType": "uint256",
          "name": "__amount",
          "type": "uint256"
        }
      ],
      "name": "publicMint",
      "outputs": [],
      "stateMutability": "payable",
      "type": "function"
    },
    {
      "inputs": [],
      "name": "renounceOwnership",
      "outputs": [],
      "stateMutability": "nonpayable",
      "type": "function"
    },
    {
      "inputs": [
        {
          "internalType": "address",
          "name": "from",
          "type": "address"
        },
        {
          "internalType": "address",
          "name": "to",
          "type": "address"
        },
        {
          "internalType": "uint256",
          "name": "tokenId",
          "type": "uint256"
        }
      ],
      "name": "safeTransferFrom",
      "outputs": [],
      "stateMutability": "nonpayable",
      "type": "function"
    },
    {
      "inputs": [
        {
          "internalType": "address",
          "name": "from",
          "type": "address"
        },
        {
          "internalType": "address",
          "name": "to",
          "type": "address"
        },
        {
          "internalType": "uint256",
          "name": "tokenId",
          "type": "uint256"
        },
        {
          "internalType": "bytes",
          "name": "_data",
          "type": "bytes"
        }
      ],
      "name": "safeTransferFrom",
      "outputs": [],
      "stateMutability": "nonpayable",
      "type": "function"
    },
    {
      "inputs": [
        {
          "internalType": "address",
          "name": "operator",
          "type": "address"
        },
        {
          "internalType": "bool",
          "name": "approved",
          "type": "bool"
        }
      ],
      "name": "setApprovalForAll",
      "outputs": [],
      "stateMutability": "nonpayable",
      "type": "function"
    },
    {
      "inputs": [
        {
          "internalType": "string",
          "name": "__newURI",
          "type": "string"
        }
      ],
      "name": "setBaseURI",
      "outputs": [],
      "stateMutability": "nonpayable",
      "type": "function"
    },
    {
      "inputs": [
        {
          "internalType": "uint256",
          "name": "__price",
          "type": "uint256"
        }
      ],
      "name": "setPrice",
      "outputs": [],
      "stateMutability": "nonpayable",
      "type": "function"
    },
    {
      "inputs": [
        {
          "internalType": "uint256",
          "name": "__status",
          "type": "uint256"
        }
      ],
      "name": "setStatus",
      "outputs": [],
      "stateMutability": "nonpayable",
      "type": "function"
    },
    {
      "inputs": [
        {
          "internalType": "uint256",
          "name": "__newTotalSupply",
          "type": "uint256"
        }
      ],
      "name": "setTotalSupply",
      "outputs": [],
      "stateMutability": "nonpayable",
      "type": "function"
    },
    {
      "inputs": [
        {
          "internalType": "bytes32",
          "name": "__root",
          "type": "bytes32"
        }
      ],
      "name": "setWhiteListRoot",
      "outputs": [],
      "stateMutability": "nonpayable",
      "type": "function"
    },
    {
      "inputs": [],
      "name": "status",
      "outputs": [
        {
          "internalType": "enum NotMafia.Status",
          "name": "",
          "type": "uint8"
        }
      ],
      "stateMutability": "view",
      "type": "function"
    },
    {
      "inputs": [
        {
          "internalType": "bytes4",
          "name": "interfaceId",
          "type": "bytes4"
        }
      ],
      "name": "supportsInterface",
      "outputs": [
        {
          "internalType": "bool",
          "name": "",
          "type": "bool"
        }
      ],
      "stateMutability": "view",
      "type": "function"
    },
    {
      "inputs": [],
      "name": "symbol",
      "outputs": [
        {
          "internalType": "string",
          "name": "",
          "type": "string"
        }
      ],
      "stateMutability": "view",
      "type": "function"
    },
    {
      "inputs": [
        {
          "internalType": "uint256",
          "name": "__tokenId",
          "type": "uint256"
        }
      ],
      "name": "tokenURI",
      "outputs": [
        {
          "internalType": "string",
          "name": "",
          "type": "string"
        }
      ],
      "stateMutability": "view",
      "type": "function"
    },
    {
      "inputs": [],
      "name": "totalSupply",
      "outputs": [
        {
          "internalType": "uint256",
          "name": "",
          "type": "uint256"
        }
      ],
      "stateMutability": "view",
      "type": "function"
    },
    {
      "inputs": [
        {
          "internalType": "address",
          "name": "from",
          "type": "address"
        },
        {
          "internalType": "address",
          "name": "to",
          "type": "address"
        },
        {
          "internalType": "uint256",
          "name": "tokenId",
          "type": "uint256"
        }
      ],
      "name": "transferFrom",
      "outputs": [],
      "stateMutability": "nonpayable",
      "type": "function"
    },
    {
      "inputs": [
        {
          "internalType": "address",
          "name": "newOwner",
          "type": "address"
        }
      ],
      "name": "transferOwnership",
      "outputs": [],
      "stateMutability": "nonpayable",
      "type": "function"
    },
    {
      "inputs": [
        {
          "internalType": "bytes32[]",
          "name": "__proof",
          "type": "bytes32[]"
        }
      ],
      "name": "whiteListMint",
      "outputs": [],
      "stateMutability": "nonpayable",
      "type": "function"
    },
    {
      "inputs": [],
      "name": "whiteListRoot",
      "outputs": [
        {
          "internalType": "bytes32",
          "name": "",
          "type": "bytes32"
        }
      ],
      "stateMutability": "view",
      "type": "function"
    },
    {
      "inputs": [],
      "name": "withdraw",
      "outputs": [],
      "stateMutability": "nonpayable",
      "type": "function"
    }
  ],
  "bytecode": "0x608060405261115c600d553480156200001757600080fd5b506040518060400160405280600881526020017f6e6f746d616669610000000000000000000000000000000000000000000000008152506040518060400160405280600481526020017f4e544d460000000000000000000000000000000000000000000000000000000081525081600290805190602001906200009c9291906200020f565b508060039080519060200190620000b59291906200020f565b50620000c66200013860201b60201c565b6000819055505050620000ee620000e26200014160201b60201c565b6200014960201b60201c565b6000600860146101000a81548160ff02191690836002811115620001175762000116620002bf565b5b0217905550661edf824b1920006009819055506001600c8190555062000353565b60006001905090565b600033905090565b6000600860009054906101000a900473ffffffffffffffffffffffffffffffffffffffff16905081600860006101000a81548173ffffffffffffffffffffffffffffffffffffffff021916908373ffffffffffffffffffffffffffffffffffffffff1602179055508173ffffffffffffffffffffffffffffffffffffffff168173ffffffffffffffffffffffffffffffffffffffff167f8be0079c531659141344cd1fd0a4f28419497f9722a3daafe3b4186f6b6457e060405160405180910390a35050565b8280546200021d906200031d565b90600052602060002090601f0160209004810192826200024157600085556200028d565b82601f106200025c57805160ff19168380011785556200028d565b828001600101855582156200028d579182015b828111156200028c5782518255916020019190600101906200026f565b5b5090506200029c9190620002a0565b5090565b5b80821115620002bb576000816000905550600101620002a1565b5090565b7f4e487b7100000000000000000000000000000000000000000000000000000000600052602160045260246000fd5b7f4e487b7100000000000000000000000000000000000000000000000000000000600052602260045260246000fd5b600060028204905060018216806200033657607f821691505b602082108114156200034d576200034c620002ee565b5b50919050565b61341e80620003636000396000f3fe6080604052600436106101f95760003560e01c806369ba1a751161010d578063a035b1fe116100a0578063e985e9c51161006f578063e985e9c514610710578063f19e75d41461074d578063f2fde38b14610776578063f524d6cd1461079f578063f7ea7a3d146107dc576101f9565b8063a035b1fe14610656578063a22cb46514610681578063b88d4fde146106aa578063c87b56dd146106d3576101f9565b80638da5cb5b116100dc5780638da5cb5b146105ae57806391b7f5ed146105d957806395d89b411461060257806397254e551461062d576101f9565b806369ba1a75146105065780636c0360eb1461052f57806370a082311461055a578063715018a614610597576101f9565b8063374bc20b116101905780634d7216901161015f5780634d7216901461040d57806355f804b31461044a57806356189236146104735780636352211e1461049e57806365f4fd12146104db576101f9565b8063374bc20b146103675780633ccfd60b146103a457806342842e0e146103bb57806345149bb3146103e4576101f9565b806318160ddd116101cc57806318160ddd146102cc578063200d2ed2146102f757806323b872dd146103225780632db115441461034b576101f9565b806301ffc9a7146101fe57806306fdde031461023b578063081812fc14610266578063095ea7b3146102a3575b600080fd5b34801561020a57600080fd5b5061022560048036038101906102209190612728565b610805565b6040516102329190612770565b60405180910390f35b34801561024757600080fd5b50610250610897565b60405161025d9190612824565b60405180910390f35b34801561027257600080fd5b5061028d6004803603810190610288919061287c565b610929565b60405161029a91906128ea565b60405180910390f35b3480156102af57600080fd5b506102ca60048036038101906102c59190612931565b6109a8565b005b3480156102d857600080fd5b506102e1610aec565b6040516102ee9190612980565b60405180910390f35b34801561030357600080fd5b5061030c610b03565b6040516103199190612a12565b60405180910390f35b34801561032e57600080fd5b5061034960048036038101906103449190612a2d565b610b16565b005b6103656004803603810190610360919061287c565b610e3b565b005b34801561037357600080fd5b5061038e60048036038101906103899190612a80565b610f32565b60405161039b9190612770565b60405180910390f35b3480156103b057600080fd5b506103b9610f88565b005b3480156103c757600080fd5b506103e260048036038101906103dd9190612a2d565b610fd9565b005b3480156103f057600080fd5b5061040b60048036038101906104069190612ae3565b610ff9565b005b34801561041957600080fd5b50610434600480360381019061042f9190612a80565b61100b565b6040516104419190612980565b60405180910390f35b34801561045657600080fd5b50610471600480360381019061046c9190612c45565b611054565b005b34801561047f57600080fd5b50610488611076565b6040516104959190612980565b60405180910390f35b3480156104aa57600080fd5b506104c560048036038101906104c0919061287c565b611080565b6040516104d291906128ea565b60405180910390f35b3480156104e757600080fd5b506104f0611092565b6040516104fd9190612c9d565b60405180910390f35b34801561051257600080fd5b5061052d6004803603810190610528919061287c565b611098565b005b34801561053b57600080fd5b50610544611116565b6040516105519190612824565b60405180910390f35b34801561056657600080fd5b50610581600480360381019061057c9190612a80565b6111a4565b60405161058e9190612980565b60405180910390f35b3480156105a357600080fd5b506105ac61125d565b005b3480156105ba57600080fd5b506105c3611271565b6040516105d091906128ea565b60405180910390f35b3480156105e557600080fd5b5061060060048036038101906105fb919061287c565b61129b565b005b34801561060e57600080fd5b506106176112ad565b6040516106249190612824565b60405180910390f35b34801561063957600080fd5b50610654600480360381019061064f9190612d18565b61133f565b005b34801561066257600080fd5b5061066b61158e565b6040516106789190612980565b60405180910390f35b34801561068d57600080fd5b506106a860048036038101906106a39190612d91565b611594565b005b3480156106b657600080fd5b506106d160048036038101906106cc9190612e72565b61170c565b005b3480156106df57600080fd5b506106fa60048036038101906106f5919061287c565b61177f565b6040516107079190612824565b60405180910390f35b34801561071c57600080fd5b5061073760048036038101906107329190612ef5565b6118a1565b6040516107449190612770565b60405180910390f35b34801561075957600080fd5b50610774600480360381019061076f919061287c565b611935565b005b34801561078257600080fd5b5061079d60048036038101906107989190612a80565b6119a8565b005b3480156107ab57600080fd5b506107c660048036038101906107c19190612a80565b611a2c565b6040516107d39190612770565b60405180910390f35b3480156107e857600080fd5b5061080360048036038101906107fe919061287c565b611a82565b005b60006301ffc9a760e01b827bffffffffffffffffffffffffffffffffffffffffffffffffffffffff1916148061086057506380ac58cd60e01b827bffffffffffffffffffffffffffffffffffffffffffffffffffffffff1916145b806108905750635b5e139f60e01b827bffffffffffffffffffffffffffffffffffffffffffffffffffffffff1916145b9050919050565b6060600280546108a690612f64565b80601f01602080910402602001604051908101604052809291908181526020018280546108d290612f64565b801561091f5780601f106108f45761010080835404028352916020019161091f565b820191906000526020600020905b81548152906001019060200180831161090257829003601f168201915b5050505050905090565b600061093482611a94565b61096a576040517fcf4700e400000000000000000000000000000000000000000000000000000000815260040160405180910390fd5b6006600083815260200190815260200160002060000160009054906101000a900473ffffffffffffffffffffffffffffffffffffffff169050919050565b60006109b382611080565b90508073ffffffffffffffffffffffffffffffffffffffff166109d4611af3565b73ffffffffffffffffffffffffffffffffffffffff1614610a3757610a00816109fb611af3565b6118a1565b610a36576040517fcfb3b94200000000000000000000000000000000000000000000000000000000815260040160405180910390fd5b5b826006600084815260200190815260200160002060000160006101000a81548173ffffffffffffffffffffffffffffffffffffffff021916908373ffffffffffffffffffffffffffffffffffffffff160217905550818373ffffffffffffffffffffffffffffffffffffffff168273ffffffffffffffffffffffffffffffffffffffff167f8c5be1e5ebec7d5bd14f71427d1e84f3dd0314c0f7b2291e5b200ac8c7c3b92560405160405180910390a4505050565b6000610af6611afb565b6001546000540303905090565b600860149054906101000a900460ff1681565b6000610b2182611b04565b90508373ffffffffffffffffffffffffffffffffffffffff168173ffffffffffffffffffffffffffffffffffffffff1614610b88576040517fa114810000000000000000000000000000000000000000000000000000000000815260040160405180910390fd5b600080610b9484611bd2565b91509150610baa8187610ba5611af3565b611bf9565b610bf657610bbf86610bba611af3565b6118a1565b610bf5576040517f59c896be00000000000000000000000000000000000000000000000000000000815260040160405180910390fd5b5b600073ffffffffffffffffffffffffffffffffffffffff168573ffffffffffffffffffffffffffffffffffffffff161415610c5d576040517fea553b3400000000000000000000000000000000000000000000000000000000815260040160405180910390fd5b610c6a8686866001611c3d565b8015610c7557600082555b600560008773ffffffffffffffffffffffffffffffffffffffff1673ffffffffffffffffffffffffffffffffffffffff168152602001908152602001600020600081546001900391905081905550600560008673ffffffffffffffffffffffffffffffffffffffff1673ffffffffffffffffffffffffffffffffffffffff1681526020019081526020016000206000815460010191905081905550610d4385610d1f888887611c43565b7c020000000000000000000000000000000000000000000000000000000017611c6b565b600460008681526020019081526020016000208190555060007c020000000000000000000000000000000000000000000000000000000084161415610dcb576000600185019050600060046000838152602001908152602001600020541415610dc9576000548114610dc8578360046000838152602001908152602001600020819055505b5b505b838573ffffffffffffffffffffffffffffffffffffffff168773ffffffffffffffffffffffffffffffffffffffff167fddf252ad1be2c89b69c2b068fc378daa952ba7f163c4a11628f55a4df523b3ef60405160405180910390a4610e338686866001611c96565b505050505050565b3373ffffffffffffffffffffffffffffffffffffffff163273ffffffffffffffffffffffffffffffffffffffff1614610ea0576040517f2e75101900000000000000000000000000000000000000000000000000000000815260040160405180910390fd5b600280811115610eb357610eb261299b565b5b600860149054906101000a900460ff166002811115610ed557610ed461299b565b5b14610f0c576040517f012cd2e700000000000000000000000000000000000000000000000000000000815260040160405180910390fd5b6108ae600c541115610f2657610f2181611c9c565b610f2f565b610f2e611e22565b5b50565b6000600f60008373ffffffffffffffffffffffffffffffffffffffff1673ffffffffffffffffffffffffffffffffffffffff16815260200190815260200160002060009054906101000a900460ff169050919050565b610f90611f56565b3373ffffffffffffffffffffffffffffffffffffffff166108fc479081150290604051600060405180830381858888f19350505050158015610fd6573d6000803e3d6000fd5b50565b610ff48383836040518060200160405280600081525061170c565b505050565b611001611f56565b80600b8190555050565b6000601060008373ffffffffffffffffffffffffffffffffffffffff1673ffffffffffffffffffffffffffffffffffffffff168152602001908152602001600020549050919050565b61105c611f56565b80600a9080519060200190611072929190612619565b5050565b6000600c54905090565b600061108b82611b04565b9050919050565b600b5481565b6110a0611f56565b8060028111156110b3576110b261299b565b5b600860146101000a81548160ff021916908360028111156110d7576110d661299b565b5b02179055507f3665a8b73cada881fbf8d8433b7d9e7d21c1e53eecf7bb51fb15262d98ee0afb8160405161110b9190612980565b60405180910390a150565b600a805461112390612f64565b80601f016020809104026020016040519081016040528092919081815260200182805461114f90612f64565b801561119c5780601f106111715761010080835404028352916020019161119c565b820191906000526020600020905b81548152906001019060200180831161117f57829003601f168201915b505050505081565b60008073ffffffffffffffffffffffffffffffffffffffff168273ffffffffffffffffffffffffffffffffffffffff16141561120c576040517f8f4eb60400000000000000000000000000000000000000000000000000000000815260040160405180910390fd5b67ffffffffffffffff600560008473ffffffffffffffffffffffffffffffffffffffff1673ffffffffffffffffffffffffffffffffffffffff16815260200190815260200160002054169050919050565b611265611f56565b61126f6000611fd4565b565b6000600860009054906101000a900473ffffffffffffffffffffffffffffffffffffffff16905090565b6112a3611f56565b8060098190555050565b6060600380546112bc90612f64565b80601f01602080910402602001604051908101604052809291908181526020018280546112e890612f64565b80156113355780601f1061130a57610100808354040283529160200191611335565b820191906000526020600020905b81548152906001019060200180831161131857829003601f168201915b5050505050905090565b3373ffffffffffffffffffffffffffffffffffffffff163273ffffffffffffffffffffffffffffffffffffffff16146113a4576040517f2e75101900000000000000000000000000000000000000000000000000000000815260040160405180910390fd5b600160028111156113b8576113b761299b565b5b600860149054906101000a900460ff1660028111156113da576113d961299b565b5b14611411576040517f012cd2e700000000000000000000000000000000000000000000000000000000815260040160405180910390fd5b6106a4600c54111561144f576040517f47747fa900000000000000000000000000000000000000000000000000000000815260040160405180910390fd5b61145c8282600b5461209a565b611492576040517f6a9a57a500000000000000000000000000000000000000000000000000000000815260040160405180910390fd5b600e60003373ffffffffffffffffffffffffffffffffffffffff1673ffffffffffffffffffffffffffffffffffffffff16815260200190815260200160002060009054906101000a900460ff1615611516576040517f6f5aa9e400000000000000000000000000000000000000000000000000000000815260040160405180910390fd5b6001600c600082825401925050819055506001600e60003373ffffffffffffffffffffffffffffffffffffffff1673ffffffffffffffffffffffffffffffffffffffff16815260200190815260200160002060006101000a81548160ff02191690831515021790555061158a336001612117565b5050565b60095481565b61159c611af3565b73ffffffffffffffffffffffffffffffffffffffff168273ffffffffffffffffffffffffffffffffffffffff161415611601576040517fb06307db00000000000000000000000000000000000000000000000000000000815260040160405180910390fd5b806007600061160e611af3565b73ffffffffffffffffffffffffffffffffffffffff1673ffffffffffffffffffffffffffffffffffffffff16815260200190815260200160002060008473ffffffffffffffffffffffffffffffffffffffff1673ffffffffffffffffffffffffffffffffffffffff16815260200190815260200160002060006101000a81548160ff0219169083151502179055508173ffffffffffffffffffffffffffffffffffffffff166116bb611af3565b73ffffffffffffffffffffffffffffffffffffffff167f17307eab39ab6107e8899845ad3d59bd9653f200f220920489ca2b5937696c31836040516117009190612770565b60405180910390a35050565b611717848484610b16565b60008373ffffffffffffffffffffffffffffffffffffffff163b146117795761174284848484612135565b611778576040517fd1a57ed600000000000000000000000000000000000000000000000000000000815260040160405180910390fd5b5b50505050565b606061178a82611a94565b6117c0576040517fa14c4b5000000000000000000000000000000000000000000000000000000000815260040160405180910390fd5b6000600a80546117cf90612f64565b80601f01602080910402602001604051908101604052809291908181526020018280546117fb90612f64565b80156118485780601f1061181d57610100808354040283529160200191611848565b820191906000526020600020905b81548152906001019060200180831161182b57829003601f168201915b5050505050905060008151141561186e5760405180602001604052806000815250611899565b8061187884612295565b60405160200161188992919061301e565b6040516020818303038152906040525b915050919050565b6000600760008473ffffffffffffffffffffffffffffffffffffffff1673ffffffffffffffffffffffffffffffffffffffff16815260200190815260200160002060008373ffffffffffffffffffffffffffffffffffffffff1673ffffffffffffffffffffffffffffffffffffffff16815260200190815260200160002060009054906101000a900460ff16905092915050565b61193d611f56565b600d5481611949610aec565b611953919061307c565b111561198b576040517f47747fa900000000000000000000000000000000000000000000000000000000815260040160405180910390fd5b80600c600082825401925050819055506119a53382612117565b50565b6119b0611f56565b600073ffffffffffffffffffffffffffffffffffffffff168173ffffffffffffffffffffffffffffffffffffffff161415611a20576040517f08c379a0000000000000000000000000000000000000000000000000000000008152600401611a1790613144565b60405180910390fd5b611a2981611fd4565b50565b6000600e60008373ffffffffffffffffffffffffffffffffffffffff1673ffffffffffffffffffffffffffffffffffffffff16815260200190815260200160002060009054906101000a900460ff169050919050565b611a8a611f56565b80600d8190555050565b600081611a9f611afb565b11158015611aae575060005482105b8015611aec575060007c0100000000000000000000000000000000000000000000000000000000600460008581526020019081526020016000205416145b9050919050565b600033905090565b60006001905090565b60008082905080611b13611afb565b11611b9b57600054811015611b9a5760006004600083815260200190815260200160002054905060007c010000000000000000000000000000000000000000000000000000000082161415611b98575b6000811415611b8e576004600083600190039350838152602001908152602001600020549050611b63565b8092505050611bcd565b505b5b6040517fdf2d9b4200000000000000000000000000000000000000000000000000000000815260040160405180910390fd5b919050565b60008060006006600085815260200190815260200160002090508092508254915050915091565b600073ffffffffffffffffffffffffffffffffffffffff8316925073ffffffffffffffffffffffffffffffffffffffff821691508382148383141790509392505050565b50505050565b60008060e883901c905060e8611c5a8686846122ef565b62ffffff16901b9150509392505050565b600073ffffffffffffffffffffffffffffffffffffffff83169250814260a01b178317905092915050565b50505050565b60095481611caa9190613164565b3414611ce2576040517fc534702400000000000000000000000000000000000000000000000000000000815260040160405180910390fd5b6000601060003373ffffffffffffffffffffffffffffffffffffffff1673ffffffffffffffffffffffffffffffffffffffff16815260200190815260200160002054905060058282611d34919061307c565b1115611d6c576040517f06f5d75400000000000000000000000000000000000000000000000000000000815260040160405180910390fd5b600d5482600c54611d7d919061307c565b1115611db5576040517f47747fa900000000000000000000000000000000000000000000000000000000815260040160405180910390fd5b81600c600082825401925050819055508181611dd1919061307c565b601060003373ffffffffffffffffffffffffffffffffffffffff1673ffffffffffffffffffffffffffffffffffffffff16815260200190815260200160002081905550611e1e3383612117565b5050565b60003414611e5c576040517fc534702400000000000000000000000000000000000000000000000000000000815260040160405180910390fd5b600f60003373ffffffffffffffffffffffffffffffffffffffff1673ffffffffffffffffffffffffffffffffffffffff16815260200190815260200160002060009054906101000a900460ff1615611ee0576040517f6f5aa9e400000000000000000000000000000000000000000000000000000000815260040160405180910390fd5b6001600c600082825401925050819055506001600f60003373ffffffffffffffffffffffffffffffffffffffff1673ffffffffffffffffffffffffffffffffffffffff16815260200190815260200160002060006101000a81548160ff021916908315150217905550611f54336001612117565b565b611f5e6122f8565b73ffffffffffffffffffffffffffffffffffffffff16611f7c611271565b73ffffffffffffffffffffffffffffffffffffffff1614611fd2576040517f08c379a0000000000000000000000000000000000000000000000000000000008152600401611fc99061320a565b60405180910390fd5b565b6000600860009054906101000a900473ffffffffffffffffffffffffffffffffffffffff16905081600860006101000a81548173ffffffffffffffffffffffffffffffffffffffff021916908373ffffffffffffffffffffffffffffffffffffffff1602179055508173ffffffffffffffffffffffffffffffffffffffff168173ffffffffffffffffffffffffffffffffffffffff167f8be0079c531659141344cd1fd0a4f28419497f9722a3daafe3b4186f6b6457e060405160405180910390a35050565b600061210e848480806020026020016040519081016040528093929190818152602001838360200280828437600081840152601f19601f8201169050808301925050505050505083336040516020016120f39190613272565b60405160208183030381529060405280519060200120612300565b90509392505050565b612131828260405180602001604052806000815250612317565b5050565b60008373ffffffffffffffffffffffffffffffffffffffff1663150b7a0261215b611af3565b8786866040518563ffffffff1660e01b815260040161217d94939291906132e2565b602060405180830381600087803b15801561219757600080fd5b505af19250505080156121c857506040513d601f19601f820116820180604052508101906121c59190613343565b60015b612242573d80600081146121f8576040519150601f19603f3d011682016040523d82523d6000602084013e6121fd565b606091505b5060008151141561223a576040517fd1a57ed600000000000000000000000000000000000000000000000000000000815260040160405180910390fd5b805181602001fd5b63150b7a0260e01b7bffffffffffffffffffffffffffffffffffffffffffffffffffffffff1916817bffffffffffffffffffffffffffffffffffffffffffffffffffffffff191614915050949350505050565b60606080604051019050806040528082600183039250600a81066030018353600a810490505b80156122db57600183039250600a81066030018353600a810490506122bb565b508181036020830392508083525050919050565b60009392505050565b600033905090565b60008261230d85846123b4565b1490509392505050565b612321838361240a565b60008373ffffffffffffffffffffffffffffffffffffffff163b146123af57600080549050600083820390505b6123616000868380600101945086612135565b612397576040517fd1a57ed600000000000000000000000000000000000000000000000000000000815260040160405180910390fd5b81811061234e5781600054146123ac57600080fd5b50505b505050565b60008082905060005b84518110156123ff576123ea828683815181106123dd576123dc613370565b5b60200260200101516125c7565b915080806123f79061339f565b9150506123bd565b508091505092915050565b600080549050600082141561244b576040517fb562e8dd00000000000000000000000000000000000000000000000000000000815260040160405180910390fd5b6124586000848385611c3d565b600160406001901b178202600560008573ffffffffffffffffffffffffffffffffffffffff1673ffffffffffffffffffffffffffffffffffffffff168152602001908152602001600020600082825401925050819055506124cf836124c06000866000611c43565b6124c9856125f2565b17611c6b565b6004600083815260200190815260200160002081905550600080838301905073ffffffffffffffffffffffffffffffffffffffff85169150828260007fddf252ad1be2c89b69c2b068fc378daa952ba7f163c4a11628f55a4df523b3ef600080a4600183015b81811461257057808360007fddf252ad1be2c89b69c2b068fc378daa952ba7f163c4a11628f55a4df523b3ef600080a4600181019050612535565b5060008214156125ac576040517f2e07630000000000000000000000000000000000000000000000000000000000815260040160405180910390fd5b8060008190555050506125c26000848385611c96565b505050565b60008183106125df576125da8284612602565b6125ea565b6125e98383612602565b5b905092915050565b60006001821460e11b9050919050565b600082600052816020526040600020905092915050565b82805461262590612f64565b90600052602060002090601f016020900481019282612647576000855561268e565b82601f1061266057805160ff191683800117855561268e565b8280016001018555821561268e579182015b8281111561268d578251825591602001919060010190612672565b5b50905061269b919061269f565b5090565b5b808211156126b85760008160009055506001016126a0565b5090565b6000604051905090565b600080fd5b600080fd5b60007fffffffff0000000000000000000000000000000000000000000000000000000082169050919050565b612705816126d0565b811461271057600080fd5b50565b600081359050612722816126fc565b92915050565b60006020828403121561273e5761273d6126c6565b5b600061274c84828501612713565b91505092915050565b60008115159050919050565b61276a81612755565b82525050565b60006020820190506127856000830184612761565b92915050565b600081519050919050565b600082825260208201905092915050565b60005b838110156127c55780820151818401526020810190506127aa565b838111156127d4576000848401525b50505050565b6000601f19601f8301169050919050565b60006127f68261278b565b6128008185612796565b93506128108185602086016127a7565b612819816127da565b840191505092915050565b6000602082019050818103600083015261283e81846127eb565b905092915050565b6000819050919050565b61285981612846565b811461286457600080fd5b50565b60008135905061287681612850565b92915050565b600060208284031215612892576128916126c6565b5b60006128a084828501612867565b91505092915050565b600073ffffffffffffffffffffffffffffffffffffffff82169050919050565b60006128d4826128a9565b9050919050565b6128e4816128c9565b82525050565b60006020820190506128ff60008301846128db565b92915050565b61290e816128c9565b811461291957600080fd5b50565b60008135905061292b81612905565b92915050565b60008060408385031215612948576129476126c6565b5b60006129568582860161291c565b925050602061296785828601612867565b9150509250929050565b61297a81612846565b82525050565b60006020820190506129956000830184612971565b92915050565b7f4e487b7100000000000000000000000000000000000000000000000000000000600052602160045260246000fd5b600381106129db576129da61299b565b5b50565b60008190506129ec826129ca565b919050565b60006129fc826129de565b9050919050565b612a0c816129f1565b82525050565b6000602082019050612a276000830184612a03565b92915050565b600080600060608486031215612a4657612a456126c6565b5b6000612a548682870161291c565b9350506020612a658682870161291c565b9250506040612a7686828701612867565b9150509250925092565b600060208284031215612a9657612a956126c6565b5b6000612aa48482850161291c565b91505092915050565b6000819050919050565b612ac081612aad565b8114612acb57600080fd5b50565b600081359050612add81612ab7565b92915050565b600060208284031215612af957612af86126c6565b5b6000612b0784828501612ace565b91505092915050565b600080fd5b600080fd5b7f4e487b7100000000000000000000000000000000000000000000000000000000600052604160045260246000fd5b612b52826127da565b810181811067ffffffffffffffff82111715612b7157612b70612b1a565b5b80604052505050565b6000612b846126bc565b9050612b908282612b49565b919050565b600067ffffffffffffffff821115612bb057612baf612b1a565b5b612bb9826127da565b9050602081019050919050565b82818337600083830152505050565b6000612be8612be384612b95565b612b7a565b905082815260208101848484011115612c0457612c03612b15565b5b612c0f848285612bc6565b509392505050565b600082601f830112612c2c57612c2b612b10565b5b8135612c3c848260208601612bd5565b91505092915050565b600060208284031215612c5b57612c5a6126c6565b5b600082013567ffffffffffffffff811115612c7957612c786126cb565b5b612c8584828501612c17565b91505092915050565b612c9781612aad565b82525050565b6000602082019050612cb26000830184612c8e565b92915050565b600080fd5b600080fd5b60008083601f840112612cd857612cd7612b10565b5b8235905067ffffffffffffffff811115612cf557612cf4612cb8565b5b602083019150836020820283011115612d1157612d10612cbd565b5b9250929050565b60008060208385031215612d2f57612d2e6126c6565b5b600083013567ffffffffffffffff811115612d4d57612d4c6126cb565b5b612d5985828601612cc2565b92509250509250929050565b612d6e81612755565b8114612d7957600080fd5b50565b600081359050612d8b81612d65565b92915050565b60008060408385031215612da857612da76126c6565b5b6000612db68582860161291c565b9250506020612dc785828601612d7c565b9150509250929050565b600067ffffffffffffffff821115612dec57612deb612b1a565b5b612df5826127da565b9050602081019050919050565b6000612e15612e1084612dd1565b612b7a565b905082815260208101848484011115612e3157612e30612b15565b5b612e3c848285612bc6565b509392505050565b600082601f830112612e5957612e58612b10565b5b8135612e69848260208601612e02565b91505092915050565b60008060008060808587031215612e8c57612e8b6126c6565b5b6000612e9a8782880161291c565b9450506020612eab8782880161291c565b9350506040612ebc87828801612867565b925050606085013567ffffffffffffffff811115612edd57612edc6126cb565b5b612ee987828801612e44565b91505092959194509250565b60008060408385031215612f0c57612f0b6126c6565b5b6000612f1a8582860161291c565b9250506020612f2b8582860161291c565b9150509250929050565b7f4e487b7100000000000000000000000000000000000000000000000000000000600052602260045260246000fd5b60006002820490506001821680612f7c57607f821691505b60208210811415612f9057612f8f612f35565b5b50919050565b600081905092915050565b6000612fac8261278b565b612fb68185612f96565b9350612fc68185602086016127a7565b80840191505092915050565b7f2e6a736f6e000000000000000000000000000000000000000000000000000000600082015250565b6000613008600583612f96565b915061301382612fd2565b600582019050919050565b600061302a8285612fa1565b91506130368284612fa1565b915061304182612ffb565b91508190509392505050565b7f4e487b7100000000000000000000000000000000000000000000000000000000600052601160045260246000fd5b600061308782612846565b915061309283612846565b9250827fffffffffffffffffffffffffffffffffffffffffffffffffffffffffffffffff038211156130c7576130c661304d565b5b828201905092915050565b7f4f776e61626c653a206e6577206f776e657220697320746865207a65726f206160008201527f6464726573730000000000000000000000000000000000000000000000000000602082015250565b600061312e602683612796565b9150613139826130d2565b604082019050919050565b6000602082019050818103600083015261315d81613121565b9050919050565b600061316f82612846565b915061317a83612846565b9250817fffffffffffffffffffffffffffffffffffffffffffffffffffffffffffffffff04831182151516156131b3576131b261304d565b5b828202905092915050565b7f4f776e61626c653a2063616c6c6572206973206e6f7420746865206f776e6572600082015250565b60006131f4602083612796565b91506131ff826131be565b602082019050919050565b60006020820190508181036000830152613223816131e7565b9050919050565b60008160601b9050919050565b60006132428261322a565b9050919050565b600061325482613237565b9050919050565b61326c613267826128c9565b613249565b82525050565b600061327e828461325b565b60148201915081905092915050565b600081519050919050565b600082825260208201905092915050565b60006132b48261328d565b6132be8185613298565b93506132ce8185602086016127a7565b6132d7816127da565b840191505092915050565b60006080820190506132f760008301876128db565b61330460208301866128db565b6133116040830185612971565b818103606083015261332381846132a9565b905095945050505050565b60008151905061333d816126fc565b92915050565b600060208284031215613359576133586126c6565b5b60006133678482850161332e565b91505092915050565b7f4e487b7100000000000000000000000000000000000000000000000000000000600052603260045260246000fd5b60006133aa82612846565b91507fffffffffffffffffffffffffffffffffffffffffffffffffffffffffffffffff8214156133dd576133dc61304d565b5b60018201905091905056fea2646970667358221220d7357466ed0d08f7c3299bfbcaace871a65d734fd52560b850e1de7144469c6364736f6c63430008090033",
  "linkReferences": {},
  "deployedLinkReferences": {}
}